{
  "contractName": "NFTennis",
  "abi": [
    {
      "inputs": [],
      "stateMutability": "nonpayable",
      "type": "constructor"
    },
    {
      "anonymous": false,
      "inputs": [
        {
          "indexed": true,
          "internalType": "address",
          "name": "owner",
          "type": "address"
        },
        {
          "indexed": true,
          "internalType": "address",
          "name": "approved",
          "type": "address"
        },
        {
          "indexed": true,
          "internalType": "uint256",
          "name": "tokenId",
          "type": "uint256"
        }
      ],
      "name": "Approval",
      "type": "event"
    },
    {
      "anonymous": false,
      "inputs": [
        {
          "indexed": true,
          "internalType": "address",
          "name": "owner",
          "type": "address"
        },
        {
          "indexed": true,
          "internalType": "address",
          "name": "operator",
          "type": "address"
        },
        {
          "indexed": false,
          "internalType": "bool",
          "name": "approved",
          "type": "bool"
        }
      ],
      "name": "ApprovalForAll",
      "type": "event"
    },
    {
      "anonymous": false,
      "inputs": [
        {
          "indexed": false,
          "internalType": "uint256",
          "name": "tokenId",
          "type": "uint256"
        },
        {
          "indexed": false,
          "internalType": "address",
          "name": "winner",
          "type": "address"
        },
        {
          "indexed": false,
          "internalType": "uint256",
          "name": "winningBid",
          "type": "uint256"
        }
      ],
      "name": "AuctionEnded",
      "type": "event"
    },
    {
      "anonymous": false,
      "inputs": [
        {
          "indexed": false,
          "internalType": "uint256",
          "name": "tokenId",
          "type": "uint256"
        },
        {
          "indexed": false,
          "internalType": "address",
          "name": "seller",
          "type": "address"
        }
      ],
      "name": "AuctionStarted",
      "type": "event"
    },
    {
      "anonymous": false,
      "inputs": [
        {
          "indexed": false,
          "internalType": "uint256",
          "name": "tokenId",
          "type": "uint256"
        },
        {
          "indexed": false,
          "internalType": "address",
          "name": "recipient",
          "type": "address"
        },
        {
          "indexed": false,
          "internalType": "string",
          "name": "tokenURI",
          "type": "string"
        }
      ],
      "name": "NFTMinted",
      "type": "event"
    },
    {
      "anonymous": false,
      "inputs": [
        {
          "indexed": false,
          "internalType": "uint256",
          "name": "tokenId",
          "type": "uint256"
        },
        {
          "indexed": false,
          "internalType": "address",
          "name": "bidder",
          "type": "address"
        },
        {
          "indexed": false,
          "internalType": "uint256",
          "name": "bidAmount",
          "type": "uint256"
        }
      ],
      "name": "NewBid",
      "type": "event"
    },
    {
      "anonymous": false,
      "inputs": [
        {
          "indexed": true,
          "internalType": "address",
          "name": "previousOwner",
          "type": "address"
        },
        {
          "indexed": true,
          "internalType": "address",
          "name": "newOwner",
          "type": "address"
        }
      ],
      "name": "OwnershipTransferred",
      "type": "event"
    },
    {
      "anonymous": false,
      "inputs": [
        {
          "indexed": true,
          "internalType": "address",
          "name": "from",
          "type": "address"
        },
        {
          "indexed": true,
          "internalType": "address",
          "name": "to",
          "type": "address"
        },
        {
          "indexed": true,
          "internalType": "uint256",
          "name": "tokenId",
          "type": "uint256"
        }
      ],
      "name": "Transfer",
      "type": "event"
    },
    {
      "inputs": [
        {
          "internalType": "address",
          "name": "to",
          "type": "address"
        },
        {
          "internalType": "uint256",
          "name": "tokenId",
          "type": "uint256"
        }
      ],
      "name": "approve",
      "outputs": [],
      "stateMutability": "nonpayable",
      "type": "function"
    },
    {
      "inputs": [
        {
          "internalType": "uint256",
          "name": "",
          "type": "uint256"
        }
      ],
      "name": "auctions",
      "outputs": [
        {
          "internalType": "address payable",
          "name": "seller",
          "type": "address"
        },
        {
          "internalType": "uint256",
          "name": "highestBid",
          "type": "uint256"
        },
        {
          "internalType": "address payable",
          "name": "highestBidder",
          "type": "address"
        },
        {
          "internalType": "bool",
          "name": "open",
          "type": "bool"
        }
      ],
      "stateMutability": "view",
      "type": "function",
      "constant": true
    },
    {
      "inputs": [
        {
          "internalType": "address",
          "name": "owner",
          "type": "address"
        }
      ],
      "name": "balanceOf",
      "outputs": [
        {
          "internalType": "uint256",
          "name": "",
          "type": "uint256"
        }
      ],
      "stateMutability": "view",
      "type": "function",
      "constant": true
    },
    {
      "inputs": [
        {
          "internalType": "uint256",
          "name": "tokenId",
          "type": "uint256"
        }
      ],
      "name": "getApproved",
      "outputs": [
        {
          "internalType": "address",
          "name": "",
          "type": "address"
        }
      ],
      "stateMutability": "view",
      "type": "function",
      "constant": true
    },
    {
      "inputs": [
        {
          "internalType": "address",
          "name": "owner",
          "type": "address"
        },
        {
          "internalType": "address",
          "name": "operator",
          "type": "address"
        }
      ],
      "name": "isApprovedForAll",
      "outputs": [
        {
          "internalType": "bool",
          "name": "",
          "type": "bool"
        }
      ],
      "stateMutability": "view",
      "type": "function",
      "constant": true
    },
    {
      "inputs": [],
      "name": "name",
      "outputs": [
        {
          "internalType": "string",
          "name": "",
          "type": "string"
        }
      ],
      "stateMutability": "view",
      "type": "function",
      "constant": true
    },
    {
      "inputs": [],
      "name": "owner",
      "outputs": [
        {
          "internalType": "address",
          "name": "",
          "type": "address"
        }
      ],
      "stateMutability": "view",
      "type": "function",
      "constant": true
    },
    {
      "inputs": [
        {
          "internalType": "uint256",
          "name": "tokenId",
          "type": "uint256"
        }
      ],
      "name": "ownerOf",
      "outputs": [
        {
          "internalType": "address",
          "name": "",
          "type": "address"
        }
      ],
      "stateMutability": "view",
      "type": "function",
      "constant": true
    },
    {
      "inputs": [],
      "name": "renounceOwnership",
      "outputs": [],
      "stateMutability": "nonpayable",
      "type": "function"
    },
    {
      "inputs": [
        {
          "internalType": "address",
          "name": "from",
          "type": "address"
        },
        {
          "internalType": "address",
          "name": "to",
          "type": "address"
        },
        {
          "internalType": "uint256",
          "name": "tokenId",
          "type": "uint256"
        }
      ],
      "name": "safeTransferFrom",
      "outputs": [],
      "stateMutability": "nonpayable",
      "type": "function"
    },
    {
      "inputs": [
        {
          "internalType": "address",
          "name": "from",
          "type": "address"
        },
        {
          "internalType": "address",
          "name": "to",
          "type": "address"
        },
        {
          "internalType": "uint256",
          "name": "tokenId",
          "type": "uint256"
        },
        {
          "internalType": "bytes",
          "name": "_data",
          "type": "bytes"
        }
      ],
      "name": "safeTransferFrom",
      "outputs": [],
      "stateMutability": "nonpayable",
      "type": "function"
    },
    {
      "inputs": [
        {
          "internalType": "address",
          "name": "operator",
          "type": "address"
        },
        {
          "internalType": "bool",
          "name": "approved",
          "type": "bool"
        }
      ],
      "name": "setApprovalForAll",
      "outputs": [],
      "stateMutability": "nonpayable",
      "type": "function"
    },
    {
      "inputs": [
        {
          "internalType": "bytes4",
          "name": "interfaceId",
          "type": "bytes4"
        }
      ],
      "name": "supportsInterface",
      "outputs": [
        {
          "internalType": "bool",
          "name": "",
          "type": "bool"
        }
      ],
      "stateMutability": "view",
      "type": "function",
      "constant": true
    },
    {
      "inputs": [],
      "name": "symbol",
      "outputs": [
        {
          "internalType": "string",
          "name": "",
          "type": "string"
        }
      ],
      "stateMutability": "view",
      "type": "function",
      "constant": true
    },
    {
      "inputs": [],
      "name": "tokenCounter",
      "outputs": [
        {
          "internalType": "uint256",
          "name": "",
          "type": "uint256"
        }
      ],
      "stateMutability": "view",
      "type": "function",
      "constant": true
    },
    {
      "inputs": [
        {
          "internalType": "uint256",
          "name": "tokenId",
          "type": "uint256"
        }
      ],
      "name": "tokenURI",
      "outputs": [
        {
          "internalType": "string",
          "name": "",
          "type": "string"
        }
      ],
      "stateMutability": "view",
      "type": "function",
      "constant": true
    },
    {
      "inputs": [
        {
          "internalType": "address",
          "name": "from",
          "type": "address"
        },
        {
          "internalType": "address",
          "name": "to",
          "type": "address"
        },
        {
          "internalType": "uint256",
          "name": "tokenId",
          "type": "uint256"
        }
      ],
      "name": "transferFrom",
      "outputs": [],
      "stateMutability": "nonpayable",
      "type": "function"
    },
    {
      "inputs": [
        {
          "internalType": "address",
          "name": "newOwner",
          "type": "address"
        }
      ],
      "name": "transferOwnership",
      "outputs": [],
      "stateMutability": "nonpayable",
      "type": "function"
    },
    {
      "inputs": [
        {
          "internalType": "address",
          "name": "recipient",
          "type": "address"
        },
        {
          "internalType": "string",
          "name": "tokenURI",
          "type": "string"
        }
      ],
      "name": "mintNFT",
      "outputs": [],
      "stateMutability": "nonpayable",
      "type": "function"
    },
    {
      "inputs": [
        {
          "internalType": "uint256",
          "name": "tokenId",
          "type": "uint256"
        }
      ],
      "name": "startAuction",
      "outputs": [],
      "stateMutability": "nonpayable",
      "type": "function"
    },
    {
      "inputs": [
        {
          "internalType": "uint256",
          "name": "tokenId",
          "type": "uint256"
        }
      ],
      "name": "bid",
      "outputs": [],
      "stateMutability": "payable",
      "type": "function",
      "payable": true
    },
    {
      "inputs": [
        {
          "internalType": "uint256",
          "name": "tokenId",
          "type": "uint256"
        }
      ],
      "name": "endAuction",
      "outputs": [],
      "stateMutability": "nonpayable",
      "type": "function"
    }
  ],
  "bytecode": "0x60806040523480156200001157600080fd5b506040518060400160405280600881526020017f4e4654656e6e69730000000000000000000000000000000000000000000000008152506040518060400160405280600481526020017f4e46544e0000000000000000000000000000000000000000000000000000000081525081600090816200008f91906200041a565b508060019081620000a191906200041a565b505050620000c4620000b8620000d260201b60201c565b620000da60201b60201c565b600060088190555062000501565b600033905090565b6000600760009054906101000a900473ffffffffffffffffffffffffffffffffffffffff16905081600760006101000a81548173ffffffffffffffffffffffffffffffffffffffff021916908373ffffffffffffffffffffffffffffffffffffffff1602179055508173ffffffffffffffffffffffffffffffffffffffff168173ffffffffffffffffffffffffffffffffffffffff167f8be0079c531659141344cd1fd0a4f28419497f9722a3daafe3b4186f6b6457e060405160405180910390a35050565b600081519050919050565b7f4e487b7100000000000000000000000000000000000000000000000000000000600052604160045260246000fd5b7f4e487b7100000000000000000000000000000000000000000000000000000000600052602260045260246000fd5b600060028204905060018216806200022257607f821691505b602082108103620002385762000237620001da565b5b50919050565b60008190508160005260206000209050919050565b60006020601f8301049050919050565b600082821b905092915050565b600060088302620002a27fffffffffffffffffffffffffffffffffffffffffffffffffffffffffffffffff8262000263565b620002ae868362000263565b95508019841693508086168417925050509392505050565b6000819050919050565b6000819050919050565b6000620002fb620002f5620002ef84620002c6565b620002d0565b620002c6565b9050919050565b6000819050919050565b6200031783620002da565b6200032f620003268262000302565b84845462000270565b825550505050565b600090565b6200034662000337565b620003538184846200030c565b505050565b5b818110156200037b576200036f6000826200033c565b60018101905062000359565b5050565b601f821115620003ca5762000394816200023e565b6200039f8462000253565b81016020851015620003af578190505b620003c7620003be8562000253565b83018262000358565b50505b505050565b600082821c905092915050565b6000620003ef60001984600802620003cf565b1980831691505092915050565b60006200040a8383620003dc565b9150826002028217905092915050565b6200042582620001a0565b67ffffffffffffffff811115620004415762000440620001ab565b5b6200044d825462000209565b6200045a8282856200037f565b600060209050601f8311600181146200049257600084156200047d578287015190505b620004898582620003fc565b865550620004f9565b601f198416620004a2866200023e565b60005b82811015620004cc57848901518255600182019150602085019450602081019050620004a5565b86831015620004ec5784890151620004e8601f891682620003dc565b8355505b6001600288020188555050505b505050505050565b61401b80620005116000396000f3fe6080604052600436106101355760003560e01c8063715018a6116100ab578063b9a2de3a1161006f578063b9a2de3a14610418578063c87b56dd14610441578063d082e3811461047e578063e985e9c5146104a9578063eacabe14146104e6578063f2fde38b1461050f57610135565b8063715018a6146103595780638da5cb5b1461037057806395d89b411461039b578063a22cb465146103c6578063b88d4fde146103ef57610135565b806323b872dd116100fd57806323b872dd1461023157806342842e0e1461025a578063454a2ab314610283578063571a26a01461029f5780636352211e146102df57806370a082311461031c57610135565b806301ffc9a71461013a578063065de74c1461017757806306fdde03146101a0578063081812fc146101cb578063095ea7b314610208575b600080fd5b34801561014657600080fd5b50610161600480360381019061015c919061250c565b610538565b60405161016e9190612554565b60405180910390f35b34801561018357600080fd5b5061019e600480360381019061019991906125a5565b61061a565b005b3480156101ac57600080fd5b506101b5610850565b6040516101c29190612662565b60405180910390f35b3480156101d757600080fd5b506101f260048036038101906101ed91906125a5565b6108e2565b6040516101ff91906126c5565b60405180910390f35b34801561021457600080fd5b5061022f600480360381019061022a919061270c565b610967565b005b34801561023d57600080fd5b506102586004803603810190610253919061274c565b610a7e565b005b34801561026657600080fd5b50610281600480360381019061027c919061274c565b610ade565b005b61029d600480360381019061029891906125a5565b610afe565b005b3480156102ab57600080fd5b506102c660048036038101906102c191906125a5565b610cff565b6040516102d694939291906127cf565b60405180910390f35b3480156102eb57600080fd5b50610306600480360381019061030191906125a5565b610d7c565b60405161031391906126c5565b60405180910390f35b34801561032857600080fd5b50610343600480360381019061033e9190612814565b610e2d565b6040516103509190612841565b60405180910390f35b34801561036557600080fd5b5061036e610ee4565b005b34801561037c57600080fd5b50610385610f6c565b60405161039291906126c5565b60405180910390f35b3480156103a757600080fd5b506103b0610f96565b6040516103bd9190612662565b60405180910390f35b3480156103d257600080fd5b506103ed60048036038101906103e89190612888565b611028565b005b3480156103fb57600080fd5b50610416600480360381019061041191906129fd565b6111a8565b005b34801561042457600080fd5b5061043f600480360381019061043a91906125a5565b61120a565b005b34801561044d57600080fd5b50610468600480360381019061046391906125a5565b6114e4565b6040516104759190612662565b60405180910390f35b34801561048a57600080fd5b50610493611635565b6040516104a09190612841565b60405180910390f35b3480156104b557600080fd5b506104d060048036038101906104cb9190612a80565b61163b565b6040516104dd9190612554565b60405180910390f35b3480156104f257600080fd5b5061050d60048036038101906105089190612b61565b6116cf565b005b34801561051b57600080fd5b5061053660048036038101906105319190612814565b6117c0565b005b60007f80ac58cd000000000000000000000000000000000000000000000000000000007bffffffffffffffffffffffffffffffffffffffffffffffffffffffff1916827bffffffffffffffffffffffffffffffffffffffffffffffffffffffff1916148061060357507f5b5e139f000000000000000000000000000000000000000000000000000000007bffffffffffffffffffffffffffffffffffffffffffffffffffffffff1916827bffffffffffffffffffffffffffffffffffffffffffffffffffffffff1916145b806106135750610612826118b7565b5b9050919050565b3373ffffffffffffffffffffffffffffffffffffffff1661063a82610d7c565b73ffffffffffffffffffffffffffffffffffffffff1614610690576040517f08c379a000000000000000000000000000000000000000000000000000000000815260040161068790612c2f565b60405180910390fd5b6009600082815260200190815260200160002060020160149054906101000a900460ff16156106f4576040517f08c379a00000000000000000000000000000000000000000000000000000000081526004016106eb90612cc1565b60405180910390fd5b60405180608001604052803373ffffffffffffffffffffffffffffffffffffffff16815260200160008152602001600073ffffffffffffffffffffffffffffffffffffffff168152602001600115158152506009600083815260200190815260200160002060008201518160000160006101000a81548173ffffffffffffffffffffffffffffffffffffffff021916908373ffffffffffffffffffffffffffffffffffffffff1602179055506020820151816001015560408201518160020160006101000a81548173ffffffffffffffffffffffffffffffffffffffff021916908373ffffffffffffffffffffffffffffffffffffffff16021790555060608201518160020160146101000a81548160ff0219169083151502179055509050507f16da476d7265fc95576888b93de4fa4849d6cea1228235887f569c6530ddfec18133604051610845929190612ce1565b60405180910390a150565b60606000805461085f90612d39565b80601f016020809104026020016040519081016040528092919081815260200182805461088b90612d39565b80156108d85780601f106108ad576101008083540402835291602001916108d8565b820191906000526020600020905b8154815290600101906020018083116108bb57829003601f168201915b5050505050905090565b60006108ed82611921565b61092c576040517f08c379a000000000000000000000000000000000000000000000000000000000815260040161092390612ddc565b60405180910390fd5b6004600083815260200190815260200160002060009054906101000a900473ffffffffffffffffffffffffffffffffffffffff169050919050565b600061097282610d7c565b90508073ffffffffffffffffffffffffffffffffffffffff168373ffffffffffffffffffffffffffffffffffffffff16036109e2576040517f08c379a00000000000000000000000000000000000000000000000000000000081526004016109d990612e6e565b60405180910390fd5b8073ffffffffffffffffffffffffffffffffffffffff16610a0161198d565b73ffffffffffffffffffffffffffffffffffffffff161480610a305750610a2f81610a2a61198d565b61163b565b5b610a6f576040517f08c379a0000000000000000000000000000000000000000000000000000000008152600401610a6690612f00565b60405180910390fd5b610a798383611995565b505050565b610a8f610a8961198d565b82611a4e565b610ace576040517f08c379a0000000000000000000000000000000000000000000000000000000008152600401610ac590612f92565b60405180910390fd5b610ad9838383611b2c565b505050565b610af9838383604051806020016040528060008152506111a8565b505050565b60006009600083815260200190815260200160002090508060020160149054906101000a900460ff16610b66576040517f08c379a0000000000000000000000000000000000000000000000000000000008152600401610b5d90612ffe565b60405180910390fd5b80600101543411610bac576040517f08c379a0000000000000000000000000000000000000000000000000000000008152600401610ba390613090565b60405180910390fd5b600073ffffffffffffffffffffffffffffffffffffffff168160020160009054906101000a900473ffffffffffffffffffffffffffffffffffffffff1673ffffffffffffffffffffffffffffffffffffffff1614610c74578060020160009054906101000a900473ffffffffffffffffffffffffffffffffffffffff1673ffffffffffffffffffffffffffffffffffffffff166108fc82600101549081150290604051600060405180830381858888f19350505050158015610c72573d6000803e3d6000fd5b505b348160010181905550338160020160006101000a81548173ffffffffffffffffffffffffffffffffffffffff021916908373ffffffffffffffffffffffffffffffffffffffff1602179055507f558a0d5d5468d74b0db24c74eb348b42271c2ebb4c9e953ced38aaed95fa4361823334604051610cf3939291906130b0565b60405180910390a15050565b60096020528060005260406000206000915090508060000160009054906101000a900473ffffffffffffffffffffffffffffffffffffffff16908060010154908060020160009054906101000a900473ffffffffffffffffffffffffffffffffffffffff16908060020160149054906101000a900460ff16905084565b6000806002600084815260200190815260200160002060009054906101000a900473ffffffffffffffffffffffffffffffffffffffff169050600073ffffffffffffffffffffffffffffffffffffffff168173ffffffffffffffffffffffffffffffffffffffff1603610e24576040517f08c379a0000000000000000000000000000000000000000000000000000000008152600401610e1b90613159565b60405180910390fd5b80915050919050565b60008073ffffffffffffffffffffffffffffffffffffffff168273ffffffffffffffffffffffffffffffffffffffff1603610e9d576040517f08c379a0000000000000000000000000000000000000000000000000000000008152600401610e94906131eb565b60405180910390fd5b600360008373ffffffffffffffffffffffffffffffffffffffff1673ffffffffffffffffffffffffffffffffffffffff168152602001908152602001600020549050919050565b610eec61198d565b73ffffffffffffffffffffffffffffffffffffffff16610f0a610f6c565b73ffffffffffffffffffffffffffffffffffffffff1614610f60576040517f08c379a0000000000000000000000000000000000000000000000000000000008152600401610f5790613257565b60405180910390fd5b610f6a6000611d87565b565b6000600760009054906101000a900473ffffffffffffffffffffffffffffffffffffffff16905090565b606060018054610fa590612d39565b80601f0160208091040260200160405190810160405280929190818152602001828054610fd190612d39565b801561101e5780601f10610ff35761010080835404028352916020019161101e565b820191906000526020600020905b81548152906001019060200180831161100157829003601f168201915b5050505050905090565b61103061198d565b73ffffffffffffffffffffffffffffffffffffffff168273ffffffffffffffffffffffffffffffffffffffff160361109d576040517f08c379a0000000000000000000000000000000000000000000000000000000008152600401611094906132c3565b60405180910390fd5b80600560006110aa61198d565b73ffffffffffffffffffffffffffffffffffffffff1673ffffffffffffffffffffffffffffffffffffffff16815260200190815260200160002060008473ffffffffffffffffffffffffffffffffffffffff1673ffffffffffffffffffffffffffffffffffffffff16815260200190815260200160002060006101000a81548160ff0219169083151502179055508173ffffffffffffffffffffffffffffffffffffffff1661115761198d565b73ffffffffffffffffffffffffffffffffffffffff167f17307eab39ab6107e8899845ad3d59bd9653f200f220920489ca2b5937696c318360405161119c9190612554565b60405180910390a35050565b6111b96111b361198d565b83611a4e565b6111f8576040517f08c379a00000000000000000000000000000000000000000000000000000000081526004016111ef90612f92565b60405180910390fd5b61120484848484611e4d565b50505050565b60006009600083815260200190815260200160002090508060020160149054906101000a900460ff16611272576040517f08c379a00000000000000000000000000000000000000000000000000000000081526004016112699061332f565b60405180910390fd5b3373ffffffffffffffffffffffffffffffffffffffff168160000160009054906101000a900473ffffffffffffffffffffffffffffffffffffffff1673ffffffffffffffffffffffffffffffffffffffff1614611304576040517f08c379a00000000000000000000000000000000000000000000000000000000081526004016112fb906133c1565b60405180910390fd5b60008160020160146101000a81548160ff021916908315150217905550600073ffffffffffffffffffffffffffffffffffffffff168160020160009054906101000a900473ffffffffffffffffffffffffffffffffffffffff1673ffffffffffffffffffffffffffffffffffffffff16146114a3576113cc8160000160009054906101000a900473ffffffffffffffffffffffffffffffffffffffff168260020160009054906101000a900473ffffffffffffffffffffffffffffffffffffffff1684611b2c565b8060000160009054906101000a900473ffffffffffffffffffffffffffffffffffffffff1673ffffffffffffffffffffffffffffffffffffffff166108fc82600101549081150290604051600060405180830381858888f1935050505015801561143a573d6000803e3d6000fd5b507fd2aa34a4fdbbc6dff6a3e56f46e0f3ae2a31d7785ff3487aa5c95c642acea501828260020160009054906101000a900473ffffffffffffffffffffffffffffffffffffffff16836001015460405161149693929190613440565b60405180910390a16114e0565b7fd2aa34a4fdbbc6dff6a3e56f46e0f3ae2a31d7785ff3487aa5c95c642acea501826000806040516114d7939291906134b2565b60405180910390a15b5050565b60606114ef82611921565b61152e576040517f08c379a00000000000000000000000000000000000000000000000000000000081526004016115259061355b565b60405180910390fd5b600060066000848152602001908152602001600020805461154e90612d39565b80601f016020809104026020016040519081016040528092919081815260200182805461157a90612d39565b80156115c75780601f1061159c576101008083540402835291602001916115c7565b820191906000526020600020905b8154815290600101906020018083116115aa57829003601f168201915b5050505050905060006115d8611ea9565b905060008151036115ed578192505050611630565b60008251111561162257808260405160200161160a9291906135b7565b60405160208183030381529060405292505050611630565b61162b84611ec0565b925050505b919050565b60085481565b6000600560008473ffffffffffffffffffffffffffffffffffffffff1673ffffffffffffffffffffffffffffffffffffffff16815260200190815260200160002060008373ffffffffffffffffffffffffffffffffffffffff1673ffffffffffffffffffffffffffffffffffffffff16815260200190815260200160002060009054906101000a900460ff16905092915050565b6116d761198d565b73ffffffffffffffffffffffffffffffffffffffff166116f5610f6c565b73ffffffffffffffffffffffffffffffffffffffff161461174b576040517f08c379a000000000000000000000000000000000000000000000000000000000815260040161174290613257565b60405180910390fd5b6000600854905061175c8382611f67565b6117668183612134565b600160086000828254611779919061360a565b925050819055507f06becd955c918828f6e985541acbf49cc842c9e9bd569fffc7698e721ef135758184846040516117b39392919061363e565b60405180910390a1505050565b6117c861198d565b73ffffffffffffffffffffffffffffffffffffffff166117e6610f6c565b73ffffffffffffffffffffffffffffffffffffffff161461183c576040517f08c379a000000000000000000000000000000000000000000000000000000000815260040161183390613257565b60405180910390fd5b600073ffffffffffffffffffffffffffffffffffffffff168173ffffffffffffffffffffffffffffffffffffffff16036118ab576040517f08c379a00000000000000000000000000000000000000000000000000000000081526004016118a2906136ee565b60405180910390fd5b6118b481611d87565b50565b60007f01ffc9a7000000000000000000000000000000000000000000000000000000007bffffffffffffffffffffffffffffffffffffffffffffffffffffffff1916827bffffffffffffffffffffffffffffffffffffffffffffffffffffffff1916149050919050565b60008073ffffffffffffffffffffffffffffffffffffffff166002600084815260200190815260200160002060009054906101000a900473ffffffffffffffffffffffffffffffffffffffff1673ffffffffffffffffffffffffffffffffffffffff1614159050919050565b600033905090565b816004600083815260200190815260200160002060006101000a81548173ffffffffffffffffffffffffffffffffffffffff021916908373ffffffffffffffffffffffffffffffffffffffff160217905550808273ffffffffffffffffffffffffffffffffffffffff16611a0883610d7c565b73ffffffffffffffffffffffffffffffffffffffff167f8c5be1e5ebec7d5bd14f71427d1e84f3dd0314c0f7b2291e5b200ac8c7c3b92560405160405180910390a45050565b6000611a5982611921565b611a98576040517f08c379a0000000000000000000000000000000000000000000000000000000008152600401611a8f90613780565b60405180910390fd5b6000611aa383610d7c565b90508073ffffffffffffffffffffffffffffffffffffffff168473ffffffffffffffffffffffffffffffffffffffff161480611b1257508373ffffffffffffffffffffffffffffffffffffffff16611afa846108e2565b73ffffffffffffffffffffffffffffffffffffffff16145b80611b235750611b22818561163b565b5b91505092915050565b8273ffffffffffffffffffffffffffffffffffffffff16611b4c82610d7c565b73ffffffffffffffffffffffffffffffffffffffff1614611ba2576040517f08c379a0000000000000000000000000000000000000000000000000000000008152600401611b9990613812565b60405180910390fd5b600073ffffffffffffffffffffffffffffffffffffffff168273ffffffffffffffffffffffffffffffffffffffff1603611c11576040517f08c379a0000000000000000000000000000000000000000000000000000000008152600401611c08906138a4565b60405180910390fd5b611c1c8383836121a1565b611c27600082611995565b6001600360008573ffffffffffffffffffffffffffffffffffffffff1673ffffffffffffffffffffffffffffffffffffffff1681526020019081526020016000206000828254611c7791906138c4565b925050819055506001600360008473ffffffffffffffffffffffffffffffffffffffff1673ffffffffffffffffffffffffffffffffffffffff1681526020019081526020016000206000828254611cce919061360a565b92505081905550816002600083815260200190815260200160002060006101000a81548173ffffffffffffffffffffffffffffffffffffffff021916908373ffffffffffffffffffffffffffffffffffffffff160217905550808273ffffffffffffffffffffffffffffffffffffffff168473ffffffffffffffffffffffffffffffffffffffff167fddf252ad1be2c89b69c2b068fc378daa952ba7f163c4a11628f55a4df523b3ef60405160405180910390a4505050565b6000600760009054906101000a900473ffffffffffffffffffffffffffffffffffffffff16905081600760006101000a81548173ffffffffffffffffffffffffffffffffffffffff021916908373ffffffffffffffffffffffffffffffffffffffff1602179055508173ffffffffffffffffffffffffffffffffffffffff168173ffffffffffffffffffffffffffffffffffffffff167f8be0079c531659141344cd1fd0a4f28419497f9722a3daafe3b4186f6b6457e060405160405180910390a35050565b611e58848484611b2c565b611e64848484846121a6565b611ea3576040517f08c379a0000000000000000000000000000000000000000000000000000000008152600401611e9a9061396a565b60405180910390fd5b50505050565b606060405180602001604052806000815250905090565b6060611ecb82611921565b611f0a576040517f08c379a0000000000000000000000000000000000000000000000000000000008152600401611f01906139fc565b60405180910390fd5b6000611f14611ea9565b90506000815111611f345760405180602001604052806000815250611f5f565b80611f3e8461232d565b604051602001611f4f9291906135b7565b6040516020818303038152906040525b915050919050565b600073ffffffffffffffffffffffffffffffffffffffff168273ffffffffffffffffffffffffffffffffffffffff1603611fd6576040517f08c379a0000000000000000000000000000000000000000000000000000000008152600401611fcd90613a68565b60405180910390fd5b611fdf81611921565b1561201f576040517f08c379a000000000000000000000000000000000000000000000000000000000815260040161201690613ad4565b60405180910390fd5b61202b600083836121a1565b6001600360008473ffffffffffffffffffffffffffffffffffffffff1673ffffffffffffffffffffffffffffffffffffffff168152602001908152602001600020600082825461207b919061360a565b92505081905550816002600083815260200190815260200160002060006101000a81548173ffffffffffffffffffffffffffffffffffffffff021916908373ffffffffffffffffffffffffffffffffffffffff160217905550808273ffffffffffffffffffffffffffffffffffffffff16600073ffffffffffffffffffffffffffffffffffffffff167fddf252ad1be2c89b69c2b068fc378daa952ba7f163c4a11628f55a4df523b3ef60405160405180910390a45050565b61213d82611921565b61217c576040517f08c379a000000000000000000000000000000000000000000000000000000000815260040161217390613b66565b60405180910390fd5b8060066000848152602001908152602001600020908161219c9190613d28565b505050565b505050565b60006121c78473ffffffffffffffffffffffffffffffffffffffff1661248d565b15612320578373ffffffffffffffffffffffffffffffffffffffff1663150b7a026121f061198d565b8786866040518563ffffffff1660e01b81526004016122129493929190613e4f565b6020604051808303816000875af192505050801561224e57506040513d601f19601f8201168201806040525081019061224b9190613eb0565b60015b6122d0573d806000811461227e576040519150601f19603f3d011682016040523d82523d6000602084013e612283565b606091505b5060008151036122c8576040517f08c379a00000000000000000000000000000000000000000000000000000000081526004016122bf9061396a565b60405180910390fd5b805181602001fd5b63150b7a0260e01b7bffffffffffffffffffffffffffffffffffffffffffffffffffffffff1916817bffffffffffffffffffffffffffffffffffffffffffffffffffffffff191614915050612325565b600190505b949350505050565b606060008203612374576040518060400160405280600181526020017f30000000000000000000000000000000000000000000000000000000000000008152509050612488565b600082905060005b600082146123a657808061238f90613edd565b915050600a8261239f9190613f54565b915061237c565b60008167ffffffffffffffff8111156123c2576123c16128d2565b5b6040519080825280601f01601f1916602001820160405280156123f45781602001600182028036833780820191505090505b5090505b600085146124815760018261240d91906138c4565b9150600a8561241c9190613f85565b6030612428919061360a565b60f81b81838151811061243e5761243d613fb6565b5b60200101907effffffffffffffffffffffffffffffffffffffffffffffffffffffffffffff1916908160001a905350600a8561247a9190613f54565b94506123f8565b8093505050505b919050565b600080823b905060008111915050919050565b6000604051905090565b600080fd5b600080fd5b60007fffffffff0000000000000000000000000000000000000000000000000000000082169050919050565b6124e9816124b4565b81146124f457600080fd5b50565b600081359050612506816124e0565b92915050565b600060208284031215612522576125216124aa565b5b6000612530848285016124f7565b91505092915050565b60008115159050919050565b61254e81612539565b82525050565b60006020820190506125696000830184612545565b92915050565b6000819050919050565b6125828161256f565b811461258d57600080fd5b50565b60008135905061259f81612579565b92915050565b6000602082840312156125bb576125ba6124aa565b5b60006125c984828501612590565b91505092915050565b600081519050919050565b600082825260208201905092915050565b60005b8381101561260c5780820151818401526020810190506125f1565b60008484015250505050565b6000601f19601f8301169050919050565b6000612634826125d2565b61263e81856125dd565b935061264e8185602086016125ee565b61265781612618565b840191505092915050565b6000602082019050818103600083015261267c8184612629565b905092915050565b600073ffffffffffffffffffffffffffffffffffffffff82169050919050565b60006126af82612684565b9050919050565b6126bf816126a4565b82525050565b60006020820190506126da60008301846126b6565b92915050565b6126e9816126a4565b81146126f457600080fd5b50565b600081359050612706816126e0565b92915050565b60008060408385031215612723576127226124aa565b5b6000612731858286016126f7565b925050602061274285828601612590565b9150509250929050565b600080600060608486031215612765576127646124aa565b5b6000612773868287016126f7565b9350506020612784868287016126f7565b925050604061279586828701612590565b9150509250925092565b60006127aa82612684565b9050919050565b6127ba8161279f565b82525050565b6127c98161256f565b82525050565b60006080820190506127e460008301876127b1565b6127f160208301866127c0565b6127fe60408301856127b1565b61280b6060830184612545565b95945050505050565b60006020828403121561282a576128296124aa565b5b6000612838848285016126f7565b91505092915050565b600060208201905061285660008301846127c0565b92915050565b61286581612539565b811461287057600080fd5b50565b6000813590506128828161285c565b92915050565b6000806040838503121561289f5761289e6124aa565b5b60006128ad858286016126f7565b92505060206128be85828601612873565b9150509250929050565b600080fd5b600080fd5b7f4e487b7100000000000000000000000000000000000000000000000000000000600052604160045260246000fd5b61290a82612618565b810181811067ffffffffffffffff82111715612929576129286128d2565b5b80604052505050565b600061293c6124a0565b90506129488282612901565b919050565b600067ffffffffffffffff821115612968576129676128d2565b5b61297182612618565b9050602081019050919050565b82818337600083830152505050565b60006129a061299b8461294d565b612932565b9050828152602081018484840111156129bc576129bb6128cd565b5b6129c784828561297e565b509392505050565b600082601f8301126129e4576129e36128c8565b5b81356129f484826020860161298d565b91505092915050565b60008060008060808587031215612a1757612a166124aa565b5b6000612a25878288016126f7565b9450506020612a36878288016126f7565b9350506040612a4787828801612590565b925050606085013567ffffffffffffffff811115612a6857612a676124af565b5b612a74878288016129cf565b91505092959194509250565b60008060408385031215612a9757612a966124aa565b5b6000612aa5858286016126f7565b9250506020612ab6858286016126f7565b9150509250929050565b600067ffffffffffffffff821115612adb57612ada6128d2565b5b612ae482612618565b9050602081019050919050565b6000612b04612aff84612ac0565b612932565b905082815260208101848484011115612b2057612b1f6128cd565b5b612b2b84828561297e565b509392505050565b600082601f830112612b4857612b476128c8565b5b8135612b58848260208601612af1565b91505092915050565b60008060408385031215612b7857612b776124aa565b5b6000612b86858286016126f7565b925050602083013567ffffffffffffffff811115612ba757612ba66124af565b5b612bb385828601612b33565b9150509250929050565b7f4f6e6c7920746865206f776e65722063616e20737461727420616e206175637460008201527f696f6e0000000000000000000000000000000000000000000000000000000000602082015250565b6000612c196023836125dd565b9150612c2482612bbd565b604082019050919050565b60006020820190508181036000830152612c4881612c0c565b9050919050565b7f41756374696f6e20616c7265616479206f70656e20666f72207468697320746f60008201527f6b656e0000000000000000000000000000000000000000000000000000000000602082015250565b6000612cab6023836125dd565b9150612cb682612c4f565b604082019050919050565b60006020820190508181036000830152612cda81612c9e565b9050919050565b6000604082019050612cf660008301856127c0565b612d0360208301846126b6565b9392505050565b7f4e487b7100000000000000000000000000000000000000000000000000000000600052602260045260246000fd5b60006002820490506001821680612d5157607f821691505b602082108103612d6457612d63612d0a565b5b50919050565b7f4552433732313a20617070726f76656420717565727920666f72206e6f6e657860008201527f697374656e7420746f6b656e0000000000000000000000000000000000000000602082015250565b6000612dc6602c836125dd565b9150612dd182612d6a565b604082019050919050565b60006020820190508181036000830152612df581612db9565b9050919050565b7f4552433732313a20617070726f76616c20746f2063757272656e74206f776e6560008201527f7200000000000000000000000000000000000000000000000000000000000000602082015250565b6000612e586021836125dd565b9150612e6382612dfc565b604082019050919050565b60006020820190508181036000830152612e8781612e4b565b9050919050565b7f4552433732313a20617070726f76652063616c6c6572206973206e6f74206f7760008201527f6e6572206e6f7220617070726f76656420666f7220616c6c0000000000000000602082015250565b6000612eea6038836125dd565b9150612ef582612e8e565b604082019050919050565b60006020820190508181036000830152612f1981612edd565b9050919050565b7f4552433732313a207472616e736665722063616c6c6572206973206e6f74206f60008201527f776e6572206e6f7220617070726f766564000000000000000000000000000000602082015250565b6000612f7c6031836125dd565b9150612f8782612f20565b604082019050919050565b60006020820190508181036000830152612fab81612f6f565b9050919050565b7f41756374696f6e20697320636c6f736564000000000000000000000000000000600082015250565b6000612fe86011836125dd565b9150612ff382612fb2565b602082019050919050565b6000602082019050818103600083015261301781612fdb565b9050919050565b7f426964206d75737420626520686967686572207468616e20746865206375727260008201527f656e742068696768657374206269640000000000000000000000000000000000602082015250565b600061307a602f836125dd565b91506130858261301e565b604082019050919050565b600060208201905081810360008301526130a98161306d565b9050919050565b60006060820190506130c560008301866127c0565b6130d260208301856126b6565b6130df60408301846127c0565b949350505050565b7f4552433732313a206f776e657220717565727920666f72206e6f6e657869737460008201527f656e7420746f6b656e0000000000000000000000000000000000000000000000602082015250565b60006131436029836125dd565b915061314e826130e7565b604082019050919050565b6000602082019050818103600083015261317281613136565b9050919050565b7f4552433732313a2062616c616e636520717565727920666f7220746865207a6560008201527f726f206164647265737300000000000000000000000000000000000000000000602082015250565b60006131d5602a836125dd565b91506131e082613179565b604082019050919050565b60006020820190508181036000830152613204816131c8565b9050919050565b7f4f776e61626c653a2063616c6c6572206973206e6f7420746865206f776e6572600082015250565b60006132416020836125dd565b915061324c8261320b565b602082019050919050565b6000602082019050818103600083015261327081613234565b9050919050565b7f4552433732313a20617070726f766520746f2063616c6c657200000000000000600082015250565b60006132ad6019836125dd565b91506132b882613277565b602082019050919050565b600060208201905081810360008301526132dc816132a0565b9050919050565b7f41756374696f6e20697320616c726561647920636c6f73656400000000000000600082015250565b60006133196019836125dd565b9150613324826132e3565b602082019050919050565b600060208201905081810360008301526133488161330c565b9050919050565b7f4f6e6c79207468652073656c6c65722063616e20656e6420746865206175637460008201527f696f6e0000000000000000000000000000000000000000000000000000000000602082015250565b60006133ab6023836125dd565b91506133b68261334f565b604082019050919050565b600060208201905081810360008301526133da8161339e565b9050919050565b6000819050919050565b60006134066134016133fc84612684565b6133e1565b612684565b9050919050565b6000613418826133eb565b9050919050565b600061342a8261340d565b9050919050565b61343a8161341f565b82525050565b600060608201905061345560008301866127c0565b6134626020830185613431565b61346f60408301846127c0565b949350505050565b6000819050919050565b600061349c61349761349284613477565b6133e1565b61256f565b9050919050565b6134ac81613481565b82525050565b60006060820190506134c760008301866127c0565b6134d460208301856126b6565b6134e160408301846134a3565b949350505050565b7f45524337323155524953746f726167653a2055524920717565727920666f722060008201527f6e6f6e6578697374656e7420746f6b656e000000000000000000000000000000602082015250565b60006135456031836125dd565b9150613550826134e9565b604082019050919050565b6000602082019050818103600083015261357481613538565b9050919050565b600081905092915050565b6000613591826125d2565b61359b818561357b565b93506135ab8185602086016125ee565b80840191505092915050565b60006135c38285613586565b91506135cf8284613586565b91508190509392505050565b7f4e487b7100000000000000000000000000000000000000000000000000000000600052601160045260246000fd5b60006136158261256f565b91506136208361256f565b9250828201905080821115613638576136376135db565b5b92915050565b600060608201905061365360008301866127c0565b61366060208301856126b6565b81810360408301526136728184612629565b9050949350505050565b7f4f776e61626c653a206e6577206f776e657220697320746865207a65726f206160008201527f6464726573730000000000000000000000000000000000000000000000000000602082015250565b60006136d86026836125dd565b91506136e38261367c565b604082019050919050565b60006020820190508181036000830152613707816136cb565b9050919050565b7f4552433732313a206f70657261746f7220717565727920666f72206e6f6e657860008201527f697374656e7420746f6b656e0000000000000000000000000000000000000000602082015250565b600061376a602c836125dd565b91506137758261370e565b604082019050919050565b600060208201905081810360008301526137998161375d565b9050919050565b7f4552433732313a207472616e73666572206f6620746f6b656e2074686174206960008201527f73206e6f74206f776e0000000000000000000000000000000000000000000000602082015250565b60006137fc6029836125dd565b9150613807826137a0565b604082019050919050565b6000602082019050818103600083015261382b816137ef565b9050919050565b7f4552433732313a207472616e7366657220746f20746865207a65726f2061646460008201527f7265737300000000000000000000000000000000000000000000000000000000602082015250565b600061388e6024836125dd565b915061389982613832565b604082019050919050565b600060208201905081810360008301526138bd81613881565b9050919050565b60006138cf8261256f565b91506138da8361256f565b92508282039050818111156138f2576138f16135db565b5b92915050565b7f4552433732313a207472616e7366657220746f206e6f6e20455243373231526560008201527f63656976657220696d706c656d656e7465720000000000000000000000000000602082015250565b60006139546032836125dd565b915061395f826138f8565b604082019050919050565b6000602082019050818103600083015261398381613947565b9050919050565b7f4552433732314d657461646174613a2055524920717565727920666f72206e6f60008201527f6e6578697374656e7420746f6b656e0000000000000000000000000000000000602082015250565b60006139e6602f836125dd565b91506139f18261398a565b604082019050919050565b60006020820190508181036000830152613a15816139d9565b9050919050565b7f4552433732313a206d696e7420746f20746865207a65726f2061646472657373600082015250565b6000613a526020836125dd565b9150613a5d82613a1c565b602082019050919050565b60006020820190508181036000830152613a8181613a45565b9050919050565b7f4552433732313a20746f6b656e20616c7265616479206d696e74656400000000600082015250565b6000613abe601c836125dd565b9150613ac982613a88565b602082019050919050565b60006020820190508181036000830152613aed81613ab1565b9050919050565b7f45524337323155524953746f726167653a2055524920736574206f66206e6f6e60008201527f6578697374656e7420746f6b656e000000000000000000000000000000000000602082015250565b6000613b50602e836125dd565b9150613b5b82613af4565b604082019050919050565b60006020820190508181036000830152613b7f81613b43565b9050919050565b60008190508160005260206000209050919050565b60006020601f8301049050919050565b600082821b905092915050565b600060088302613be87fffffffffffffffffffffffffffffffffffffffffffffffffffffffffffffffff82613bab565b613bf28683613bab565b95508019841693508086168417925050509392505050565b6000613c25613c20613c1b8461256f565b6133e1565b61256f565b9050919050565b6000819050919050565b613c3f83613c0a565b613c53613c4b82613c2c565b848454613bb8565b825550505050565b600090565b613c68613c5b565b613c73818484613c36565b505050565b5b81811015613c9757613c8c600082613c60565b600181019050613c79565b5050565b601f821115613cdc57613cad81613b86565b613cb684613b9b565b81016020851015613cc5578190505b613cd9613cd185613b9b565b830182613c78565b50505b505050565b600082821c905092915050565b6000613cff60001984600802613ce1565b1980831691505092915050565b6000613d188383613cee565b9150826002028217905092915050565b613d31826125d2565b67ffffffffffffffff811115613d4a57613d496128d2565b5b613d548254612d39565b613d5f828285613c9b565b600060209050601f831160018114613d925760008415613d80578287015190505b613d8a8582613d0c565b865550613df2565b601f198416613da086613b86565b60005b82811015613dc857848901518255600182019150602085019450602081019050613da3565b86831015613de55784890151613de1601f891682613cee565b8355505b6001600288020188555050505b505050505050565b600081519050919050565b600082825260208201905092915050565b6000613e2182613dfa565b613e2b8185613e05565b9350613e3b8185602086016125ee565b613e4481612618565b840191505092915050565b6000608082019050613e6460008301876126b6565b613e7160208301866126b6565b613e7e60408301856127c0565b8181036060830152613e908184613e16565b905095945050505050565b600081519050613eaa816124e0565b92915050565b600060208284031215613ec657613ec56124aa565b5b6000613ed484828501613e9b565b91505092915050565b6000613ee88261256f565b91507fffffffffffffffffffffffffffffffffffffffffffffffffffffffffffffffff8203613f1a57613f196135db565b5b600182019050919050565b7f4e487b7100000000000000000000000000000000000000000000000000000000600052601260045260246000fd5b6000613f5f8261256f565b9150613f6a8361256f565b925082613f7a57613f79613f25565b5b828204905092915050565b6000613f908261256f565b9150613f9b8361256f565b925082613fab57613faa613f25565b5b828206905092915050565b7f4e487b7100000000000000000000000000000000000000000000000000000000600052603260045260246000fdfea26469706673582212207433301c7d3f4e328ae026f56bee9ba123c0c33c1fb1fb00a275305183396cbe64736f6c63430008130033",
  "immutableReferences": {},
  "source": "// SPDX-License-Identifier: MIT\npragma solidity ^0.8.19;\n\nimport \"@openzeppelin/contracts/token/ERC721/extensions/ERC721URIStorage.sol\";\nimport \"@openzeppelin/contracts/access/Ownable.sol\";\n\ncontract NFTennis is ERC721URIStorage, Ownable {\n    uint256 public tokenCounter;\n\n    struct Auction {\n        address payable seller;\n        uint256 highestBid;\n        address payable highestBidder;\n        bool open;\n    }\n\n    mapping(uint256 => Auction) public auctions;\n\n    // Eventi per monitorare le azioni\n    event NFTMinted(uint256 tokenId, address recipient, string tokenURI);\n    event AuctionStarted(uint256 tokenId, address seller);\n    event NewBid(uint256 tokenId, address bidder, uint256 bidAmount);\n    event AuctionEnded(uint256 tokenId, address winner, uint256 winningBid);\n\n    constructor() ERC721(\"NFTennis\", \"NFTN\") {\n        tokenCounter = 0; // Inizializza il contatore dei token\n    }\n\n    /**\n     * @dev Crea un nuovo NFT e lo assegna al destinatario. Solo il proprietario pu eseguire questa funzione.\n     * @param recipient L'indirizzo che ricever l'NFT.\n     * @param tokenURI URI dei metadati dell'NFT.\n     */\n    function mintNFT(address recipient, string memory tokenURI) public onlyOwner {\n        uint256 tokenId = tokenCounter;\n        _mint(recipient, tokenId); // Mint del nuovo NFT\n        _setTokenURI(tokenId, tokenURI); // Imposta l'URI dei metadati\n        tokenCounter += 1;\n\n        emit NFTMinted(tokenId, recipient, tokenURI); // Emissione evento\n    }\n\n    /**\n     * @dev Avvia un'asta per un NFT. Solo il proprietario dell'NFT pu avviare l'asta.\n     * @param tokenId ID del token da mettere all'asta.\n     */\n    function startAuction(uint256 tokenId) public {\n        require(ownerOf(tokenId) == msg.sender, \"Only the owner can start an auction\");\n        require(!auctions[tokenId].open, \"Auction already open for this token\");\n\n        auctions[tokenId] = Auction({\n            seller: payable(msg.sender),\n            highestBid: 0,\n            highestBidder: payable(address(0)),\n            open: true\n        });\n\n        emit AuctionStarted(tokenId, msg.sender); // Emissione evento\n    }\n\n    /**\n     * @dev Effettua un'offerta per un NFT all'asta.\n     * @param tokenId ID del token per cui si vuole fare un'offerta.\n     */\n    function bid(uint256 tokenId) public payable {\n        Auction storage auction = auctions[tokenId];\n        require(auction.open, \"Auction is closed\");\n        require(msg.value > auction.highestBid, \"Bid must be higher than the current highest bid\");\n\n        // Rimborsa il precedente miglior offerente\n        if (auction.highestBidder != address(0)) {\n            auction.highestBidder.transfer(auction.highestBid);\n        }\n\n        auction.highestBid = msg.value;\n        auction.highestBidder = payable(msg.sender);\n\n        emit NewBid(tokenId, msg.sender, msg.value); // Emissione evento\n    }\n\n    /**\n     * @dev Termina un'asta e trasferisce l'NFT al miglior offerente.\n     * @param tokenId ID del token all'asta.\n     */\n    function endAuction(uint256 tokenId) public {\n        Auction storage auction = auctions[tokenId];\n        require(auction.open, \"Auction is already closed\");\n        require(auction.seller == msg.sender, \"Only the seller can end the auction\");\n\n        auction.open = false;\n\n        if (auction.highestBidder != address(0)) {\n            // Trasferisce l'NFT al miglior offerente\n            _transfer(auction.seller, auction.highestBidder, tokenId);\n            // Trasferisce i fondi al venditore\n            auction.seller.transfer(auction.highestBid);\n\n            emit AuctionEnded(tokenId, auction.highestBidder, auction.highestBid); // Emissione evento\n        } else {\n            // Nessuna offerta valida, asta chiusa senza vincitore\n            emit AuctionEnded(tokenId, address(0), 0);\n        }\n    }\n}\n",
  "sourcePath": "/Users/massimo/NFTennis/backend/smart-contracts/contracts/NFTennis.sol",
  "compiler": {
    "name": "solc",
    "version": "0.8.19+commit.7dd6d404.Emscripten.clang"
  },
  "schemaVersion": "3.4.16",
  "updatedAt": "2025-01-19T17:20:15.129Z",
  "networkType": "ethereum",
  "devdoc": {
    "events": {
      "Approval(address,address,uint256)": {
        "details": "Emitted when `owner` enables `approved` to manage the `tokenId` token."
      },
      "ApprovalForAll(address,address,bool)": {
        "details": "Emitted when `owner` enables or disables (`approved`) `operator` to manage all of its assets."
      },
      "Transfer(address,address,uint256)": {
        "details": "Emitted when `tokenId` token is transferred from `from` to `to`."
      }
    },
    "kind": "dev",
    "methods": {
      "approve(address,uint256)": {
        "details": "See {IERC721-approve}."
      },
      "balanceOf(address)": {
        "details": "See {IERC721-balanceOf}."
      },
      "bid(uint256)": {
        "details": "Effettua un'offerta per un NFT all'asta.",
        "params": {
          "tokenId": "ID del token per cui si vuole fare un'offerta."
        }
      },
      "endAuction(uint256)": {
        "details": "Termina un'asta e trasferisce l'NFT al miglior offerente.",
        "params": {
          "tokenId": "ID del token all'asta."
        }
      },
      "getApproved(uint256)": {
        "details": "See {IERC721-getApproved}."
      },
      "isApprovedForAll(address,address)": {
        "details": "See {IERC721-isApprovedForAll}."
      },
      "mintNFT(address,string)": {
        "details": "Crea un nuovo NFT e lo assegna al destinatario. Solo il proprietario pu eseguire questa funzione.",
        "params": {
          "recipient": "L'indirizzo che ricever l'NFT.",
          "tokenURI": "URI dei metadati dell'NFT."
        }
      },
      "name()": {
        "details": "See {IERC721Metadata-name}."
      },
      "owner()": {
        "details": "Returns the address of the current owner."
      },
      "ownerOf(uint256)": {
        "details": "See {IERC721-ownerOf}."
      },
      "renounceOwnership()": {
        "details": "Leaves the contract without owner. It will not be possible to call `onlyOwner` functions anymore. Can only be called by the current owner. NOTE: Renouncing ownership will leave the contract without an owner, thereby removing any functionality that is only available to the owner."
      },
      "safeTransferFrom(address,address,uint256)": {
        "details": "See {IERC721-safeTransferFrom}."
      },
      "safeTransferFrom(address,address,uint256,bytes)": {
        "details": "See {IERC721-safeTransferFrom}."
      },
      "setApprovalForAll(address,bool)": {
        "details": "See {IERC721-setApprovalForAll}."
      },
      "startAuction(uint256)": {
        "details": "Avvia un'asta per un NFT. Solo il proprietario dell'NFT pu avviare l'asta.",
        "params": {
          "tokenId": "ID del token da mettere all'asta."
        }
      },
      "supportsInterface(bytes4)": {
        "details": "See {IERC165-supportsInterface}."
      },
      "symbol()": {
        "details": "See {IERC721Metadata-symbol}."
      },
      "tokenURI(uint256)": {
        "details": "See {IERC721Metadata-tokenURI}."
      },
      "transferFrom(address,address,uint256)": {
        "details": "See {IERC721-transferFrom}."
      },
      "transferOwnership(address)": {
        "details": "Transfers ownership of the contract to a new account (`newOwner`). Can only be called by the current owner."
      }
    },
    "version": 1
  },
  "userdoc": {
    "kind": "user",
    "methods": {},
    "version": 1
  }
}