{
  "contractName": "NFTennis",
  "abi": [
    {
      "inputs": [],
      "stateMutability": "nonpayable",
      "type": "constructor"
    },
    {
      "inputs": [],
      "name": "AuctionAlreadyOpen",
      "type": "error"
    },
    {
      "inputs": [],
      "name": "AuctionClosed",
      "type": "error"
    },
    {
      "inputs": [],
      "name": "AuctionExpired",
      "type": "error"
    },
    {
      "inputs": [],
      "name": "BidTooHigh",
      "type": "error"
    },
    {
      "inputs": [],
      "name": "BidTooLow",
      "type": "error"
    },
    {
      "inputs": [],
      "name": "EmptyTokenURI",
      "type": "error"
    },
    {
      "inputs": [],
      "name": "InvalidAddress",
      "type": "error"
    },
    {
      "inputs": [],
      "name": "InvalidDuration",
      "type": "error"
    },
    {
      "inputs": [],
      "name": "InvalidMediaRarity",
      "type": "error"
    },
    {
      "inputs": [],
      "name": "InvalidPrice",
      "type": "error"
    },
    {
      "inputs": [],
      "name": "NotOwner",
      "type": "error"
    },
    {
      "inputs": [],
      "name": "RefundFailed",
      "type": "error"
    },
    {
      "inputs": [],
      "name": "SellerCannotBid",
      "type": "error"
    },
    {
      "inputs": [],
      "name": "SellerCannotBuyOwnNFT",
      "type": "error"
    },
    {
      "inputs": [],
      "name": "TokenDoesNotExist",
      "type": "error"
    },
    {
      "inputs": [],
      "name": "TransferFailed",
      "type": "error"
    },
    {
      "anonymous": false,
      "inputs": [
        {
          "indexed": true,
          "internalType": "address",
          "name": "owner",
          "type": "address"
        },
        {
          "indexed": true,
          "internalType": "address",
          "name": "approved",
          "type": "address"
        },
        {
          "indexed": true,
          "internalType": "uint256",
          "name": "tokenId",
          "type": "uint256"
        }
      ],
      "name": "Approval",
      "type": "event"
    },
    {
      "anonymous": false,
      "inputs": [
        {
          "indexed": true,
          "internalType": "address",
          "name": "owner",
          "type": "address"
        },
        {
          "indexed": true,
          "internalType": "address",
          "name": "operator",
          "type": "address"
        },
        {
          "indexed": false,
          "internalType": "bool",
          "name": "approved",
          "type": "bool"
        }
      ],
      "name": "ApprovalForAll",
      "type": "event"
    },
    {
      "anonymous": false,
      "inputs": [
        {
          "indexed": true,
          "internalType": "uint256",
          "name": "tokenId",
          "type": "uint256"
        },
        {
          "indexed": true,
          "internalType": "address",
          "name": "winner",
          "type": "address"
        },
        {
          "indexed": false,
          "internalType": "uint256",
          "name": "winningBid",
          "type": "uint256"
        }
      ],
      "name": "AuctionEnded",
      "type": "event"
    },
    {
      "anonymous": false,
      "inputs": [
        {
          "indexed": true,
          "internalType": "uint256",
          "name": "tokenId",
          "type": "uint256"
        },
        {
          "indexed": true,
          "internalType": "address",
          "name": "seller",
          "type": "address"
        },
        {
          "indexed": false,
          "internalType": "uint256",
          "name": "endTime",
          "type": "uint256"
        }
      ],
      "name": "AuctionStarted",
      "type": "event"
    },
    {
      "anonymous": false,
      "inputs": [
        {
          "indexed": true,
          "internalType": "uint256",
          "name": "tokenId",
          "type": "uint256"
        },
        {
          "indexed": true,
          "internalType": "address",
          "name": "buyer",
          "type": "address"
        },
        {
          "indexed": false,
          "internalType": "uint256",
          "name": "price",
          "type": "uint256"
        }
      ],
      "name": "NFTBought",
      "type": "event"
    },
    {
      "anonymous": false,
      "inputs": [
        {
          "indexed": true,
          "internalType": "uint256",
          "name": "tokenId",
          "type": "uint256"
        },
        {
          "indexed": true,
          "internalType": "address",
          "name": "recipient",
          "type": "address"
        }
      ],
      "name": "NFTMinted",
      "type": "event"
    },
    {
      "anonymous": false,
      "inputs": [
        {
          "indexed": true,
          "internalType": "uint256",
          "name": "tokenId",
          "type": "uint256"
        },
        {
          "indexed": true,
          "internalType": "address",
          "name": "bidder",
          "type": "address"
        },
        {
          "indexed": false,
          "internalType": "uint256",
          "name": "bidAmount",
          "type": "uint256"
        }
      ],
      "name": "NewBid",
      "type": "event"
    },
    {
      "anonymous": false,
      "inputs": [
        {
          "indexed": true,
          "internalType": "address",
          "name": "previousOwner",
          "type": "address"
        },
        {
          "indexed": true,
          "internalType": "address",
          "name": "newOwner",
          "type": "address"
        }
      ],
      "name": "OwnershipTransferred",
      "type": "event"
    },
    {
      "anonymous": false,
      "inputs": [
        {
          "indexed": true,
          "internalType": "uint256",
          "name": "tokenId",
          "type": "uint256"
        },
        {
          "indexed": true,
          "internalType": "address",
          "name": "from",
          "type": "address"
        },
        {
          "indexed": true,
          "internalType": "address",
          "name": "to",
          "type": "address"
        }
      ],
      "name": "TokenTransferred",
      "type": "event"
    },
    {
      "anonymous": false,
      "inputs": [
        {
          "indexed": true,
          "internalType": "address",
          "name": "from",
          "type": "address"
        },
        {
          "indexed": true,
          "internalType": "address",
          "name": "to",
          "type": "address"
        },
        {
          "indexed": true,
          "internalType": "uint256",
          "name": "tokenId",
          "type": "uint256"
        }
      ],
      "name": "Transfer",
      "type": "event"
    },
    {
      "inputs": [
        {
          "internalType": "uint256",
          "name": "",
          "type": "uint256"
        }
      ],
      "name": "activeAuctions",
      "outputs": [
        {
          "internalType": "uint256",
          "name": "",
          "type": "uint256"
        }
      ],
      "stateMutability": "view",
      "type": "function",
      "constant": true
    },
    {
      "inputs": [
        {
          "internalType": "address",
          "name": "to",
          "type": "address"
        },
        {
          "internalType": "uint256",
          "name": "tokenId",
          "type": "uint256"
        }
      ],
      "name": "approve",
      "outputs": [],
      "stateMutability": "nonpayable",
      "type": "function"
    },
    {
      "inputs": [
        {
          "internalType": "uint256",
          "name": "",
          "type": "uint256"
        }
      ],
      "name": "auctions",
      "outputs": [
        {
          "internalType": "address payable",
          "name": "seller",
          "type": "address"
        },
        {
          "internalType": "uint256",
          "name": "highestBid",
          "type": "uint256"
        },
        {
          "internalType": "address payable",
          "name": "highestBidder",
          "type": "address"
        },
        {
          "internalType": "bool",
          "name": "open",
          "type": "bool"
        },
        {
          "internalType": "uint256",
          "name": "endTime",
          "type": "uint256"
        },
        {
          "internalType": "uint256",
          "name": "buyNowPrice",
          "type": "uint256"
        }
      ],
      "stateMutability": "view",
      "type": "function",
      "constant": true
    },
    {
      "inputs": [
        {
          "internalType": "address",
          "name": "owner",
          "type": "address"
        }
      ],
      "name": "balanceOf",
      "outputs": [
        {
          "internalType": "uint256",
          "name": "",
          "type": "uint256"
        }
      ],
      "stateMutability": "view",
      "type": "function",
      "constant": true
    },
    {
      "inputs": [
        {
          "internalType": "uint256",
          "name": "tokenId",
          "type": "uint256"
        }
      ],
      "name": "getApproved",
      "outputs": [
        {
          "internalType": "address",
          "name": "",
          "type": "address"
        }
      ],
      "stateMutability": "view",
      "type": "function",
      "constant": true
    },
    {
      "inputs": [
        {
          "internalType": "address",
          "name": "owner",
          "type": "address"
        },
        {
          "internalType": "address",
          "name": "operator",
          "type": "address"
        }
      ],
      "name": "isApprovedForAll",
      "outputs": [
        {
          "internalType": "bool",
          "name": "",
          "type": "bool"
        }
      ],
      "stateMutability": "view",
      "type": "function",
      "constant": true
    },
    {
      "inputs": [],
      "name": "name",
      "outputs": [
        {
          "internalType": "string",
          "name": "",
          "type": "string"
        }
      ],
      "stateMutability": "view",
      "type": "function",
      "constant": true
    },
    {
      "inputs": [],
      "name": "owner",
      "outputs": [
        {
          "internalType": "address",
          "name": "",
          "type": "address"
        }
      ],
      "stateMutability": "view",
      "type": "function",
      "constant": true
    },
    {
      "inputs": [
        {
          "internalType": "uint256",
          "name": "tokenId",
          "type": "uint256"
        }
      ],
      "name": "ownerOf",
      "outputs": [
        {
          "internalType": "address",
          "name": "",
          "type": "address"
        }
      ],
      "stateMutability": "view",
      "type": "function",
      "constant": true
    },
    {
      "inputs": [],
      "name": "renounceOwnership",
      "outputs": [],
      "stateMutability": "nonpayable",
      "type": "function"
    },
    {
      "inputs": [
        {
          "internalType": "address",
          "name": "operator",
          "type": "address"
        },
        {
          "internalType": "bool",
          "name": "approved",
          "type": "bool"
        }
      ],
      "name": "setApprovalForAll",
      "outputs": [],
      "stateMutability": "nonpayable",
      "type": "function"
    },
    {
      "inputs": [
        {
          "internalType": "bytes4",
          "name": "interfaceId",
          "type": "bytes4"
        }
      ],
      "name": "supportsInterface",
      "outputs": [
        {
          "internalType": "bool",
          "name": "",
          "type": "bool"
        }
      ],
      "stateMutability": "view",
      "type": "function",
      "constant": true
    },
    {
      "inputs": [],
      "name": "symbol",
      "outputs": [
        {
          "internalType": "string",
          "name": "",
          "type": "string"
        }
      ],
      "stateMutability": "view",
      "type": "function",
      "constant": true
    },
    {
      "inputs": [],
      "name": "tokenCounter",
      "outputs": [
        {
          "internalType": "uint256",
          "name": "",
          "type": "uint256"
        }
      ],
      "stateMutability": "view",
      "type": "function",
      "constant": true
    },
    {
      "inputs": [
        {
          "internalType": "uint256",
          "name": "",
          "type": "uint256"
        }
      ],
      "name": "tokenMetadata",
      "outputs": [
        {
          "internalType": "enum NFTennis.Rarity",
          "name": "rarity",
          "type": "uint8"
        },
        {
          "internalType": "enum NFTennis.MediaType",
          "name": "mediaType",
          "type": "uint8"
        }
      ],
      "stateMutability": "view",
      "type": "function",
      "constant": true
    },
    {
      "inputs": [
        {
          "internalType": "uint256",
          "name": "tokenId",
          "type": "uint256"
        }
      ],
      "name": "tokenURI",
      "outputs": [
        {
          "internalType": "string",
          "name": "",
          "type": "string"
        }
      ],
      "stateMutability": "view",
      "type": "function",
      "constant": true
    },
    {
      "inputs": [
        {
          "internalType": "address",
          "name": "newOwner",
          "type": "address"
        }
      ],
      "name": "transferOwnership",
      "outputs": [],
      "stateMutability": "nonpayable",
      "type": "function"
    },
    {
      "inputs": [
        {
          "internalType": "address",
          "name": "recipient",
          "type": "address"
        },
        {
          "internalType": "string",
          "name": "tokenURI",
          "type": "string"
        },
        {
          "internalType": "enum NFTennis.Rarity",
          "name": "rarity",
          "type": "uint8"
        },
        {
          "internalType": "enum NFTennis.MediaType",
          "name": "mediaType",
          "type": "uint8"
        }
      ],
      "name": "mintNFT",
      "outputs": [],
      "stateMutability": "nonpayable",
      "type": "function"
    },
    {
      "inputs": [
        {
          "internalType": "uint256",
          "name": "tokenId",
          "type": "uint256"
        },
        {
          "internalType": "uint256",
          "name": "duration",
          "type": "uint256"
        },
        {
          "internalType": "uint256",
          "name": "buyNowPrice",
          "type": "uint256"
        }
      ],
      "name": "startAuction",
      "outputs": [],
      "stateMutability": "nonpayable",
      "type": "function"
    },
    {
      "inputs": [
        {
          "internalType": "uint256",
          "name": "tokenId",
          "type": "uint256"
        }
      ],
      "name": "bid",
      "outputs": [],
      "stateMutability": "payable",
      "type": "function",
      "payable": true
    },
    {
      "inputs": [
        {
          "internalType": "uint256",
          "name": "tokenId",
          "type": "uint256"
        }
      ],
      "name": "buyNow",
      "outputs": [],
      "stateMutability": "payable",
      "type": "function",
      "payable": true
    },
    {
      "inputs": [
        {
          "internalType": "uint256",
          "name": "tokenId",
          "type": "uint256"
        }
      ],
      "name": "endAuction",
      "outputs": [],
      "stateMutability": "nonpayable",
      "type": "function"
    },
    {
      "inputs": [
        {
          "internalType": "address",
          "name": "from",
          "type": "address"
        },
        {
          "internalType": "address",
          "name": "to",
          "type": "address"
        },
        {
          "internalType": "uint256",
          "name": "tokenId",
          "type": "uint256"
        }
      ],
      "name": "transferFrom",
      "outputs": [],
      "stateMutability": "nonpayable",
      "type": "function"
    },
    {
      "inputs": [
        {
          "internalType": "address",
          "name": "from",
          "type": "address"
        },
        {
          "internalType": "address",
          "name": "to",
          "type": "address"
        },
        {
          "internalType": "uint256",
          "name": "tokenId",
          "type": "uint256"
        }
      ],
      "name": "safeTransferFrom",
      "outputs": [],
      "stateMutability": "nonpayable",
      "type": "function"
    },
    {
      "inputs": [
        {
          "internalType": "address",
          "name": "from",
          "type": "address"
        },
        {
          "internalType": "address",
          "name": "to",
          "type": "address"
        },
        {
          "internalType": "uint256",
          "name": "tokenId",
          "type": "uint256"
        },
        {
          "internalType": "bytes",
          "name": "data",
          "type": "bytes"
        }
      ],
      "name": "safeTransferFrom",
      "outputs": [],
      "stateMutability": "nonpayable",
      "type": "function"
    },
    {
      "inputs": [
        {
          "internalType": "address",
          "name": "owner",
          "type": "address"
        }
      ],
      "name": "getOwnedNFTs",
      "outputs": [
        {
          "internalType": "uint256[]",
          "name": "",
          "type": "uint256[]"
        }
      ],
      "stateMutability": "view",
      "type": "function",
      "constant": true
    },
    {
      "inputs": [],
      "name": "getActiveAuctions",
      "outputs": [
        {
          "internalType": "uint256[]",
          "name": "",
          "type": "uint256[]"
        }
      ],
      "stateMutability": "view",
      "type": "function",
      "constant": true
    },
    {
      "inputs": [
        {
          "internalType": "uint256",
          "name": "tokenId",
          "type": "uint256"
        }
      ],
      "name": "getTokenMetadata",
      "outputs": [
        {
          "internalType": "enum NFTennis.Rarity",
          "name": "",
          "type": "uint8"
        },
        {
          "internalType": "enum NFTennis.MediaType",
          "name": "",
          "type": "uint8"
        }
      ],
      "stateMutability": "view",
      "type": "function",
      "constant": true
    },
    {
      "inputs": [
        {
          "internalType": "enum NFTennis.Rarity",
          "name": "rarity",
          "type": "uint8"
        }
      ],
      "name": "getRarityName",
      "outputs": [
        {
          "internalType": "string",
          "name": "",
          "type": "string"
        }
      ],
      "stateMutability": "pure",
      "type": "function",
      "constant": true
    },
    {
      "inputs": [
        {
          "internalType": "enum NFTennis.MediaType",
          "name": "mediaType",
          "type": "uint8"
        }
      ],
      "name": "getMediaTypeName",
      "outputs": [
        {
          "internalType": "string",
          "name": "",
          "type": "string"
        }
      ],
      "stateMutability": "pure",
      "type": "function",
      "constant": true
    }
  ],
  "bytecode": "0x60806040523480156200001157600080fd5b50604051806040016040528060088152602001674e4654656e6e697360c01b8152506040518060400160405280600481526020016327232a2760e11b815250816000908162000061919062000198565b50600162000070828262000198565b5050506200008d620000876200009d60201b60201c565b620000a1565b6001600855600060095562000264565b3390565b600780546001600160a01b038381166001600160a01b0319831681179093556040519116919082907f8be0079c531659141344cd1fd0a4f28419497f9722a3daafe3b4186f6b6457e090600090a35050565b634e487b7160e01b600052604160045260246000fd5b600181811c908216806200011e57607f821691505b6020821081036200013f57634e487b7160e01b600052602260045260246000fd5b50919050565b601f8211156200019357600081815260208120601f850160051c810160208610156200016e5750805b601f850160051c820191505b818110156200018f578281556001016200017a565b5050505b505050565b81516001600160401b03811115620001b457620001b4620000f3565b620001cc81620001c5845462000109565b8462000145565b602080601f831160018114620002045760008415620001eb5750858301515b600019600386901b1c1916600185901b1785556200018f565b600085815260208120601f198616915b82811015620002355788860151825594840194600190910190840162000214565b5085821015620002545787850151600019600388901b60f8161c191681555b5050505050600190811b01905550565b612d3880620002746000396000f3fe6080604052600436106101cd5760003560e01c8063715018a6116100f7578063a22cb46511610095578063cf44b5d511610064578063cf44b5d5146105d4578063d082e381146105e9578063e985e9c5146105ff578063f2fde38b1461061f57600080fd5b8063a22cb46514610554578063b88d4fde14610574578063b9a2de3a14610594578063c87b56dd146105b457600080fd5b80638da5cb5b116100d15780638da5cb5b146104e157806391e078bb146104ff57806395d89b411461051f5780639b3f43091461053457600080fd5b8063715018a61461048c57806375057e1d146104a1578063790d8596146104c157600080fd5b806342842e0e1161016f57806361c3285e1161013e57806361c3285e146103e55780636352211e146104055780636914db601461042557806370a082311461045e57600080fd5b806342842e0e146102e3578063454a2ab314610303578063571a26a01461031657806360316801146103b757600080fd5b806308a0f32f116101ab57806308a0f32f14610261578063095ea7b31461027657806318148f1b1461029657806323b872dd146102c357600080fd5b806301ffc9a7146101d257806306fdde0314610207578063081812fc14610229575b600080fd5b3480156101de57600080fd5b506101f26101ed366004612519565b61063f565b60405190151581526020015b60405180910390f35b34801561021357600080fd5b5061021c610691565b6040516101fe9190612586565b34801561023557600080fd5b50610249610244366004612599565b610723565b6040516001600160a01b0390911681526020016101fe565b61027461026f366004612599565b6107b0565b005b34801561028257600080fd5b506102746102913660046125ce565b6109d0565b3480156102a257600080fd5b506102b66102b13660046125f8565b610ae5565b6040516101fe9190612613565b3480156102cf57600080fd5b506102746102de366004612657565b610b51565b3480156102ef57600080fd5b506102746102fe366004612657565b610b67565b610274610311366004612599565b610b72565b34801561032257600080fd5b50610377610331366004612599565b600b60205260009081526040902080546001820154600283015460038401546004909401546001600160a01b03938416949293821692600160a01b90920460ff16919086565b604080516001600160a01b0397881681526020810196909652939095169284019290925215156060830152608082015260a081019190915260c0016101fe565b3480156103c357600080fd5b506103d76103d2366004612599565b610d74565b6040516101fe9291906126a9565b3480156103f157600080fd5b506102746104003660046126fb565b610e27565b34801561041157600080fd5b50610249610420366004612599565b61108d565b34801561043157600080fd5b506103d7610440366004612599565b600d6020526000908152604090205460ff8082169161010090041682565b34801561046a57600080fd5b5061047e6104793660046125f8565b611104565b6040519081526020016101fe565b34801561049857600080fd5b5061027461118b565b3480156104ad57600080fd5b5061021c6104bc3660046127a0565b6111c1565b3480156104cd57600080fd5b5061047e6104dc366004612599565b6112c9565b3480156104ed57600080fd5b506007546001600160a01b0316610249565b34801561050b57600080fd5b5061027461051a3660046127bb565b6112ea565b34801561052b57600080fd5b5061021c6114c8565b34801561054057600080fd5b5061021c61054f3660046127e7565b6114d7565b34801561056057600080fd5b5061027461056f366004612802565b61154d565b34801561058057600080fd5b5061027461058f366004612854565b611611565b3480156105a057600080fd5b506102746105af366004612599565b61162e565b3480156105c057600080fd5b5061021c6105cf366004612599565b6117d7565b3480156105e057600080fd5b506102b661194d565b3480156105f557600080fd5b5061047e60095481565b34801561060b57600080fd5b506101f261061a366004612930565b6119a4565b34801561062b57600080fd5b5061027461063a3660046125f8565b6119d2565b60006001600160e01b031982166380ac58cd60e01b148061067057506001600160e01b03198216635b5e139f60e01b145b8061068b57506301ffc9a760e01b6001600160e01b03198316145b92915050565b6060600080546106a090612963565b80601f01602080910402602001604051908101604052809291908181526020018280546106cc90612963565b80156107195780601f106106ee57610100808354040283529160200191610719565b820191906000526020600020905b8154815290600101906020018083116106fc57829003601f168201915b5050505050905090565b600061072e82611a6d565b6107945760405162461bcd60e51b815260206004820152602c60248201527f4552433732313a20617070726f76656420717565727920666f72206e6f6e657860448201526b34b9ba32b73a103a37b5b2b760a11b60648201526084015b60405180910390fd5b506000908152600460205260409020546001600160a01b031690565b6002600854036107d25760405162461bcd60e51b815260040161078b9061299d565b600260088190556000828152600b6020526040902090810154600160a01b900460ff16610812576040516336b6b46d60e01b815260040160405180910390fd5b806004015434146108355760405162bfc92160e01b815260040160405180910390fd5b80546001600160a01b0316330361085f5760405163d7c3d1eb60e01b815260040160405180910390fd5b60028101546001600160a01b0316156108ee57600281015460018201546040516000926001600160a01b031691908381818185875af1925050503d80600081146108c5576040519150601f19603f3d011682016040523d82523d6000602084013e6108ca565b606091505b50509050806108ec57604051633c31275160e21b815260040160405180910390fd5b505b60028101805460ff60a01b191690558054610913906001600160a01b03163384611a8a565b80546040516000916001600160a01b03169034908381818185875af1925050503d806000811461095f576040519150601f19603f3d011682016040523d82523d6000602084013e610964565b606091505b5050905080610986576040516312171d8360e31b815260040160405180910390fd5b61098f83611ae6565b604051348152339084907f26701af1547d690b8c46ed5f0fbb8d5b115492b3b898f3dfc2e87b26cfcc1b149060200160405180910390a35050600160085550565b60006109db8261108d565b9050806001600160a01b0316836001600160a01b031603610a485760405162461bcd60e51b815260206004820152602160248201527f4552433732313a20617070726f76616c20746f2063757272656e74206f776e656044820152603960f91b606482015260840161078b565b336001600160a01b0382161480610a645750610a6481336119a4565b610ad65760405162461bcd60e51b815260206004820152603860248201527f4552433732313a20617070726f76652063616c6c6572206973206e6f74206f7760448201527f6e6572206e6f7220617070726f76656420666f7220616c6c0000000000000000606482015260840161078b565b610ae08383611ba2565b505050565b6001600160a01b0381166000908152600c6020908152604091829020805483518184028101840190945280845260609392830182828015610b4557602002820191906000526020600020905b815481526020019060010190808311610b31575b50505050509050919050565b610b5c838383611c10565b610ae0838383611c41565b610b5c838383611d3e565b600260085403610b945760405162461bcd60e51b815260040161078b9061299d565b60026008556000818152600b6020526040902060038101544210610bd457610bbb8261162e565b604051630129799f60e21b815260040160405180910390fd5b6002810154600160a01b900460ff16610c00576040516336b6b46d60e01b815260040160405180910390fd5b80600101543411610c2457604051635069375b60e11b815260040160405180910390fd5b8060040154341115610c495760405163326e033560e21b815260040160405180910390fd5b80546001600160a01b03163303610c735760405163ef02588960e01b815260040160405180910390fd5b60028101546001600160a01b031615610d0257600281015460018201546040516000926001600160a01b031691908381818185875af1925050503d8060008114610cd9576040519150601f19603f3d011682016040523d82523d6000602084013e610cde565b606091505b5050905080610d0057604051633c31275160e21b815260040160405180910390fd5b505b34600182018190556002820180546001600160a01b031916339081179091556040519182529083907f558a0d5d5468d74b0db24c74eb348b42271c2ebb4c9e953ced38aaed95fa43619060200160405180910390a380600401543410610d6b57610d6b8261162e565b50506001600855565b600080610d8083611a6d565b610d9d5760405163677510db60e11b815260040160405180910390fd5b6000838152600d602052604080822081518083019092528054829060ff166003811115610dcc57610dcc612693565b6003811115610ddd57610ddd612693565b81528154602090910190610100900460ff166001811115610e0057610e00612693565b6001811115610e1157610e11612693565b9052508051602090910151909590945092505050565b6007546001600160a01b03163314610e515760405162461bcd60e51b815260040161078b906129d4565b6001600160a01b038516610e785760405163e6c4247b60e01b815260040160405180910390fd5b6000839003610e9a576040516317314b6160e01b815260040160405180910390fd5b60006001826001811115610eb057610eb0612693565b14610f07576000836003811115610ec957610ec9612693565b1480610ee657506001836003811115610ee457610ee4612693565b145b80610f0257506002836003811115610f0057610f00612693565b145b610f1d565b6003836003811115610f1b57610f1b612693565b145b905080610f3d57604051638f78388f60e01b815260040160405180910390fd5b6009805460009182610f4e83612a1f565b919050559050610f5e8782611d59565b610f9e8187878080601f016020809104026020016040519081016040528093929190818152602001838380828437600092019190915250611e8c92505050565b6040518060400160405280856003811115610fbb57610fbb612693565b8152602001846001811115610fd257610fd2612693565b90526000828152600d6020526040902081518154829060ff1916600183600381111561100057611000612693565b021790555060208201518154829061ff00191661010083600181111561102857611028612693565b021790555050506001600160a01b0387166000818152600c6020908152604080832080546001810182559084529183209091018490555183917f0176f203df400d7bd5f1b1c9ef36c16709bf3b5d9fd35f000a6bae32393f66c391a350505050505050565b6000818152600260205260408120546001600160a01b03168061068b5760405162461bcd60e51b815260206004820152602960248201527f4552433732313a206f776e657220717565727920666f72206e6f6e657869737460448201526832b73a103a37b5b2b760b91b606482015260840161078b565b60006001600160a01b03821661116f5760405162461bcd60e51b815260206004820152602a60248201527f4552433732313a2062616c616e636520717565727920666f7220746865207a65604482015269726f206164647265737360b01b606482015260840161078b565b506001600160a01b031660009081526003602052604090205490565b6007546001600160a01b031633146111b55760405162461bcd60e51b815260040161078b906129d4565b6111bf6000611f10565b565b606060008260038111156111d7576111d7612693565b036111fe57505060408051808201909152600681526521b7b6b6b7b760d11b602082015290565b600182600381111561121257611212612693565b036112375750506040805180820190915260048152635261726560e01b602082015290565b600282600381111561124b5761124b612693565b036112755750506040805180820190915260098152684c6567656e6461727960b81b602082015290565b600382600381111561128957611289612693565b036112b557505060408051808201909152600b81526a4d6173746572706965636560a81b602082015290565b505060408051602081019091526000815290565b600a81815481106112d957600080fd5b600091825260209091200154905081565b336112f48461108d565b6001600160a01b03161461131b576040516330cd747160e01b815260040160405180910390fd5b6000838152600b6020526040902060020154600160a01b900460ff16156113555760405163057b95c960e21b815260040160405180910390fd5b8160000361137657604051637616640160e01b815260040160405180910390fd5b806000036113965760405162bfc92160e01b815260040160405180910390fd5b6040805160c0810182523381526000602082018190529181019190915260016060820152608081016113c88442612a38565b815260209081018390526000858152600b82526040808220845181546001600160a01b0319166001600160a01b0391821617825593850151600180830191909155918501516002820180546060880151929096166001600160a81b031990961695909517600160a01b91151591909102179093556080840151600384015560a090930151600490920191909155600a8054928301815590527fc65a7bb8d6351c1cf70c95a316cc6a92839c986682d98bc35f958f4883f9d2a80183905533837fd7d053b3d3fc9e8145896f8940adeb377f6735866f2161ef1660dae9f04924756114b28542612a38565b60405190815260200160405180910390a3505050565b6060600180546106a090612963565b606060008260018111156114ed576114ed612693565b03611513575050604080518082019091526005815264496d61676560d81b602082015290565b600182600181111561152757611527612693565b036112b5575050604080518082019091526005815264566964656f60d81b602082015290565b336001600160a01b038316036115a55760405162461bcd60e51b815260206004820152601960248201527f4552433732313a20617070726f766520746f2063616c6c657200000000000000604482015260640161078b565b3360008181526005602090815260408083206001600160a01b03871680855290835292819020805460ff191686151590811790915590519081529192917f17307eab39ab6107e8899845ad3d59bd9653f200f220920489ca2b5937696c31910160405180910390a35050565b61161d84848484611f62565b611628848484611c41565b50505050565b6002600854036116505760405162461bcd60e51b815260040161078b9061299d565b600260088190556000828152600b6020526040902090810154600160a01b900460ff16611690576040516336b6b46d60e01b815260040160405180910390fd5b60028101805460ff60a01b1981169091556001600160a01b03161561179557805460028201546116cd916001600160a01b03908116911684611a8a565b805460018201546040516000926001600160a01b031691908381818185875af1925050503d806000811461171d576040519150601f19603f3d011682016040523d82523d6000602084013e611722565b606091505b5050905080611744576040516312171d8360e31b815260040160405180910390fd5b600282015460018301546040519081526001600160a01b039091169084907fd2aa34a4fdbbc6dff6a3e56f46e0f3ae2a31d7785ff3487aa5c95c642acea5019060200160405180910390a3506117ce565b60405160008082529083907fd2aa34a4fdbbc6dff6a3e56f46e0f3ae2a31d7785ff3487aa5c95c642acea5019060200160405180910390a35b610d6b82611ae6565b60606117e282611a6d565b6118485760405162461bcd60e51b815260206004820152603160248201527f45524337323155524953746f726167653a2055524920717565727920666f72206044820152703737b732bc34b9ba32b73a103a37b5b2b760791b606482015260840161078b565b6000828152600660205260408120805461186190612963565b80601f016020809104026020016040519081016040528092919081815260200182805461188d90612963565b80156118da5780601f106118af576101008083540402835291602001916118da565b820191906000526020600020905b8154815290600101906020018083116118bd57829003601f168201915b5050505050905060006118f860408051602081019091526000815290565b9050805160000361190a575092915050565b81511561193c578082604051602001611924929190612a4b565b60405160208183030381529060405292505050919050565b61194584611f94565b949350505050565b6060600a80548060200260200160405190810160405280929190818152602001828054801561071957602002820191906000526020600020905b815481526020019060010190808311611987575050505050905090565b6001600160a01b03918216600090815260056020908152604080832093909416825291909152205460ff1690565b6007546001600160a01b031633146119fc5760405162461bcd60e51b815260040161078b906129d4565b6001600160a01b038116611a615760405162461bcd60e51b815260206004820152602660248201527f4f776e61626c653a206e6577206f776e657220697320746865207a65726f206160448201526564647265737360d01b606482015260840161078b565b611a6a81611f10565b50565b6000908152600260205260409020546001600160a01b0316151590565b611a95838383611c41565b611aa083838361206c565b816001600160a01b0316836001600160a01b0316827fa84f763be5bb36163517fb87c7af39f875a97866fdf7806eb1b3eac837ae35ea60405160405180910390a4505050565b60005b600a54811015611b9e5781600a8281548110611b0757611b07612a7a565b906000526020600020015403611b8c57600a8054611b2790600190612a90565b81548110611b3757611b37612a7a565b9060005260206000200154600a8281548110611b5557611b55612a7a565b600091825260209091200155600a805480611b7257611b72612aa3565b600190038181906000526020600020016000905590555050565b80611b9681612a1f565b915050611ae9565b5050565b600081815260046020526040902080546001600160a01b0319166001600160a01b0384169081179091558190611bd78261108d565b6001600160a01b03167f8c5be1e5ebec7d5bd14f71427d1e84f3dd0314c0f7b2291e5b200ac8c7c3b92560405160405180910390a45050565b611c1a338261220c565b611c365760405162461bcd60e51b815260040161078b90612ab9565b610ae083838361206c565b6001600160a01b0383166000908152600c60205260408120905b8154811015611d0f5782828281548110611c7757611c77612a7a565b906000526020600020015403611cfd5781548290611c9790600190612a90565b81548110611ca757611ca7612a7a565b9060005260206000200154828281548110611cc457611cc4612a7a565b906000526020600020018190555081805480611ce257611ce2612aa3565b60019003818190600052602060002001600090559055611d0f565b80611d0781612a1f565b915050611c5b565b50506001600160a01b039091166000908152600c60209081526040822080546001810182559083529120015550565b610ae083838360405180602001604052806000815250611611565b6001600160a01b038216611daf5760405162461bcd60e51b815260206004820181905260248201527f4552433732313a206d696e7420746f20746865207a65726f2061646472657373604482015260640161078b565b611db881611a6d565b15611e055760405162461bcd60e51b815260206004820152601c60248201527f4552433732313a20746f6b656e20616c7265616479206d696e74656400000000604482015260640161078b565b6001600160a01b0382166000908152600360205260408120805460019290611e2e908490612a38565b909155505060008181526002602052604080822080546001600160a01b0319166001600160a01b03861690811790915590518392907fddf252ad1be2c89b69c2b068fc378daa952ba7f163c4a11628f55a4df523b3ef908290a45050565b611e9582611a6d565b611ef85760405162461bcd60e51b815260206004820152602e60248201527f45524337323155524953746f726167653a2055524920736574206f66206e6f6e60448201526d32bc34b9ba32b73a103a37b5b2b760911b606482015260840161078b565b6000828152600660205260409020610ae08282612b58565b600780546001600160a01b038381166001600160a01b0319831681179093556040519116919082907f8be0079c531659141344cd1fd0a4f28419497f9722a3daafe3b4186f6b6457e090600090a35050565b611f6c338361220c565b611f885760405162461bcd60e51b815260040161078b90612ab9565b611628848484846122ce565b6060611f9f82611a6d565b6120035760405162461bcd60e51b815260206004820152602f60248201527f4552433732314d657461646174613a2055524920717565727920666f72206e6f60448201526e3732bc34b9ba32b73a103a37b5b2b760891b606482015260840161078b565b600061201a60408051602081019091526000815290565b9050600081511161203a5760405180602001604052806000815250612065565b8061204484612301565b604051602001612055929190612a4b565b6040516020818303038152906040525b9392505050565b826001600160a01b031661207f8261108d565b6001600160a01b0316146120e75760405162461bcd60e51b815260206004820152602960248201527f4552433732313a207472616e73666572206f6620746f6b656e2074686174206960448201526839903737ba1037bbb760b91b606482015260840161078b565b6001600160a01b0382166121495760405162461bcd60e51b8152602060048201526024808201527f4552433732313a207472616e7366657220746f20746865207a65726f206164646044820152637265737360e01b606482015260840161078b565b612154600082611ba2565b6001600160a01b038316600090815260036020526040812080546001929061217d908490612a90565b90915550506001600160a01b03821660009081526003602052604081208054600192906121ab908490612a38565b909155505060008181526002602052604080822080546001600160a01b0319166001600160a01b0386811691821790925591518493918716917fddf252ad1be2c89b69c2b068fc378daa952ba7f163c4a11628f55a4df523b3ef91a4505050565b600061221782611a6d565b6122785760405162461bcd60e51b815260206004820152602c60248201527f4552433732313a206f70657261746f7220717565727920666f72206e6f6e657860448201526b34b9ba32b73a103a37b5b2b760a11b606482015260840161078b565b60006122838361108d565b9050806001600160a01b0316846001600160a01b031614806122be5750836001600160a01b03166122b384610723565b6001600160a01b0316145b80611945575061194581856119a4565b6122d984848461206c565b6122e584848484612402565b6116285760405162461bcd60e51b815260040161078b90612c18565b6060816000036123285750506040805180820190915260018152600360fc1b602082015290565b8160005b8115612352578061233c81612a1f565b915061234b9050600a83612c80565b915061232c565b60008167ffffffffffffffff81111561236d5761236d61283e565b6040519080825280601f01601f191660200182016040528015612397576020820181803683370190505b5090505b8415611945576123ac600183612a90565b91506123b9600a86612c94565b6123c4906030612a38565b60f81b8183815181106123d9576123d9612a7a565b60200101906001600160f81b031916908160001a9053506123fb600a86612c80565b945061239b565b60006001600160a01b0384163b156124f857604051630a85bd0160e11b81526001600160a01b0385169063150b7a0290612446903390899088908890600401612ca8565b6020604051808303816000875af1925050508015612481575060408051601f3d908101601f1916820190925261247e91810190612ce5565b60015b6124de573d8080156124af576040519150601f19603f3d011682016040523d82523d6000602084013e6124b4565b606091505b5080516000036124d65760405162461bcd60e51b815260040161078b90612c18565b805181602001fd5b6001600160e01b031916630a85bd0160e11b149050611945565b506001949350505050565b6001600160e01b031981168114611a6a57600080fd5b60006020828403121561252b57600080fd5b813561206581612503565b60005b83811015612551578181015183820152602001612539565b50506000910152565b60008151808452612572816020860160208601612536565b601f01601f19169290920160200192915050565b602081526000612065602083018461255a565b6000602082840312156125ab57600080fd5b5035919050565b80356001600160a01b03811681146125c957600080fd5b919050565b600080604083850312156125e157600080fd5b6125ea836125b2565b946020939093013593505050565b60006020828403121561260a57600080fd5b612065826125b2565b6020808252825182820181905260009190848201906040850190845b8181101561264b5783518352928401929184019160010161262f565b50909695505050505050565b60008060006060848603121561266c57600080fd5b612675846125b2565b9250612683602085016125b2565b9150604084013590509250925092565b634e487b7160e01b600052602160045260246000fd5b60408101600484106126bd576126bd612693565b838252600283106126d0576126d0612693565b8260208301529392505050565b8035600481106125c957600080fd5b8035600281106125c957600080fd5b60008060008060006080868803121561271357600080fd5b61271c866125b2565b9450602086013567ffffffffffffffff8082111561273957600080fd5b818801915088601f83011261274d57600080fd5b81358181111561275c57600080fd5b89602082850101111561276e57600080fd5b602083019650809550505050612786604087016126dd565b9150612794606087016126ec565b90509295509295909350565b6000602082840312156127b257600080fd5b612065826126dd565b6000806000606084860312156127d057600080fd5b505081359360208301359350604090920135919050565b6000602082840312156127f957600080fd5b612065826126ec565b6000806040838503121561281557600080fd5b61281e836125b2565b91506020830135801515811461283357600080fd5b809150509250929050565b634e487b7160e01b600052604160045260246000fd5b6000806000806080858703121561286a57600080fd5b612873856125b2565b9350612881602086016125b2565b925060408501359150606085013567ffffffffffffffff808211156128a557600080fd5b818701915087601f8301126128b957600080fd5b8135818111156128cb576128cb61283e565b604051601f8201601f19908116603f011681019083821181831017156128f3576128f361283e565b816040528281528a602084870101111561290c57600080fd5b82602086016020830137600060208483010152809550505050505092959194509250565b6000806040838503121561294357600080fd5b61294c836125b2565b915061295a602084016125b2565b90509250929050565b600181811c9082168061297757607f821691505b60208210810361299757634e487b7160e01b600052602260045260246000fd5b50919050565b6020808252601f908201527f5265656e7472616e637947756172643a207265656e7472616e742063616c6c00604082015260600190565b6020808252818101527f4f776e61626c653a2063616c6c6572206973206e6f7420746865206f776e6572604082015260600190565b634e487b7160e01b600052601160045260246000fd5b600060018201612a3157612a31612a09565b5060010190565b8082018082111561068b5761068b612a09565b60008351612a5d818460208801612536565b835190830190612a71818360208801612536565b01949350505050565b634e487b7160e01b600052603260045260246000fd5b8181038181111561068b5761068b612a09565b634e487b7160e01b600052603160045260246000fd5b60208082526031908201527f4552433732313a207472616e736665722063616c6c6572206973206e6f74206f6040820152701ddb995c881b9bdc88185c1c1c9bdd9959607a1b606082015260800190565b601f821115610ae057600081815260208120601f850160051c81016020861015612b315750805b601f850160051c820191505b81811015612b5057828155600101612b3d565b505050505050565b815167ffffffffffffffff811115612b7257612b7261283e565b612b8681612b808454612963565b84612b0a565b602080601f831160018114612bbb5760008415612ba35750858301515b600019600386901b1c1916600185901b178555612b50565b600085815260208120601f198616915b82811015612bea57888601518255948401946001909101908401612bcb565b5085821015612c085787850151600019600388901b60f8161c191681555b5050505050600190811b01905550565b60208082526032908201527f4552433732313a207472616e7366657220746f206e6f6e20455243373231526560408201527131b2b4bb32b91034b6b83632b6b2b73a32b960711b606082015260800190565b634e487b7160e01b600052601260045260246000fd5b600082612c8f57612c8f612c6a565b500490565b600082612ca357612ca3612c6a565b500690565b6001600160a01b0385811682528416602082015260408101839052608060608201819052600090612cdb9083018461255a565b9695505050505050565b600060208284031215612cf757600080fd5b81516120658161250356fea2646970667358221220a7cf72836c4d21950d71b768c30f29d15f808ac96f7cbd6f6cfbac5b23cf7ea064736f6c63430008130033",
  "immutableReferences": {},
  "source": "// SPDX-License-Identifier: MIT\npragma solidity ^0.8.19;\n\nimport \"@openzeppelin/contracts/token/ERC721/extensions/ERC721URIStorage.sol\";\nimport \"@openzeppelin/contracts/access/Ownable.sol\";\nimport \"@openzeppelin/contracts/security/ReentrancyGuard.sol\";\n\ncontract NFTennis is ERC721URIStorage, Ownable, ReentrancyGuard {\n    uint256 public tokenCounter;\n    uint256[] public activeAuctions;\n\n    enum Rarity { COMMON, RARE, LEGENDARY, MASTERPIECE }\n    enum MediaType { IMAGE, VIDEO }\n\n    struct NFTMetadata {\n        Rarity rarity;\n        MediaType mediaType;\n    }\n\n    struct Auction {\n        address payable seller;\n        uint256 highestBid;\n        address payable highestBidder;\n        bool open;\n        uint256 endTime;\n        uint256 buyNowPrice;\n    }\n\n    mapping(uint256 => Auction) public auctions;\n    mapping(address => uint256[]) private ownedTokens;\n    mapping(uint256 => NFTMetadata) public tokenMetadata;\n\n    // Custom errors per ridurre dimensioni bytecode\n    error InvalidAddress();\n    error EmptyTokenURI();\n    error InvalidMediaRarity();\n    error NotOwner();\n    error AuctionAlreadyOpen();\n    error InvalidDuration();\n    error InvalidPrice();\n    error AuctionClosed();\n    error AuctionExpired();\n    error BidTooLow();\n    error BidTooHigh();\n    error SellerCannotBid();\n    error SellerCannotBuyOwnNFT();\n    error RefundFailed();\n    error TransferFailed();\n    error TokenDoesNotExist();\n\n    // Eventi ottimizzati\n    event NFTMinted(uint256 indexed tokenId, address indexed recipient);\n    event AuctionStarted(uint256 indexed tokenId, address indexed seller, uint256 endTime);\n    event NewBid(uint256 indexed tokenId, address indexed bidder, uint256 bidAmount);\n    event AuctionEnded(uint256 indexed tokenId, address indexed winner, uint256 winningBid);\n    event NFTBought(uint256 indexed tokenId, address indexed buyer, uint256 price);\n    event TokenTransferred(uint256 indexed tokenId, address indexed from, address indexed to);\n\n    constructor() ERC721(\"NFTennis\", \"NFTN\") {\n        tokenCounter = 0;\n    }\n\n    function mintNFT(address recipient, string calldata tokenURI, Rarity rarity, MediaType mediaType) external onlyOwner {\n        if (recipient == address(0)) revert InvalidAddress();\n        if (bytes(tokenURI).length == 0) revert EmptyTokenURI();\n        \n        // Validazione compatibilit rarit e tipo di media\n        bool isValid = mediaType == MediaType.VIDEO \n                      ? rarity == Rarity.MASTERPIECE \n                      : (rarity == Rarity.COMMON || rarity == Rarity.RARE || rarity == Rarity.LEGENDARY);\n        \n        if (!isValid) revert InvalidMediaRarity();\n\n        uint256 tokenId = tokenCounter++;\n        _mint(recipient, tokenId);\n        _setTokenURI(tokenId, tokenURI);\n        \n        tokenMetadata[tokenId] = NFTMetadata({\n            rarity: rarity,\n            mediaType: mediaType\n        });\n        \n        ownedTokens[recipient].push(tokenId);\n        emit NFTMinted(tokenId, recipient);\n    }\n\n    function _updateOwnedTokens(address from, address to, uint256 tokenId) internal {\n        uint256[] storage fromTokens = ownedTokens[from];\n        for (uint256 i = 0; i < fromTokens.length; i++) {\n            if (fromTokens[i] == tokenId) {\n                fromTokens[i] = fromTokens[fromTokens.length - 1];\n                fromTokens.pop();\n                break;\n            }\n        }\n        ownedTokens[to].push(tokenId);\n    }\n\n    function _transferToken(address from, address to, uint256 tokenId) internal {\n        _updateOwnedTokens(from, to, tokenId);\n        _transfer(from, to, tokenId);\n        emit TokenTransferred(tokenId, from, to);\n    }\n\n    function startAuction(uint256 tokenId, uint256 duration, uint256 buyNowPrice) external {\n        if (ownerOf(tokenId) != msg.sender) revert NotOwner();\n        if (auctions[tokenId].open) revert AuctionAlreadyOpen();\n        if (duration == 0) revert InvalidDuration();\n        if (buyNowPrice == 0) revert InvalidPrice();\n\n        auctions[tokenId] = Auction({\n            seller: payable(msg.sender),\n            highestBid: 0,\n            highestBidder: payable(address(0)),\n            open: true,\n            endTime: block.timestamp + duration,\n            buyNowPrice: buyNowPrice\n        });\n\n        activeAuctions.push(tokenId);\n        emit AuctionStarted(tokenId, msg.sender, block.timestamp + duration);\n    }\n\n    function bid(uint256 tokenId) external payable nonReentrant {\n        Auction storage currentAuction = auctions[tokenId];\n\n        if (block.timestamp >= currentAuction.endTime) {\n            endAuction(tokenId);\n            revert AuctionExpired();\n        }\n\n        if (!currentAuction.open) revert AuctionClosed();\n        if (msg.value <= currentAuction.highestBid) revert BidTooLow();\n        if (msg.value > currentAuction.buyNowPrice) revert BidTooHigh();\n        if (msg.sender == currentAuction.seller) revert SellerCannotBid();\n\n        if (currentAuction.highestBidder != address(0)) {\n            (bool success, ) = currentAuction.highestBidder.call{value: currentAuction.highestBid}(\"\");\n            if (!success) revert RefundFailed();\n        }\n\n        currentAuction.highestBid = msg.value;\n        currentAuction.highestBidder = payable(msg.sender);\n\n        emit NewBid(tokenId, msg.sender, msg.value);\n\n        if (msg.value >= currentAuction.buyNowPrice) {\n            endAuction(tokenId);\n        }\n    }\n\n    function buyNow(uint256 tokenId) external payable nonReentrant {\n        Auction storage currentAuction = auctions[tokenId];\n        \n        if (!currentAuction.open) revert AuctionClosed();\n        if (msg.value != currentAuction.buyNowPrice) revert InvalidPrice();\n        if (msg.sender == currentAuction.seller) revert SellerCannotBuyOwnNFT();\n\n        if (currentAuction.highestBidder != address(0)) {\n            (bool success, ) = currentAuction.highestBidder.call{value: currentAuction.highestBid}(\"\");\n            if (!success) revert RefundFailed();\n        }\n\n        currentAuction.open = false;\n        _transferToken(currentAuction.seller, msg.sender, tokenId);\n\n        (bool successSeller, ) = currentAuction.seller.call{value: msg.value}(\"\");\n        if (!successSeller) revert TransferFailed();\n\n        _removeFromActiveAuctions(tokenId);\n        emit NFTBought(tokenId, msg.sender, msg.value);\n    }\n\n\n    function _removeFromActiveAuctions(uint256 tokenId) internal {\n        for (uint256 i = 0; i < activeAuctions.length; i++) {\n            if (activeAuctions[i] == tokenId) {\n                activeAuctions[i] = activeAuctions[activeAuctions.length - 1];\n                activeAuctions.pop();\n                break;\n            }\n        }\n    }\n\n    function endAuction(uint256 tokenId) public nonReentrant {\n        Auction storage currentAuction = auctions[tokenId];\n        if (!currentAuction.open) revert AuctionClosed();\n\n        currentAuction.open = false;\n\n        if (currentAuction.highestBidder != address(0)) {\n            _transferToken(currentAuction.seller, currentAuction.highestBidder, tokenId);\n\n            (bool success, ) = currentAuction.seller.call{value: currentAuction.highestBid}(\"\");\n            if (!success) revert TransferFailed();\n\n            emit AuctionEnded(tokenId, currentAuction.highestBidder, currentAuction.highestBid);\n        } else {\n            emit AuctionEnded(tokenId, address(0), 0);\n        }\n\n        _removeFromActiveAuctions(tokenId);\n    }\n\n    // Override delle funzioni di trasferimento\n    function transferFrom(address from, address to, uint256 tokenId) public override {\n        super.transferFrom(from, to, tokenId);\n        _updateOwnedTokens(from, to, tokenId);\n    }\n    \n    function safeTransferFrom(address from, address to, uint256 tokenId) public override {\n        super.safeTransferFrom(from, to, tokenId);\n        _updateOwnedTokens(from, to, tokenId);\n    }\n    \n    function safeTransferFrom(address from, address to, uint256 tokenId, bytes memory data) public override {\n        super.safeTransferFrom(from, to, tokenId, data);\n        _updateOwnedTokens(from, to, tokenId);\n    }\n\n    // Funzioni di visualizzazione \n    function getOwnedNFTs(address owner) external view returns (uint256[] memory) {\n        return ownedTokens[owner];\n    }\n\n    function getActiveAuctions() external view returns (uint256[] memory) {\n        return activeAuctions;\n    }\n    \n    function getTokenMetadata(uint256 tokenId) external view returns (Rarity, MediaType) {\n        if (!_exists(tokenId)) revert TokenDoesNotExist();\n        NFTMetadata memory metadata = tokenMetadata[tokenId];\n        return (metadata.rarity, metadata.mediaType);\n    }\n    \n    function getRarityName(Rarity rarity) external pure returns (string memory) {\n        if (rarity == Rarity.COMMON) return \"Common\";\n        if (rarity == Rarity.RARE) return \"Rare\";\n        if (rarity == Rarity.LEGENDARY) return \"Legendary\";\n        if (rarity == Rarity.MASTERPIECE) return \"Masterpiece\";\n        return \"\";\n    }\n    \n    function getMediaTypeName(MediaType mediaType) external pure returns (string memory) {\n        if (mediaType == MediaType.IMAGE) return \"Image\";\n        if (mediaType == MediaType.VIDEO) return \"Video\";\n        return \"\";\n    }\n}",
  "sourcePath": "/Users/massimo/NFTennis/backend/smart-contracts/contracts/NFTennis.sol",
  "compiler": {
    "name": "solc",
    "version": "0.8.19+commit.7dd6d404.Emscripten.clang"
  },
  "schemaVersion": "3.4.16",
  "updatedAt": "2025-03-06T11:27:35.904Z",
  "networkType": "ethereum",
  "devdoc": {
    "events": {
      "Approval(address,address,uint256)": {
        "details": "Emitted when `owner` enables `approved` to manage the `tokenId` token."
      },
      "ApprovalForAll(address,address,bool)": {
        "details": "Emitted when `owner` enables or disables (`approved`) `operator` to manage all of its assets."
      },
      "Transfer(address,address,uint256)": {
        "details": "Emitted when `tokenId` token is transferred from `from` to `to`."
      }
    },
    "kind": "dev",
    "methods": {
      "approve(address,uint256)": {
        "details": "See {IERC721-approve}."
      },
      "balanceOf(address)": {
        "details": "See {IERC721-balanceOf}."
      },
      "getApproved(uint256)": {
        "details": "See {IERC721-getApproved}."
      },
      "isApprovedForAll(address,address)": {
        "details": "See {IERC721-isApprovedForAll}."
      },
      "name()": {
        "details": "See {IERC721Metadata-name}."
      },
      "owner()": {
        "details": "Returns the address of the current owner."
      },
      "ownerOf(uint256)": {
        "details": "See {IERC721-ownerOf}."
      },
      "renounceOwnership()": {
        "details": "Leaves the contract without owner. It will not be possible to call `onlyOwner` functions anymore. Can only be called by the current owner. NOTE: Renouncing ownership will leave the contract without an owner, thereby removing any functionality that is only available to the owner."
      },
      "safeTransferFrom(address,address,uint256)": {
        "details": "See {IERC721-safeTransferFrom}."
      },
      "setApprovalForAll(address,bool)": {
        "details": "See {IERC721-setApprovalForAll}."
      },
      "supportsInterface(bytes4)": {
        "details": "See {IERC165-supportsInterface}."
      },
      "symbol()": {
        "details": "See {IERC721Metadata-symbol}."
      },
      "tokenURI(uint256)": {
        "details": "See {IERC721Metadata-tokenURI}."
      },
      "transferFrom(address,address,uint256)": {
        "details": "See {IERC721-transferFrom}."
      },
      "transferOwnership(address)": {
        "details": "Transfers ownership of the contract to a new account (`newOwner`). Can only be called by the current owner."
      }
    },
    "version": 1
  },
  "userdoc": {
    "kind": "user",
    "methods": {},
    "version": 1
  }
}