{
  "contractName": "NFTennis",
  "abi": [
    {
      "inputs": [],
      "stateMutability": "nonpayable",
      "type": "constructor"
    },
    {
      "anonymous": false,
      "inputs": [
        {
          "indexed": true,
          "internalType": "address",
          "name": "owner",
          "type": "address"
        },
        {
          "indexed": true,
          "internalType": "address",
          "name": "approved",
          "type": "address"
        },
        {
          "indexed": true,
          "internalType": "uint256",
          "name": "tokenId",
          "type": "uint256"
        }
      ],
      "name": "Approval",
      "type": "event"
    },
    {
      "anonymous": false,
      "inputs": [
        {
          "indexed": true,
          "internalType": "address",
          "name": "owner",
          "type": "address"
        },
        {
          "indexed": true,
          "internalType": "address",
          "name": "operator",
          "type": "address"
        },
        {
          "indexed": false,
          "internalType": "bool",
          "name": "approved",
          "type": "bool"
        }
      ],
      "name": "ApprovalForAll",
      "type": "event"
    },
    {
      "anonymous": false,
      "inputs": [
        {
          "indexed": false,
          "internalType": "uint256",
          "name": "tokenId",
          "type": "uint256"
        },
        {
          "indexed": false,
          "internalType": "address",
          "name": "winner",
          "type": "address"
        },
        {
          "indexed": false,
          "internalType": "uint256",
          "name": "winningBid",
          "type": "uint256"
        }
      ],
      "name": "AuctionEnded",
      "type": "event"
    },
    {
      "anonymous": false,
      "inputs": [
        {
          "indexed": false,
          "internalType": "uint256",
          "name": "tokenId",
          "type": "uint256"
        },
        {
          "indexed": false,
          "internalType": "address",
          "name": "seller",
          "type": "address"
        },
        {
          "indexed": false,
          "internalType": "uint256",
          "name": "endTime",
          "type": "uint256"
        },
        {
          "indexed": false,
          "internalType": "uint256",
          "name": "buyNowPrice",
          "type": "uint256"
        }
      ],
      "name": "AuctionStarted",
      "type": "event"
    },
    {
      "anonymous": false,
      "inputs": [
        {
          "indexed": false,
          "internalType": "uint256",
          "name": "tokenId",
          "type": "uint256"
        },
        {
          "indexed": false,
          "internalType": "address",
          "name": "buyer",
          "type": "address"
        },
        {
          "indexed": false,
          "internalType": "uint256",
          "name": "price",
          "type": "uint256"
        }
      ],
      "name": "NFTBought",
      "type": "event"
    },
    {
      "anonymous": false,
      "inputs": [
        {
          "indexed": false,
          "internalType": "uint256",
          "name": "tokenId",
          "type": "uint256"
        },
        {
          "indexed": false,
          "internalType": "address",
          "name": "recipient",
          "type": "address"
        },
        {
          "indexed": false,
          "internalType": "string",
          "name": "tokenURI",
          "type": "string"
        }
      ],
      "name": "NFTMinted",
      "type": "event"
    },
    {
      "anonymous": false,
      "inputs": [
        {
          "indexed": false,
          "internalType": "uint256",
          "name": "tokenId",
          "type": "uint256"
        },
        {
          "indexed": false,
          "internalType": "address",
          "name": "bidder",
          "type": "address"
        },
        {
          "indexed": false,
          "internalType": "uint256",
          "name": "bidAmount",
          "type": "uint256"
        }
      ],
      "name": "NewBid",
      "type": "event"
    },
    {
      "anonymous": false,
      "inputs": [
        {
          "indexed": true,
          "internalType": "address",
          "name": "previousOwner",
          "type": "address"
        },
        {
          "indexed": true,
          "internalType": "address",
          "name": "newOwner",
          "type": "address"
        }
      ],
      "name": "OwnershipTransferred",
      "type": "event"
    },
    {
      "anonymous": false,
      "inputs": [
        {
          "indexed": false,
          "internalType": "uint256",
          "name": "tokenId",
          "type": "uint256"
        },
        {
          "indexed": false,
          "internalType": "address",
          "name": "from",
          "type": "address"
        },
        {
          "indexed": false,
          "internalType": "address",
          "name": "to",
          "type": "address"
        }
      ],
      "name": "TokenTransferred",
      "type": "event"
    },
    {
      "anonymous": false,
      "inputs": [
        {
          "indexed": true,
          "internalType": "address",
          "name": "from",
          "type": "address"
        },
        {
          "indexed": true,
          "internalType": "address",
          "name": "to",
          "type": "address"
        },
        {
          "indexed": true,
          "internalType": "uint256",
          "name": "tokenId",
          "type": "uint256"
        }
      ],
      "name": "Transfer",
      "type": "event"
    },
    {
      "inputs": [
        {
          "internalType": "uint256",
          "name": "",
          "type": "uint256"
        }
      ],
      "name": "activeAuctions",
      "outputs": [
        {
          "internalType": "uint256",
          "name": "",
          "type": "uint256"
        }
      ],
      "stateMutability": "view",
      "type": "function",
      "constant": true
    },
    {
      "inputs": [
        {
          "internalType": "address",
          "name": "to",
          "type": "address"
        },
        {
          "internalType": "uint256",
          "name": "tokenId",
          "type": "uint256"
        }
      ],
      "name": "approve",
      "outputs": [],
      "stateMutability": "nonpayable",
      "type": "function"
    },
    {
      "inputs": [
        {
          "internalType": "uint256",
          "name": "",
          "type": "uint256"
        }
      ],
      "name": "auctions",
      "outputs": [
        {
          "internalType": "address payable",
          "name": "seller",
          "type": "address"
        },
        {
          "internalType": "uint256",
          "name": "highestBid",
          "type": "uint256"
        },
        {
          "internalType": "address payable",
          "name": "highestBidder",
          "type": "address"
        },
        {
          "internalType": "bool",
          "name": "open",
          "type": "bool"
        },
        {
          "internalType": "uint256",
          "name": "endTime",
          "type": "uint256"
        },
        {
          "internalType": "uint256",
          "name": "buyNowPrice",
          "type": "uint256"
        }
      ],
      "stateMutability": "view",
      "type": "function",
      "constant": true
    },
    {
      "inputs": [
        {
          "internalType": "address",
          "name": "owner",
          "type": "address"
        }
      ],
      "name": "balanceOf",
      "outputs": [
        {
          "internalType": "uint256",
          "name": "",
          "type": "uint256"
        }
      ],
      "stateMutability": "view",
      "type": "function",
      "constant": true
    },
    {
      "inputs": [
        {
          "internalType": "uint256",
          "name": "tokenId",
          "type": "uint256"
        }
      ],
      "name": "getApproved",
      "outputs": [
        {
          "internalType": "address",
          "name": "",
          "type": "address"
        }
      ],
      "stateMutability": "view",
      "type": "function",
      "constant": true
    },
    {
      "inputs": [
        {
          "internalType": "address",
          "name": "owner",
          "type": "address"
        },
        {
          "internalType": "address",
          "name": "operator",
          "type": "address"
        }
      ],
      "name": "isApprovedForAll",
      "outputs": [
        {
          "internalType": "bool",
          "name": "",
          "type": "bool"
        }
      ],
      "stateMutability": "view",
      "type": "function",
      "constant": true
    },
    {
      "inputs": [],
      "name": "name",
      "outputs": [
        {
          "internalType": "string",
          "name": "",
          "type": "string"
        }
      ],
      "stateMutability": "view",
      "type": "function",
      "constant": true
    },
    {
      "inputs": [],
      "name": "owner",
      "outputs": [
        {
          "internalType": "address",
          "name": "",
          "type": "address"
        }
      ],
      "stateMutability": "view",
      "type": "function",
      "constant": true
    },
    {
      "inputs": [
        {
          "internalType": "uint256",
          "name": "tokenId",
          "type": "uint256"
        }
      ],
      "name": "ownerOf",
      "outputs": [
        {
          "internalType": "address",
          "name": "",
          "type": "address"
        }
      ],
      "stateMutability": "view",
      "type": "function",
      "constant": true
    },
    {
      "inputs": [],
      "name": "renounceOwnership",
      "outputs": [],
      "stateMutability": "nonpayable",
      "type": "function"
    },
    {
      "inputs": [
        {
          "internalType": "address",
          "name": "operator",
          "type": "address"
        },
        {
          "internalType": "bool",
          "name": "approved",
          "type": "bool"
        }
      ],
      "name": "setApprovalForAll",
      "outputs": [],
      "stateMutability": "nonpayable",
      "type": "function"
    },
    {
      "inputs": [
        {
          "internalType": "bytes4",
          "name": "interfaceId",
          "type": "bytes4"
        }
      ],
      "name": "supportsInterface",
      "outputs": [
        {
          "internalType": "bool",
          "name": "",
          "type": "bool"
        }
      ],
      "stateMutability": "view",
      "type": "function",
      "constant": true
    },
    {
      "inputs": [],
      "name": "symbol",
      "outputs": [
        {
          "internalType": "string",
          "name": "",
          "type": "string"
        }
      ],
      "stateMutability": "view",
      "type": "function",
      "constant": true
    },
    {
      "inputs": [],
      "name": "tokenCounter",
      "outputs": [
        {
          "internalType": "uint256",
          "name": "",
          "type": "uint256"
        }
      ],
      "stateMutability": "view",
      "type": "function",
      "constant": true
    },
    {
      "inputs": [
        {
          "internalType": "uint256",
          "name": "tokenId",
          "type": "uint256"
        }
      ],
      "name": "tokenURI",
      "outputs": [
        {
          "internalType": "string",
          "name": "",
          "type": "string"
        }
      ],
      "stateMutability": "view",
      "type": "function",
      "constant": true
    },
    {
      "inputs": [
        {
          "internalType": "address",
          "name": "newOwner",
          "type": "address"
        }
      ],
      "name": "transferOwnership",
      "outputs": [],
      "stateMutability": "nonpayable",
      "type": "function"
    },
    {
      "inputs": [
        {
          "internalType": "address",
          "name": "recipient",
          "type": "address"
        },
        {
          "internalType": "string",
          "name": "tokenURI",
          "type": "string"
        }
      ],
      "name": "mintNFT",
      "outputs": [],
      "stateMutability": "nonpayable",
      "type": "function"
    },
    {
      "inputs": [
        {
          "internalType": "uint256",
          "name": "tokenId",
          "type": "uint256"
        },
        {
          "internalType": "uint256",
          "name": "duration",
          "type": "uint256"
        },
        {
          "internalType": "uint256",
          "name": "buyNowPrice",
          "type": "uint256"
        }
      ],
      "name": "startAuction",
      "outputs": [],
      "stateMutability": "nonpayable",
      "type": "function"
    },
    {
      "inputs": [
        {
          "internalType": "uint256",
          "name": "tokenId",
          "type": "uint256"
        }
      ],
      "name": "bid",
      "outputs": [],
      "stateMutability": "payable",
      "type": "function",
      "payable": true
    },
    {
      "inputs": [
        {
          "internalType": "uint256",
          "name": "tokenId",
          "type": "uint256"
        }
      ],
      "name": "buyNow",
      "outputs": [],
      "stateMutability": "payable",
      "type": "function",
      "payable": true
    },
    {
      "inputs": [
        {
          "internalType": "uint256",
          "name": "tokenId",
          "type": "uint256"
        }
      ],
      "name": "endAuction",
      "outputs": [],
      "stateMutability": "nonpayable",
      "type": "function"
    },
    {
      "inputs": [
        {
          "internalType": "address",
          "name": "from",
          "type": "address"
        },
        {
          "internalType": "address",
          "name": "to",
          "type": "address"
        },
        {
          "internalType": "uint256",
          "name": "tokenId",
          "type": "uint256"
        }
      ],
      "name": "transferFrom",
      "outputs": [],
      "stateMutability": "nonpayable",
      "type": "function"
    },
    {
      "inputs": [
        {
          "internalType": "address",
          "name": "from",
          "type": "address"
        },
        {
          "internalType": "address",
          "name": "to",
          "type": "address"
        },
        {
          "internalType": "uint256",
          "name": "tokenId",
          "type": "uint256"
        }
      ],
      "name": "safeTransferFrom",
      "outputs": [],
      "stateMutability": "nonpayable",
      "type": "function"
    },
    {
      "inputs": [
        {
          "internalType": "address",
          "name": "from",
          "type": "address"
        },
        {
          "internalType": "address",
          "name": "to",
          "type": "address"
        },
        {
          "internalType": "uint256",
          "name": "tokenId",
          "type": "uint256"
        },
        {
          "internalType": "bytes",
          "name": "data",
          "type": "bytes"
        }
      ],
      "name": "safeTransferFrom",
      "outputs": [],
      "stateMutability": "nonpayable",
      "type": "function"
    },
    {
      "inputs": [
        {
          "internalType": "address",
          "name": "owner",
          "type": "address"
        }
      ],
      "name": "getOwnedNFTs",
      "outputs": [
        {
          "internalType": "uint256[]",
          "name": "",
          "type": "uint256[]"
        }
      ],
      "stateMutability": "view",
      "type": "function",
      "constant": true
    },
    {
      "inputs": [],
      "name": "getActiveAuctions",
      "outputs": [
        {
          "internalType": "uint256[]",
          "name": "",
          "type": "uint256[]"
        }
      ],
      "stateMutability": "view",
      "type": "function",
      "constant": true
    }
  ],
  "bytecode": "0x60806040523480156200001157600080fd5b506040518060400160405280600881526020017f4e4654656e6e69730000000000000000000000000000000000000000000000008152506040518060400160405280600481526020017f4e46544e0000000000000000000000000000000000000000000000000000000081525081600090816200008f919062000422565b508060019081620000a1919062000422565b505050620000c4620000b8620000da60201b60201c565b620000e260201b60201c565b6001600881905550600060098190555062000509565b600033905090565b6000600760009054906101000a900473ffffffffffffffffffffffffffffffffffffffff16905081600760006101000a81548173ffffffffffffffffffffffffffffffffffffffff021916908373ffffffffffffffffffffffffffffffffffffffff1602179055508173ffffffffffffffffffffffffffffffffffffffff168173ffffffffffffffffffffffffffffffffffffffff167f8be0079c531659141344cd1fd0a4f28419497f9722a3daafe3b4186f6b6457e060405160405180910390a35050565b600081519050919050565b7f4e487b7100000000000000000000000000000000000000000000000000000000600052604160045260246000fd5b7f4e487b7100000000000000000000000000000000000000000000000000000000600052602260045260246000fd5b600060028204905060018216806200022a57607f821691505b60208210810362000240576200023f620001e2565b5b50919050565b60008190508160005260206000209050919050565b60006020601f8301049050919050565b600082821b905092915050565b600060088302620002aa7fffffffffffffffffffffffffffffffffffffffffffffffffffffffffffffffff826200026b565b620002b686836200026b565b95508019841693508086168417925050509392505050565b6000819050919050565b6000819050919050565b600062000303620002fd620002f784620002ce565b620002d8565b620002ce565b9050919050565b6000819050919050565b6200031f83620002e2565b620003376200032e826200030a565b84845462000278565b825550505050565b600090565b6200034e6200033f565b6200035b81848462000314565b505050565b5b8181101562000383576200037760008262000344565b60018101905062000361565b5050565b601f821115620003d2576200039c8162000246565b620003a7846200025b565b81016020851015620003b7578190505b620003cf620003c6856200025b565b83018262000360565b50505b505050565b600082821c905092915050565b6000620003f760001984600802620003d7565b1980831691505092915050565b6000620004128383620003e4565b9150826002028217905092915050565b6200042d82620001a8565b67ffffffffffffffff811115620004495762000448620001b3565b5b62000455825462000211565b6200046282828562000387565b600060209050601f8311600181146200049a576000841562000485578287015190505b62000491858262000404565b86555062000501565b601f198416620004aa8662000246565b60005b82811015620004d457848901518255600182019150602085019450602081019050620004ad565b86831015620004f45784890151620004f0601f891682620003e4565b8355505b6001600288020188555050505b505050505050565b61586280620005196000396000f3fe6080604052600436106101815760003560e01c8063790d8596116100d1578063b9a2de3a1161008a578063d082e38111610064578063d082e3811461058d578063e985e9c5146105b8578063eacabe14146105f5578063f2fde38b1461061e57610181565b8063b9a2de3a146104fc578063c87b56dd14610525578063cf44b5d51461056257610181565b8063790d8596146103ee5780638da5cb5b1461042b57806391e078bb1461045657806395d89b411461047f578063a22cb465146104aa578063b88d4fde146104d357610181565b806323b872dd1161013e578063571a26a011610118578063571a26a01461031b5780636352211e1461035d57806370a082311461039a578063715018a6146103d757610181565b806323b872dd146102ad57806342842e0e146102d6578063454a2ab3146102ff57610181565b806301ffc9a71461018657806306fdde03146101c3578063081812fc146101ee57806308a0f32f1461022b578063095ea7b31461024757806318148f1b14610270575b600080fd5b34801561019257600080fd5b506101ad60048036038101906101a891906136b8565b610647565b6040516101ba9190613700565b60405180910390f35b3480156101cf57600080fd5b506101d8610729565b6040516101e591906137ab565b60405180910390f35b3480156101fa57600080fd5b5061021560048036038101906102109190613803565b6107bb565b6040516102229190613871565b60405180910390f35b61024560048036038101906102409190613803565b610840565b005b34801561025357600080fd5b5061026e600480360381019061026991906138b8565b610c95565b005b34801561027c57600080fd5b50610297600480360381019061029291906138f8565b610dac565b6040516102a491906139e3565b60405180910390f35b3480156102b957600080fd5b506102d460048036038101906102cf9190613a05565b610e43565b005b3480156102e257600080fd5b506102fd60048036038101906102f89190613a05565b610fbf565b005b61031960048036038101906103149190613803565b61113b565b005b34801561032757600080fd5b50610342600480360381019061033d9190613803565b611538565b60405161035496959493929190613a88565b60405180910390f35b34801561036957600080fd5b50610384600480360381019061037f9190613803565b6115c1565b6040516103919190613871565b60405180910390f35b3480156103a657600080fd5b506103c160048036038101906103bc91906138f8565b611672565b6040516103ce9190613ae9565b60405180910390f35b3480156103e357600080fd5b506103ec611729565b005b3480156103fa57600080fd5b5061041560048036038101906104109190613803565b6117b1565b6040516104229190613ae9565b60405180910390f35b34801561043757600080fd5b506104406117d5565b60405161044d9190613871565b60405180910390f35b34801561046257600080fd5b5061047d60048036038101906104789190613b04565b6117ff565b005b34801561048b57600080fd5b50610494611b2b565b6040516104a191906137ab565b60405180910390f35b3480156104b657600080fd5b506104d160048036038101906104cc9190613b83565b611bbd565b005b3480156104df57600080fd5b506104fa60048036038101906104f59190613cf8565b611d3d565b005b34801561050857600080fd5b50610523600480360381019061051e9190613803565b611ebb565b005b34801561053157600080fd5b5061054c60048036038101906105479190613803565b612286565b60405161055991906137ab565b60405180910390f35b34801561056e57600080fd5b506105776123d7565b60405161058491906139e3565b60405180910390f35b34801561059957600080fd5b506105a261242f565b6040516105af9190613ae9565b60405180910390f35b3480156105c457600080fd5b506105df60048036038101906105da9190613d7b565b612435565b6040516105ec9190613700565b60405180910390f35b34801561060157600080fd5b5061061c60048036038101906106179190613e5c565b6124c9565b005b34801561062a57600080fd5b50610645600480360381019061064091906138f8565b6126d3565b005b60007f80ac58cd000000000000000000000000000000000000000000000000000000007bffffffffffffffffffffffffffffffffffffffffffffffffffffffff1916827bffffffffffffffffffffffffffffffffffffffffffffffffffffffff1916148061071257507f5b5e139f000000000000000000000000000000000000000000000000000000007bffffffffffffffffffffffffffffffffffffffffffffffffffffffff1916827bffffffffffffffffffffffffffffffffffffffffffffffffffffffff1916145b806107225750610721826127ca565b5b9050919050565b60606000805461073890613ee7565b80601f016020809104026020016040519081016040528092919081815260200182805461076490613ee7565b80156107b15780601f10610786576101008083540402835291602001916107b1565b820191906000526020600020905b81548152906001019060200180831161079457829003601f168201915b5050505050905090565b60006107c682612834565b610805576040517f08c379a00000000000000000000000000000000000000000000000000000000081526004016107fc90613f8a565b60405180910390fd5b6004600083815260200190815260200160002060009054906101000a900473ffffffffffffffffffffffffffffffffffffffff169050919050565b600260085403610885576040517f08c379a000000000000000000000000000000000000000000000000000000000815260040161087c90613ff6565b60405180910390fd5b60026008819055506000600b600083815260200190815260200160002090508060020160149054906101000a900460ff166108f5576040517f08c379a00000000000000000000000000000000000000000000000000000000081526004016108ec90614062565b60405180910390fd5b8060040154341461093b576040517f08c379a0000000000000000000000000000000000000000000000000000000008152600401610932906140ce565b60405180910390fd5b600073ffffffffffffffffffffffffffffffffffffffff168160020160009054906101000a900473ffffffffffffffffffffffffffffffffffffffff1673ffffffffffffffffffffffffffffffffffffffff1614610a695760008160020160009054906101000a900473ffffffffffffffffffffffffffffffffffffffff1673ffffffffffffffffffffffffffffffffffffffff1682600101546040516109e19061411f565b60006040518083038185875af1925050503d8060008114610a1e576040519150601f19603f3d011682016040523d82523d6000602084013e610a23565b606091505b5050905080610a67576040517f08c379a0000000000000000000000000000000000000000000000000000000008152600401610a5e90614180565b60405180910390fd5b505b60008160020160146101000a81548160ff021916908315150217905550610ab58160000160009054906101000a900473ffffffffffffffffffffffffffffffffffffffff1633846128a0565b60008160000160009054906101000a900473ffffffffffffffffffffffffffffffffffffffff1673ffffffffffffffffffffffffffffffffffffffff1634604051610aff9061411f565b60006040518083038185875af1925050503d8060008114610b3c576040519150601f19603f3d011682016040523d82523d6000602084013e610b41565b606091505b5050905080610b85576040517f08c379a0000000000000000000000000000000000000000000000000000000008152600401610b7c90614212565b60405180910390fd5b60005b600a80549050811015610c4c5783600a8281548110610baa57610ba9614232565b5b906000526020600020015403610c3957600a6001600a80549050610bce9190614290565b81548110610bdf57610bde614232565b5b9060005260206000200154600a8281548110610bfe57610bfd614232565b5b9060005260206000200181905550600a805480610c1e57610c1d6142c4565b5b60019003818190600052602060002001600090559055610c4c565b8080610c44906142f3565b915050610b88565b507f26701af1547d690b8c46ed5f0fbb8d5b115492b3b898f3dfc2e87b26cfcc1b14833334604051610c809392919061433b565b60405180910390a15050600160088190555050565b6000610ca0826115c1565b90508073ffffffffffffffffffffffffffffffffffffffff168373ffffffffffffffffffffffffffffffffffffffff1603610d10576040517f08c379a0000000000000000000000000000000000000000000000000000000008152600401610d07906143e4565b60405180910390fd5b8073ffffffffffffffffffffffffffffffffffffffff16610d2f612a57565b73ffffffffffffffffffffffffffffffffffffffff161480610d5e5750610d5d81610d58612a57565b612435565b5b610d9d576040517f08c379a0000000000000000000000000000000000000000000000000000000008152600401610d9490614476565b60405180910390fd5b610da78383612a5f565b505050565b6060600c60008373ffffffffffffffffffffffffffffffffffffffff1673ffffffffffffffffffffffffffffffffffffffff168152602001908152602001600020805480602002602001604051908101604052809291908181526020018280548015610e3757602002820191906000526020600020905b815481526020019060010190808311610e23575b50505050509050919050565b610e4e838383612b18565b6000600c60008573ffffffffffffffffffffffffffffffffffffffff1673ffffffffffffffffffffffffffffffffffffffff168152602001908152602001600020905060005b8180549050811015610f525782828281548110610eb457610eb3614232565b5b906000526020600020015403610f3f578160018380549050610ed69190614290565b81548110610ee757610ee6614232565b5b9060005260206000200154828281548110610f0557610f04614232565b5b906000526020600020018190555081805480610f2457610f236142c4565b5b60019003818190600052602060002001600090559055610f52565b8080610f4a906142f3565b915050610e94565b50600c60008473ffffffffffffffffffffffffffffffffffffffff1673ffffffffffffffffffffffffffffffffffffffff16815260200190815260200160002082908060018154018082558091505060019003906000526020600020016000909190919091505550505050565b610fca838383612b78565b6000600c60008573ffffffffffffffffffffffffffffffffffffffff1673ffffffffffffffffffffffffffffffffffffffff168152602001908152602001600020905060005b81805490508110156110ce57828282815481106110305761102f614232565b5b9060005260206000200154036110bb5781600183805490506110529190614290565b8154811061106357611062614232565b5b906000526020600020015482828154811061108157611080614232565b5b9060005260206000200181905550818054806110a05761109f6142c4565b5b600190038181906000526020600020016000905590556110ce565b80806110c6906142f3565b915050611010565b50600c60008473ffffffffffffffffffffffffffffffffffffffff1673ffffffffffffffffffffffffffffffffffffffff16815260200190815260200160002082908060018154018082558091505060019003906000526020600020016000909190919091505550505050565b600260085403611180576040517f08c379a000000000000000000000000000000000000000000000000000000000815260040161117790613ff6565b60405180910390fd5b60026008819055506000600b60008381526020019081526020016000209050806003015442106111ee576111b382611ebb565b6040517f08c379a00000000000000000000000000000000000000000000000000000000081526004016111e5906144e2565b60405180910390fd5b8060020160149054906101000a900460ff1661123f576040517f08c379a000000000000000000000000000000000000000000000000000000000815260040161123690614062565b60405180910390fd5b80600101543411611285576040517f08c379a000000000000000000000000000000000000000000000000000000000815260040161127c90614574565b60405180910390fd5b80600401543411156112cc576040517f08c379a00000000000000000000000000000000000000000000000000000000081526004016112c3906145e0565b60405180910390fd5b8060000160009054906101000a900473ffffffffffffffffffffffffffffffffffffffff1673ffffffffffffffffffffffffffffffffffffffff163373ffffffffffffffffffffffffffffffffffffffff160361135e576040517f08c379a00000000000000000000000000000000000000000000000000000000081526004016113559061464c565b60405180910390fd5b600073ffffffffffffffffffffffffffffffffffffffff168160020160009054906101000a900473ffffffffffffffffffffffffffffffffffffffff1673ffffffffffffffffffffffffffffffffffffffff161461148c5760008160020160009054906101000a900473ffffffffffffffffffffffffffffffffffffffff1673ffffffffffffffffffffffffffffffffffffffff1682600101546040516114049061411f565b60006040518083038185875af1925050503d8060008114611441576040519150601f19603f3d011682016040523d82523d6000602084013e611446565b606091505b505090508061148a576040517f08c379a000000000000000000000000000000000000000000000000000000000815260040161148190614180565b60405180910390fd5b505b348160010181905550338160020160006101000a81548173ffffffffffffffffffffffffffffffffffffffff021916908373ffffffffffffffffffffffffffffffffffffffff1602179055507f558a0d5d5468d74b0db24c74eb348b42271c2ebb4c9e953ced38aaed95fa436182333460405161150b9392919061433b565b60405180910390a1806004015481600101541061152c5761152b82611ebb565b5b50600160088190555050565b600b6020528060005260406000206000915090508060000160009054906101000a900473ffffffffffffffffffffffffffffffffffffffff16908060010154908060020160009054906101000a900473ffffffffffffffffffffffffffffffffffffffff16908060020160149054906101000a900460ff16908060030154908060040154905086565b6000806002600084815260200190815260200160002060009054906101000a900473ffffffffffffffffffffffffffffffffffffffff169050600073ffffffffffffffffffffffffffffffffffffffff168173ffffffffffffffffffffffffffffffffffffffff1603611669576040517f08c379a0000000000000000000000000000000000000000000000000000000008152600401611660906146de565b60405180910390fd5b80915050919050565b60008073ffffffffffffffffffffffffffffffffffffffff168273ffffffffffffffffffffffffffffffffffffffff16036116e2576040517f08c379a00000000000000000000000000000000000000000000000000000000081526004016116d990614770565b60405180910390fd5b600360008373ffffffffffffffffffffffffffffffffffffffff1673ffffffffffffffffffffffffffffffffffffffff168152602001908152602001600020549050919050565b611731612a57565b73ffffffffffffffffffffffffffffffffffffffff1661174f6117d5565b73ffffffffffffffffffffffffffffffffffffffff16146117a5576040517f08c379a000000000000000000000000000000000000000000000000000000000815260040161179c906147dc565b60405180910390fd5b6117af6000612b98565b565b600a81815481106117c157600080fd5b906000526020600020016000915090505481565b6000600760009054906101000a900473ffffffffffffffffffffffffffffffffffffffff16905090565b3373ffffffffffffffffffffffffffffffffffffffff1661181f846115c1565b73ffffffffffffffffffffffffffffffffffffffff1614611875576040517f08c379a000000000000000000000000000000000000000000000000000000000815260040161186c9061486e565b60405180910390fd5b600b600084815260200190815260200160002060020160149054906101000a900460ff16156118d9576040517f08c379a00000000000000000000000000000000000000000000000000000000081526004016118d090614900565b60405180910390fd5b6000821161191c576040517f08c379a000000000000000000000000000000000000000000000000000000000815260040161191390614992565b60405180910390fd5b6000811161195f576040517f08c379a000000000000000000000000000000000000000000000000000000000815260040161195690614a24565b60405180910390fd5b6040518060c001604052803373ffffffffffffffffffffffffffffffffffffffff16815260200160008152602001600073ffffffffffffffffffffffffffffffffffffffff16815260200160011515815260200183426119bf9190614a44565b815260200182815250600b600085815260200190815260200160002060008201518160000160006101000a81548173ffffffffffffffffffffffffffffffffffffffff021916908373ffffffffffffffffffffffffffffffffffffffff1602179055506020820151816001015560408201518160020160006101000a81548173ffffffffffffffffffffffffffffffffffffffff021916908373ffffffffffffffffffffffffffffffffffffffff16021790555060608201518160020160146101000a81548160ff0219169083151502179055506080820151816003015560a08201518160040155905050600a8390806001815401808255809150506001900390600052602060002001600090919091909150557fbf6dc7bdf2f23af5a506fe03ee1221f47d023a2227fbc949c6b812ae44534e6d8333600b60008781526020019081526020016000206003015484604051611b1e9493929190614a78565b60405180910390a1505050565b606060018054611b3a90613ee7565b80601f0160208091040260200160405190810160405280929190818152602001828054611b6690613ee7565b8015611bb35780601f10611b8857610100808354040283529160200191611bb3565b820191906000526020600020905b815481529060010190602001808311611b9657829003601f168201915b5050505050905090565b611bc5612a57565b73ffffffffffffffffffffffffffffffffffffffff168273ffffffffffffffffffffffffffffffffffffffff1603611c32576040517f08c379a0000000000000000000000000000000000000000000000000000000008152600401611c2990614b09565b60405180910390fd5b8060056000611c3f612a57565b73ffffffffffffffffffffffffffffffffffffffff1673ffffffffffffffffffffffffffffffffffffffff16815260200190815260200160002060008473ffffffffffffffffffffffffffffffffffffffff1673ffffffffffffffffffffffffffffffffffffffff16815260200190815260200160002060006101000a81548160ff0219169083151502179055508173ffffffffffffffffffffffffffffffffffffffff16611cec612a57565b73ffffffffffffffffffffffffffffffffffffffff167f17307eab39ab6107e8899845ad3d59bd9653f200f220920489ca2b5937696c3183604051611d319190613700565b60405180910390a35050565b611d4984848484612c5e565b6000600c60008673ffffffffffffffffffffffffffffffffffffffff1673ffffffffffffffffffffffffffffffffffffffff168152602001908152602001600020905060005b8180549050811015611e4d5783828281548110611daf57611dae614232565b5b906000526020600020015403611e3a578160018380549050611dd19190614290565b81548110611de257611de1614232565b5b9060005260206000200154828281548110611e0057611dff614232565b5b906000526020600020018190555081805480611e1f57611e1e6142c4565b5b60019003818190600052602060002001600090559055611e4d565b8080611e45906142f3565b915050611d8f565b50600c60008573ffffffffffffffffffffffffffffffffffffffff1673ffffffffffffffffffffffffffffffffffffffff1681526020019081526020016000208390806001815401808255809150506001900390600052602060002001600090919091909150555050505050565b600260085403611f00576040517f08c379a0000000000000000000000000000000000000000000000000000000008152600401611ef790613ff6565b60405180910390fd5b60026008819055506000600b600083815260200190815260200160002090508060020160149054906101000a900460ff16611f70576040517f08c379a0000000000000000000000000000000000000000000000000000000008152600401611f6790614b75565b60405180910390fd5b60008160020160146101000a81548160ff021916908315150217905550600073ffffffffffffffffffffffffffffffffffffffff168160020160009054906101000a900473ffffffffffffffffffffffffffffffffffffffff1673ffffffffffffffffffffffffffffffffffffffff1614612175576120388160000160009054906101000a900473ffffffffffffffffffffffffffffffffffffffff168260020160009054906101000a900473ffffffffffffffffffffffffffffffffffffffff16846128a0565b60008160000160009054906101000a900473ffffffffffffffffffffffffffffffffffffffff1673ffffffffffffffffffffffffffffffffffffffff1682600101546040516120869061411f565b60006040518083038185875af1925050503d80600081146120c3576040519150601f19603f3d011682016040523d82523d6000602084013e6120c8565b606091505b505090508061210c576040517f08c379a000000000000000000000000000000000000000000000000000000000815260040161210390614212565b60405180910390fd5b7fd2aa34a4fdbbc6dff6a3e56f46e0f3ae2a31d7785ff3487aa5c95c642acea501838360020160009054906101000a900473ffffffffffffffffffffffffffffffffffffffff16846001015460405161216793929190614bf4565b60405180910390a1506121b2565b7fd2aa34a4fdbbc6dff6a3e56f46e0f3ae2a31d7785ff3487aa5c95c642acea501826000806040516121a993929190614c66565b60405180910390a15b60005b600a805490508110156122795782600a82815481106121d7576121d6614232565b5b90600052602060002001540361226657600a6001600a805490506121fb9190614290565b8154811061220c5761220b614232565b5b9060005260206000200154600a828154811061222b5761222a614232565b5b9060005260206000200181905550600a80548061224b5761224a6142c4565b5b60019003818190600052602060002001600090559055612279565b8080612271906142f3565b9150506121b5565b5050600160088190555050565b606061229182612834565b6122d0576040517f08c379a00000000000000000000000000000000000000000000000000000000081526004016122c790614d0f565b60405180910390fd5b60006006600084815260200190815260200160002080546122f090613ee7565b80601f016020809104026020016040519081016040528092919081815260200182805461231c90613ee7565b80156123695780601f1061233e57610100808354040283529160200191612369565b820191906000526020600020905b81548152906001019060200180831161234c57829003601f168201915b50505050509050600061237a612cc0565b9050600081510361238f5781925050506123d2565b6000825111156123c45780826040516020016123ac929190614d6b565b604051602081830303815290604052925050506123d2565b6123cd84612cd7565b925050505b919050565b6060600a80548060200260200160405190810160405280929190818152602001828054801561242557602002820191906000526020600020905b815481526020019060010190808311612411575b5050505050905090565b60095481565b6000600560008473ffffffffffffffffffffffffffffffffffffffff1673ffffffffffffffffffffffffffffffffffffffff16815260200190815260200160002060008373ffffffffffffffffffffffffffffffffffffffff1673ffffffffffffffffffffffffffffffffffffffff16815260200190815260200160002060009054906101000a900460ff16905092915050565b6124d1612a57565b73ffffffffffffffffffffffffffffffffffffffff166124ef6117d5565b73ffffffffffffffffffffffffffffffffffffffff1614612545576040517f08c379a000000000000000000000000000000000000000000000000000000000815260040161253c906147dc565b60405180910390fd5b600073ffffffffffffffffffffffffffffffffffffffff168273ffffffffffffffffffffffffffffffffffffffff16036125b4576040517f08c379a00000000000000000000000000000000000000000000000000000000081526004016125ab90614ddb565b60405180910390fd5b60008151116125f8576040517f08c379a00000000000000000000000000000000000000000000000000000000081526004016125ef90614e47565b60405180910390fd5b600060095490506126098382612d7e565b6126138183612f4b565b6001600960008282546126269190614a44565b92505081905550600c60008473ffffffffffffffffffffffffffffffffffffffff1673ffffffffffffffffffffffffffffffffffffffff1681526020019081526020016000208190806001815401808255809150506001900390600052602060002001600090919091909150557f06becd955c918828f6e985541acbf49cc842c9e9bd569fffc7698e721ef135758184846040516126c693929190614e67565b60405180910390a1505050565b6126db612a57565b73ffffffffffffffffffffffffffffffffffffffff166126f96117d5565b73ffffffffffffffffffffffffffffffffffffffff161461274f576040517f08c379a0000000000000000000000000000000000000000000000000000000008152600401612746906147dc565b60405180910390fd5b600073ffffffffffffffffffffffffffffffffffffffff168173ffffffffffffffffffffffffffffffffffffffff16036127be576040517f08c379a00000000000000000000000000000000000000000000000000000000081526004016127b590614f17565b60405180910390fd5b6127c781612b98565b50565b60007f01ffc9a7000000000000000000000000000000000000000000000000000000007bffffffffffffffffffffffffffffffffffffffffffffffffffffffff1916827bffffffffffffffffffffffffffffffffffffffffffffffffffffffff1916149050919050565b60008073ffffffffffffffffffffffffffffffffffffffff166002600084815260200190815260200160002060009054906101000a900473ffffffffffffffffffffffffffffffffffffffff1673ffffffffffffffffffffffffffffffffffffffff1614159050919050565b6000600c60008573ffffffffffffffffffffffffffffffffffffffff1673ffffffffffffffffffffffffffffffffffffffff168152602001908152602001600020905060005b81805490508110156129a4578282828154811061290657612905614232565b5b9060005260206000200154036129915781600183805490506129289190614290565b8154811061293957612938614232565b5b906000526020600020015482828154811061295757612956614232565b5b906000526020600020018190555081805480612976576129756142c4565b5b600190038181906000526020600020016000905590556129a4565b808061299c906142f3565b9150506128e6565b50600c60008473ffffffffffffffffffffffffffffffffffffffff1673ffffffffffffffffffffffffffffffffffffffff168152602001908152602001600020829080600181540180825580915050600190039060005260206000200160009091909190915055612a16848484612fb8565b7fa84f763be5bb36163517fb87c7af39f875a97866fdf7806eb1b3eac837ae35ea828585604051612a4993929190614f37565b60405180910390a150505050565b600033905090565b816004600083815260200190815260200160002060006101000a81548173ffffffffffffffffffffffffffffffffffffffff021916908373ffffffffffffffffffffffffffffffffffffffff160217905550808273ffffffffffffffffffffffffffffffffffffffff16612ad2836115c1565b73ffffffffffffffffffffffffffffffffffffffff167f8c5be1e5ebec7d5bd14f71427d1e84f3dd0314c0f7b2291e5b200ac8c7c3b92560405160405180910390a45050565b612b29612b23612a57565b82613213565b612b68576040517f08c379a0000000000000000000000000000000000000000000000000000000008152600401612b5f90614fe0565b60405180910390fd5b612b73838383612fb8565b505050565b612b9383838360405180602001604052806000815250611d3d565b505050565b6000600760009054906101000a900473ffffffffffffffffffffffffffffffffffffffff16905081600760006101000a81548173ffffffffffffffffffffffffffffffffffffffff021916908373ffffffffffffffffffffffffffffffffffffffff1602179055508173ffffffffffffffffffffffffffffffffffffffff168173ffffffffffffffffffffffffffffffffffffffff167f8be0079c531659141344cd1fd0a4f28419497f9722a3daafe3b4186f6b6457e060405160405180910390a35050565b612c6f612c69612a57565b83613213565b612cae576040517f08c379a0000000000000000000000000000000000000000000000000000000008152600401612ca590614fe0565b60405180910390fd5b612cba848484846132f1565b50505050565b606060405180602001604052806000815250905090565b6060612ce282612834565b612d21576040517f08c379a0000000000000000000000000000000000000000000000000000000008152600401612d1890615072565b60405180910390fd5b6000612d2b612cc0565b90506000815111612d4b5760405180602001604052806000815250612d76565b80612d558461334d565b604051602001612d66929190614d6b565b6040516020818303038152906040525b915050919050565b600073ffffffffffffffffffffffffffffffffffffffff168273ffffffffffffffffffffffffffffffffffffffff1603612ded576040517f08c379a0000000000000000000000000000000000000000000000000000000008152600401612de4906150de565b60405180910390fd5b612df681612834565b15612e36576040517f08c379a0000000000000000000000000000000000000000000000000000000008152600401612e2d9061514a565b60405180910390fd5b612e42600083836134ad565b6001600360008473ffffffffffffffffffffffffffffffffffffffff1673ffffffffffffffffffffffffffffffffffffffff1681526020019081526020016000206000828254612e929190614a44565b92505081905550816002600083815260200190815260200160002060006101000a81548173ffffffffffffffffffffffffffffffffffffffff021916908373ffffffffffffffffffffffffffffffffffffffff160217905550808273ffffffffffffffffffffffffffffffffffffffff16600073ffffffffffffffffffffffffffffffffffffffff167fddf252ad1be2c89b69c2b068fc378daa952ba7f163c4a11628f55a4df523b3ef60405160405180910390a45050565b612f5482612834565b612f93576040517f08c379a0000000000000000000000000000000000000000000000000000000008152600401612f8a906151dc565b60405180910390fd5b80600660008481526020019081526020016000209081612fb3919061539e565b505050565b8273ffffffffffffffffffffffffffffffffffffffff16612fd8826115c1565b73ffffffffffffffffffffffffffffffffffffffff161461302e576040517f08c379a0000000000000000000000000000000000000000000000000000000008152600401613025906154e2565b60405180910390fd5b600073ffffffffffffffffffffffffffffffffffffffff168273ffffffffffffffffffffffffffffffffffffffff160361309d576040517f08c379a000000000000000000000000000000000000000000000000000000000815260040161309490615574565b60405180910390fd5b6130a88383836134ad565b6130b3600082612a5f565b6001600360008573ffffffffffffffffffffffffffffffffffffffff1673ffffffffffffffffffffffffffffffffffffffff16815260200190815260200160002060008282546131039190614290565b925050819055506001600360008473ffffffffffffffffffffffffffffffffffffffff1673ffffffffffffffffffffffffffffffffffffffff168152602001908152602001600020600082825461315a9190614a44565b92505081905550816002600083815260200190815260200160002060006101000a81548173ffffffffffffffffffffffffffffffffffffffff021916908373ffffffffffffffffffffffffffffffffffffffff160217905550808273ffffffffffffffffffffffffffffffffffffffff168473ffffffffffffffffffffffffffffffffffffffff167fddf252ad1be2c89b69c2b068fc378daa952ba7f163c4a11628f55a4df523b3ef60405160405180910390a4505050565b600061321e82612834565b61325d576040517f08c379a000000000000000000000000000000000000000000000000000000000815260040161325490615606565b60405180910390fd5b6000613268836115c1565b90508073ffffffffffffffffffffffffffffffffffffffff168473ffffffffffffffffffffffffffffffffffffffff1614806132d757508373ffffffffffffffffffffffffffffffffffffffff166132bf846107bb565b73ffffffffffffffffffffffffffffffffffffffff16145b806132e857506132e78185612435565b5b91505092915050565b6132fc848484612fb8565b613308848484846134b2565b613347576040517f08c379a000000000000000000000000000000000000000000000000000000000815260040161333e90615698565b60405180910390fd5b50505050565b606060008203613394576040518060400160405280600181526020017f300000000000000000000000000000000000000000000000000000000000000081525090506134a8565b600082905060005b600082146133c65780806133af906142f3565b915050600a826133bf91906156e7565b915061339c565b60008167ffffffffffffffff8111156133e2576133e1613bcd565b5b6040519080825280601f01601f1916602001820160405280156134145781602001600182028036833780820191505090505b5090505b600085146134a15760018261342d9190614290565b9150600a8561343c9190615718565b60306134489190614a44565b60f81b81838151811061345e5761345d614232565b5b60200101907effffffffffffffffffffffffffffffffffffffffffffffffffffffffffffff1916908160001a905350600a8561349a91906156e7565b9450613418565b8093505050505b919050565b505050565b60006134d38473ffffffffffffffffffffffffffffffffffffffff16613639565b1561362c578373ffffffffffffffffffffffffffffffffffffffff1663150b7a026134fc612a57565b8786866040518563ffffffff1660e01b815260040161351e949392919061579e565b6020604051808303816000875af192505050801561355a57506040513d601f19601f8201168201806040525081019061355791906157ff565b60015b6135dc573d806000811461358a576040519150601f19603f3d011682016040523d82523d6000602084013e61358f565b606091505b5060008151036135d4576040517f08c379a00000000000000000000000000000000000000000000000000000000081526004016135cb90615698565b60405180910390fd5b805181602001fd5b63150b7a0260e01b7bffffffffffffffffffffffffffffffffffffffffffffffffffffffff1916817bffffffffffffffffffffffffffffffffffffffffffffffffffffffff191614915050613631565b600190505b949350505050565b600080823b905060008111915050919050565b6000604051905090565b600080fd5b600080fd5b60007fffffffff0000000000000000000000000000000000000000000000000000000082169050919050565b61369581613660565b81146136a057600080fd5b50565b6000813590506136b28161368c565b92915050565b6000602082840312156136ce576136cd613656565b5b60006136dc848285016136a3565b91505092915050565b60008115159050919050565b6136fa816136e5565b82525050565b600060208201905061371560008301846136f1565b92915050565b600081519050919050565b600082825260208201905092915050565b60005b8381101561375557808201518184015260208101905061373a565b60008484015250505050565b6000601f19601f8301169050919050565b600061377d8261371b565b6137878185613726565b9350613797818560208601613737565b6137a081613761565b840191505092915050565b600060208201905081810360008301526137c58184613772565b905092915050565b6000819050919050565b6137e0816137cd565b81146137eb57600080fd5b50565b6000813590506137fd816137d7565b92915050565b60006020828403121561381957613818613656565b5b6000613827848285016137ee565b91505092915050565b600073ffffffffffffffffffffffffffffffffffffffff82169050919050565b600061385b82613830565b9050919050565b61386b81613850565b82525050565b60006020820190506138866000830184613862565b92915050565b61389581613850565b81146138a057600080fd5b50565b6000813590506138b28161388c565b92915050565b600080604083850312156138cf576138ce613656565b5b60006138dd858286016138a3565b92505060206138ee858286016137ee565b9150509250929050565b60006020828403121561390e5761390d613656565b5b600061391c848285016138a3565b91505092915050565b600081519050919050565b600082825260208201905092915050565b6000819050602082019050919050565b61395a816137cd565b82525050565b600061396c8383613951565b60208301905092915050565b6000602082019050919050565b600061399082613925565b61399a8185613930565b93506139a583613941565b8060005b838110156139d65781516139bd8882613960565b97506139c883613978565b9250506001810190506139a9565b5085935050505092915050565b600060208201905081810360008301526139fd8184613985565b905092915050565b600080600060608486031215613a1e57613a1d613656565b5b6000613a2c868287016138a3565b9350506020613a3d868287016138a3565b9250506040613a4e868287016137ee565b9150509250925092565b6000613a6382613830565b9050919050565b613a7381613a58565b82525050565b613a82816137cd565b82525050565b600060c082019050613a9d6000830189613a6a565b613aaa6020830188613a79565b613ab76040830187613a6a565b613ac460608301866136f1565b613ad16080830185613a79565b613ade60a0830184613a79565b979650505050505050565b6000602082019050613afe6000830184613a79565b92915050565b600080600060608486031215613b1d57613b1c613656565b5b6000613b2b868287016137ee565b9350506020613b3c868287016137ee565b9250506040613b4d868287016137ee565b9150509250925092565b613b60816136e5565b8114613b6b57600080fd5b50565b600081359050613b7d81613b57565b92915050565b60008060408385031215613b9a57613b99613656565b5b6000613ba8858286016138a3565b9250506020613bb985828601613b6e565b9150509250929050565b600080fd5b600080fd5b7f4e487b7100000000000000000000000000000000000000000000000000000000600052604160045260246000fd5b613c0582613761565b810181811067ffffffffffffffff82111715613c2457613c23613bcd565b5b80604052505050565b6000613c3761364c565b9050613c438282613bfc565b919050565b600067ffffffffffffffff821115613c6357613c62613bcd565b5b613c6c82613761565b9050602081019050919050565b82818337600083830152505050565b6000613c9b613c9684613c48565b613c2d565b905082815260208101848484011115613cb757613cb6613bc8565b5b613cc2848285613c79565b509392505050565b600082601f830112613cdf57613cde613bc3565b5b8135613cef848260208601613c88565b91505092915050565b60008060008060808587031215613d1257613d11613656565b5b6000613d20878288016138a3565b9450506020613d31878288016138a3565b9350506040613d42878288016137ee565b925050606085013567ffffffffffffffff811115613d6357613d6261365b565b5b613d6f87828801613cca565b91505092959194509250565b60008060408385031215613d9257613d91613656565b5b6000613da0858286016138a3565b9250506020613db1858286016138a3565b9150509250929050565b600067ffffffffffffffff821115613dd657613dd5613bcd565b5b613ddf82613761565b9050602081019050919050565b6000613dff613dfa84613dbb565b613c2d565b905082815260208101848484011115613e1b57613e1a613bc8565b5b613e26848285613c79565b509392505050565b600082601f830112613e4357613e42613bc3565b5b8135613e53848260208601613dec565b91505092915050565b60008060408385031215613e7357613e72613656565b5b6000613e81858286016138a3565b925050602083013567ffffffffffffffff811115613ea257613ea161365b565b5b613eae85828601613e2e565b9150509250929050565b7f4e487b7100000000000000000000000000000000000000000000000000000000600052602260045260246000fd5b60006002820490506001821680613eff57607f821691505b602082108103613f1257613f11613eb8565b5b50919050565b7f4552433732313a20617070726f76656420717565727920666f72206e6f6e657860008201527f697374656e7420746f6b656e0000000000000000000000000000000000000000602082015250565b6000613f74602c83613726565b9150613f7f82613f18565b604082019050919050565b60006020820190508181036000830152613fa381613f67565b9050919050565b7f5265656e7472616e637947756172643a207265656e7472616e742063616c6c00600082015250565b6000613fe0601f83613726565b9150613feb82613faa565b602082019050919050565b6000602082019050818103600083015261400f81613fd3565b9050919050565b7f41756374696f6e20697320636c6f736564000000000000000000000000000000600082015250565b600061404c601183613726565b915061405782614016565b602082019050919050565b6000602082019050818103600083015261407b8161403f565b9050919050565b7f4d757374207061792074686520657861637420627579206e6f77207072696365600082015250565b60006140b8602083613726565b91506140c382614082565b602082019050919050565b600060208201905081810360008301526140e7816140ab565b9050919050565b600081905092915050565b50565b60006141096000836140ee565b9150614114826140f9565b600082019050919050565b600061412a826140fc565b9150819050919050565b7f4661696c656420746f20726566756e642070726576696f757320626964646572600082015250565b600061416a602083613726565b915061417582614134565b602082019050919050565b600060208201905081810360008301526141998161415d565b9050919050565b7f4661696c656420746f207472616e736665722066756e647320746f2073656c6c60008201527f6572000000000000000000000000000000000000000000000000000000000000602082015250565b60006141fc602283613726565b9150614207826141a0565b604082019050919050565b6000602082019050818103600083015261422b816141ef565b9050919050565b7f4e487b7100000000000000000000000000000000000000000000000000000000600052603260045260246000fd5b7f4e487b7100000000000000000000000000000000000000000000000000000000600052601160045260246000fd5b600061429b826137cd565b91506142a6836137cd565b92508282039050818111156142be576142bd614261565b5b92915050565b7f4e487b7100000000000000000000000000000000000000000000000000000000600052603160045260246000fd5b60006142fe826137cd565b91507fffffffffffffffffffffffffffffffffffffffffffffffffffffffffffffffff82036143305761432f614261565b5b600182019050919050565b60006060820190506143506000830186613a79565b61435d6020830185613862565b61436a6040830184613a79565b949350505050565b7f4552433732313a20617070726f76616c20746f2063757272656e74206f776e6560008201527f7200000000000000000000000000000000000000000000000000000000000000602082015250565b60006143ce602183613726565b91506143d982614372565b604082019050919050565b600060208201905081810360008301526143fd816143c1565b9050919050565b7f4552433732313a20617070726f76652063616c6c6572206973206e6f74206f7760008201527f6e6572206e6f7220617070726f76656420666f7220616c6c0000000000000000602082015250565b6000614460603883613726565b915061446b82614404565b604082019050919050565b6000602082019050818103600083015261448f81614453565b9050919050565b7f41756374696f6e2068617320616c726561647920656e64656400000000000000600082015250565b60006144cc601983613726565b91506144d782614496565b602082019050919050565b600060208201905081810360008301526144fb816144bf565b9050919050565b7f426964206d75737420626520686967686572207468616e20746865206375727260008201527f656e742068696768657374206269640000000000000000000000000000000000602082015250565b600061455e602f83613726565b915061456982614502565b604082019050919050565b6000602082019050818103600083015261458d81614551565b9050919050565b7f42696420657863656564732074686520627579206e6f77207072696365000000600082015250565b60006145ca601d83613726565b91506145d582614594565b602082019050919050565b600060208201905081810360008301526145f9816145bd565b9050919050565b7f53656c6c65722063616e6e6f7420626964000000000000000000000000000000600082015250565b6000614636601183613726565b915061464182614600565b602082019050919050565b6000602082019050818103600083015261466581614629565b9050919050565b7f4552433732313a206f776e657220717565727920666f72206e6f6e657869737460008201527f656e7420746f6b656e0000000000000000000000000000000000000000000000602082015250565b60006146c8602983613726565b91506146d38261466c565b604082019050919050565b600060208201905081810360008301526146f7816146bb565b9050919050565b7f4552433732313a2062616c616e636520717565727920666f7220746865207a6560008201527f726f206164647265737300000000000000000000000000000000000000000000602082015250565b600061475a602a83613726565b9150614765826146fe565b604082019050919050565b600060208201905081810360008301526147898161474d565b9050919050565b7f4f776e61626c653a2063616c6c6572206973206e6f7420746865206f776e6572600082015250565b60006147c6602083613726565b91506147d182614790565b602082019050919050565b600060208201905081810360008301526147f5816147b9565b9050919050565b7f4f6e6c7920746865206f776e65722063616e20737461727420616e206175637460008201527f696f6e0000000000000000000000000000000000000000000000000000000000602082015250565b6000614858602383613726565b9150614863826147fc565b604082019050919050565b600060208201905081810360008301526148878161484b565b9050919050565b7f41756374696f6e20616c7265616479206f70656e20666f72207468697320746f60008201527f6b656e0000000000000000000000000000000000000000000000000000000000602082015250565b60006148ea602383613726565b91506148f58261488e565b604082019050919050565b60006020820190508181036000830152614919816148dd565b9050919050565b7f41756374696f6e206475726174696f6e206d757374206265206772656174657260008201527f207468616e207a65726f00000000000000000000000000000000000000000000602082015250565b600061497c602a83613726565b915061498782614920565b604082019050919050565b600060208201905081810360008301526149ab8161496f565b9050919050565b7f427579206e6f77207072696365206d757374206265206772656174657220746860008201527f616e207a65726f00000000000000000000000000000000000000000000000000602082015250565b6000614a0e602783613726565b9150614a19826149b2565b604082019050919050565b60006020820190508181036000830152614a3d81614a01565b9050919050565b6000614a4f826137cd565b9150614a5a836137cd565b9250828201905080821115614a7257614a71614261565b5b92915050565b6000608082019050614a8d6000830187613a79565b614a9a6020830186613862565b614aa76040830185613a79565b614ab46060830184613a79565b95945050505050565b7f4552433732313a20617070726f766520746f2063616c6c657200000000000000600082015250565b6000614af3601983613726565b9150614afe82614abd565b602082019050919050565b60006020820190508181036000830152614b2281614ae6565b9050919050565b7f41756374696f6e20697320616c726561647920636c6f73656400000000000000600082015250565b6000614b5f601983613726565b9150614b6a82614b29565b602082019050919050565b60006020820190508181036000830152614b8e81614b52565b9050919050565b6000819050919050565b6000614bba614bb5614bb084613830565b614b95565b613830565b9050919050565b6000614bcc82614b9f565b9050919050565b6000614bde82614bc1565b9050919050565b614bee81614bd3565b82525050565b6000606082019050614c096000830186613a79565b614c166020830185614be5565b614c236040830184613a79565b949350505050565b6000819050919050565b6000614c50614c4b614c4684614c2b565b614b95565b6137cd565b9050919050565b614c6081614c35565b82525050565b6000606082019050614c7b6000830186613a79565b614c886020830185613862565b614c956040830184614c57565b949350505050565b7f45524337323155524953746f726167653a2055524920717565727920666f722060008201527f6e6f6e6578697374656e7420746f6b656e000000000000000000000000000000602082015250565b6000614cf9603183613726565b9150614d0482614c9d565b604082019050919050565b60006020820190508181036000830152614d2881614cec565b9050919050565b600081905092915050565b6000614d458261371b565b614d4f8185614d2f565b9350614d5f818560208601613737565b80840191505092915050565b6000614d778285614d3a565b9150614d838284614d3a565b91508190509392505050565b7f496e76616c696420726563697069656e74206164647265737300000000000000600082015250565b6000614dc5601983613726565b9150614dd082614d8f565b602082019050919050565b60006020820190508181036000830152614df481614db8565b9050919050565b7f546f6b656e205552492063616e6e6f7420626520656d70747900000000000000600082015250565b6000614e31601983613726565b9150614e3c82614dfb565b602082019050919050565b60006020820190508181036000830152614e6081614e24565b9050919050565b6000606082019050614e7c6000830186613a79565b614e896020830185613862565b8181036040830152614e9b8184613772565b9050949350505050565b7f4f776e61626c653a206e6577206f776e657220697320746865207a65726f206160008201527f6464726573730000000000000000000000000000000000000000000000000000602082015250565b6000614f01602683613726565b9150614f0c82614ea5565b604082019050919050565b60006020820190508181036000830152614f3081614ef4565b9050919050565b6000606082019050614f4c6000830186613a79565b614f596020830185613862565b614f666040830184613862565b949350505050565b7f4552433732313a207472616e736665722063616c6c6572206973206e6f74206f60008201527f776e6572206e6f7220617070726f766564000000000000000000000000000000602082015250565b6000614fca603183613726565b9150614fd582614f6e565b604082019050919050565b60006020820190508181036000830152614ff981614fbd565b9050919050565b7f4552433732314d657461646174613a2055524920717565727920666f72206e6f60008201527f6e6578697374656e7420746f6b656e0000000000000000000000000000000000602082015250565b600061505c602f83613726565b915061506782615000565b604082019050919050565b6000602082019050818103600083015261508b8161504f565b9050919050565b7f4552433732313a206d696e7420746f20746865207a65726f2061646472657373600082015250565b60006150c8602083613726565b91506150d382615092565b602082019050919050565b600060208201905081810360008301526150f7816150bb565b9050919050565b7f4552433732313a20746f6b656e20616c7265616479206d696e74656400000000600082015250565b6000615134601c83613726565b915061513f826150fe565b602082019050919050565b6000602082019050818103600083015261516381615127565b9050919050565b7f45524337323155524953746f726167653a2055524920736574206f66206e6f6e60008201527f6578697374656e7420746f6b656e000000000000000000000000000000000000602082015250565b60006151c6602e83613726565b91506151d18261516a565b604082019050919050565b600060208201905081810360008301526151f5816151b9565b9050919050565b60008190508160005260206000209050919050565b60006020601f8301049050919050565b600082821b905092915050565b60006008830261525e7fffffffffffffffffffffffffffffffffffffffffffffffffffffffffffffffff82615221565b6152688683615221565b95508019841693508086168417925050509392505050565b600061529b615296615291846137cd565b614b95565b6137cd565b9050919050565b6000819050919050565b6152b583615280565b6152c96152c1826152a2565b84845461522e565b825550505050565b600090565b6152de6152d1565b6152e98184846152ac565b505050565b5b8181101561530d576153026000826152d6565b6001810190506152ef565b5050565b601f82111561535257615323816151fc565b61532c84615211565b8101602085101561533b578190505b61534f61534785615211565b8301826152ee565b50505b505050565b600082821c905092915050565b600061537560001984600802615357565b1980831691505092915050565b600061538e8383615364565b9150826002028217905092915050565b6153a78261371b565b67ffffffffffffffff8111156153c0576153bf613bcd565b5b6153ca8254613ee7565b6153d5828285615311565b600060209050601f83116001811461540857600084156153f6578287015190505b6154008582615382565b865550615468565b601f198416615416866151fc565b60005b8281101561543e57848901518255600182019150602085019450602081019050615419565b8683101561545b5784890151615457601f891682615364565b8355505b6001600288020188555050505b505050505050565b7f4552433732313a207472616e73666572206f6620746f6b656e2074686174206960008201527f73206e6f74206f776e0000000000000000000000000000000000000000000000602082015250565b60006154cc602983613726565b91506154d782615470565b604082019050919050565b600060208201905081810360008301526154fb816154bf565b9050919050565b7f4552433732313a207472616e7366657220746f20746865207a65726f2061646460008201527f7265737300000000000000000000000000000000000000000000000000000000602082015250565b600061555e602483613726565b915061556982615502565b604082019050919050565b6000602082019050818103600083015261558d81615551565b9050919050565b7f4552433732313a206f70657261746f7220717565727920666f72206e6f6e657860008201527f697374656e7420746f6b656e0000000000000000000000000000000000000000602082015250565b60006155f0602c83613726565b91506155fb82615594565b604082019050919050565b6000602082019050818103600083015261561f816155e3565b9050919050565b7f4552433732313a207472616e7366657220746f206e6f6e20455243373231526560008201527f63656976657220696d706c656d656e7465720000000000000000000000000000602082015250565b6000615682603283613726565b915061568d82615626565b604082019050919050565b600060208201905081810360008301526156b181615675565b9050919050565b7f4e487b7100000000000000000000000000000000000000000000000000000000600052601260045260246000fd5b60006156f2826137cd565b91506156fd836137cd565b92508261570d5761570c6156b8565b5b828204905092915050565b6000615723826137cd565b915061572e836137cd565b92508261573e5761573d6156b8565b5b828206905092915050565b600081519050919050565b600082825260208201905092915050565b600061577082615749565b61577a8185615754565b935061578a818560208601613737565b61579381613761565b840191505092915050565b60006080820190506157b36000830187613862565b6157c06020830186613862565b6157cd6040830185613a79565b81810360608301526157df8184615765565b905095945050505050565b6000815190506157f98161368c565b92915050565b60006020828403121561581557615814613656565b5b6000615823848285016157ea565b9150509291505056fea2646970667358221220c1694cf16ad4e43f9a276ad51d60e3524a1e39e00e45859d1aa6606cae5ce2b264736f6c63430008130033",
  "immutableReferences": {},
  "source": "// SPDX-License-Identifier: MIT\npragma solidity ^0.8.19;\n\nimport \"@openzeppelin/contracts/token/ERC721/extensions/ERC721URIStorage.sol\";\nimport \"@openzeppelin/contracts/access/Ownable.sol\";\nimport \"@openzeppelin/contracts/security/ReentrancyGuard.sol\";\n\ncontract NFTennis is ERC721URIStorage, Ownable, ReentrancyGuard {\n    uint256 public tokenCounter;\n    uint256[] public activeAuctions; // Array che tiene traccia delle aste attive\n\n    struct Auction {\n        address payable seller;\n        uint256 highestBid;\n        address payable highestBidder;\n        bool open;\n        uint256 endTime;\n        uint256 buyNowPrice;\n    }\n\n    mapping(uint256 => Auction) public auctions;\n    mapping(address => uint256[]) private ownedTokens; // Mappatura degli indirizzi ai loro NFT\n\n    event NFTMinted(uint256 tokenId, address recipient, string tokenURI);\n    event AuctionStarted(uint256 tokenId, address seller, uint256 endTime, uint256 buyNowPrice);\n    event NewBid(uint256 tokenId, address bidder, uint256 bidAmount);\n    event AuctionEnded(uint256 tokenId, address winner, uint256 winningBid);\n    event NFTBought(uint256 tokenId, address buyer, uint256 price);\n    event TokenTransferred(uint256 tokenId, address from, address to);\n\n    constructor() ERC721(\"NFTennis\", \"NFTN\") {\n        tokenCounter = 0;\n    }\n\n    function mintNFT(address recipient, string memory tokenURI) public onlyOwner {\n        require(recipient != address(0), \"Invalid recipient address\");\n        require(bytes(tokenURI).length > 0, \"Token URI cannot be empty\");\n\n        uint256 tokenId = tokenCounter;\n        _mint(recipient, tokenId);\n        _setTokenURI(tokenId, tokenURI);\n        tokenCounter += 1;\n\n        // Aggiornamento della mappatura dei token posseduti\n        ownedTokens[recipient].push(tokenId);\n\n        emit NFTMinted(tokenId, recipient, tokenURI);\n    }\n\n    // Funzione per gestire il trasferimento e aggiornare ownedTokens\n    function _transferToken(address from, address to, uint256 tokenId) internal {\n        // Rimuovi il token dalla lista del mittente\n        uint256[] storage fromTokens = ownedTokens[from];\n        for (uint256 i = 0; i < fromTokens.length; i++) {\n            if (fromTokens[i] == tokenId) {\n                // Sposta l'ultimo elemento nella posizione corrente\n                fromTokens[i] = fromTokens[fromTokens.length - 1];\n                // Rimuovi l'ultimo elemento\n                fromTokens.pop();\n                break;\n            }\n        }\n\n        // Aggiungi il token alla lista del destinatario\n        ownedTokens[to].push(tokenId);\n        \n        // Esegui il trasferimento standard ERC721\n        _transfer(from, to, tokenId);\n        \n        emit TokenTransferred(tokenId, from, to);\n    }\n\n    function startAuction(uint256 tokenId, uint256 duration, uint256 buyNowPrice) public {\n        require(ownerOf(tokenId) == msg.sender, \"Only the owner can start an auction\");\n        require(!auctions[tokenId].open, \"Auction already open for this token\");\n        require(duration > 0, \"Auction duration must be greater than zero\");\n        require(buyNowPrice > 0, \"Buy now price must be greater than zero\");\n\n        auctions[tokenId] = Auction({\n            seller: payable(msg.sender),\n            highestBid: 0,\n            highestBidder: payable(address(0)),\n            open: true,\n            endTime: block.timestamp + duration,\n            buyNowPrice: buyNowPrice\n        });\n\n        // Aggiungi l'ID dell'asta all'array activeAuctions\n        activeAuctions.push(tokenId);\n\n        emit AuctionStarted(tokenId, msg.sender, auctions[tokenId].endTime, buyNowPrice);\n    }\n\n    function bid(uint256 tokenId) public payable nonReentrant {\n        Auction storage currentAuction = auctions[tokenId];\n\n        // Check if the auction has expired\n        if (block.timestamp >= currentAuction.endTime) {\n            // If expired, close the auction automatically\n            endAuction(tokenId);\n            revert(\"Auction has already ended\");\n        }\n\n        require(currentAuction.open, \"Auction is closed\");\n        require(msg.value > currentAuction.highestBid, \"Bid must be higher than the current highest bid\");\n        require(msg.value <= currentAuction.buyNowPrice, \"Bid exceeds the buy now price\");\n        require(msg.sender != currentAuction.seller, \"Seller cannot bid\");\n\n        // Refund previous highest bidder\n        if (currentAuction.highestBidder != address(0)) {\n            (bool success, ) = currentAuction.highestBidder.call{value: currentAuction.highestBid}(\"\");\n            require(success, \"Failed to refund previous bidder\");\n        }\n\n        currentAuction.highestBid = msg.value;\n        currentAuction.highestBidder = payable(msg.sender);\n\n        emit NewBid(tokenId, msg.sender, msg.value);\n\n        // If bid meets or exceeds the buy-now price, end the auction\n        if (currentAuction.highestBid >= currentAuction.buyNowPrice) {\n            endAuction(tokenId);\n        }\n    }\n\n    function buyNow(uint256 tokenId) public payable nonReentrant {\n        Auction storage currentAuction = auctions[tokenId];\n        require(currentAuction.open, \"Auction is closed\");\n        require(msg.value == currentAuction.buyNowPrice, \"Must pay the exact buy now price\");\n\n        // Refund previous highest bidder\n        if (currentAuction.highestBidder != address(0)) {\n            (bool success, ) = currentAuction.highestBidder.call{value: currentAuction.highestBid}(\"\");\n            require(success, \"Failed to refund previous bidder\");\n        }\n\n        // Chiudi l'asta prima di eseguire il trasferimento\n        currentAuction.open = false;\n\n        // Trasferisci l'NFT al compratore usando _transferToken\n        _transferToken(currentAuction.seller, msg.sender, tokenId);\n\n        // Trasferisci i fondi al venditore\n        (bool successSeller, ) = currentAuction.seller.call{value: msg.value}(\"\");\n        require(successSeller, \"Failed to transfer funds to seller\");\n\n        // Rimuovi l'asta dall'elenco delle aste attive\n        for (uint256 i = 0; i < activeAuctions.length; i++) {\n            if (activeAuctions[i] == tokenId) {\n                activeAuctions[i] = activeAuctions[activeAuctions.length - 1]; // Move the last element to current position\n                activeAuctions.pop(); // Remove the last element\n                break;\n            }\n        }\n\n        emit NFTBought(tokenId, msg.sender, msg.value);\n    }\n\n    function endAuction(uint256 tokenId) public nonReentrant {\n        Auction storage currentAuction = auctions[tokenId];\n        require(currentAuction.open, \"Auction is already closed\");\n\n        // Chiudere l'asta prima di effettuare altre operazioni\n        currentAuction.open = false;\n\n        // Se c' un offerente vincitore\n        if (currentAuction.highestBidder != address(0)) {\n            // Trasferire l'NFT all'offerente vincitore usando _transferToken\n            _transferToken(currentAuction.seller, currentAuction.highestBidder, tokenId);\n\n            // Trasferire i fondi al venditore\n            (bool success, ) = currentAuction.seller.call{value: currentAuction.highestBid}(\"\");\n            require(success, \"Failed to transfer funds to seller\");\n\n            emit AuctionEnded(tokenId, currentAuction.highestBidder, currentAuction.highestBid);\n        } else {\n            // Nessun offerente: l'NFT rimane al venditore\n            emit AuctionEnded(tokenId, address(0), 0);\n        }\n\n        // Rimuovere l'asta dall'elenco delle aste attive\n        for (uint256 i = 0; i < activeAuctions.length; i++) {\n            if (activeAuctions[i] == tokenId) {\n                activeAuctions[i] = activeAuctions[activeAuctions.length - 1]; // Sostituire con l'ultimo elemento\n                activeAuctions.pop(); // Rimuovere l'ultimo elemento\n                break;\n            }\n        }\n    }\n\n    // Override di transferFrom per aggiornare ownedTokens\n    function transferFrom(address from, address to, uint256 tokenId) public override {\n        super.transferFrom(from, to, tokenId);\n        \n        // Aggiorna la mappatura ownedTokens\n        uint256[] storage fromTokens = ownedTokens[from];\n        for (uint256 i = 0; i < fromTokens.length; i++) {\n            if (fromTokens[i] == tokenId) {\n                fromTokens[i] = fromTokens[fromTokens.length - 1];\n                fromTokens.pop();\n                break;\n            }\n        }\n        \n        ownedTokens[to].push(tokenId);\n    }\n    \n    // Override di safeTransferFrom per aggiornare ownedTokens\n    function safeTransferFrom(address from, address to, uint256 tokenId) public override {\n        super.safeTransferFrom(from, to, tokenId);\n        \n        // Aggiorna la mappatura ownedTokens\n        uint256[] storage fromTokens = ownedTokens[from];\n        for (uint256 i = 0; i < fromTokens.length; i++) {\n            if (fromTokens[i] == tokenId) {\n                fromTokens[i] = fromTokens[fromTokens.length - 1];\n                fromTokens.pop();\n                break;\n            }\n        }\n        \n        ownedTokens[to].push(tokenId);\n    }\n    \n    // Override di safeTransferFrom (con data) per aggiornare ownedTokens\n    function safeTransferFrom(address from, address to, uint256 tokenId, bytes memory data) public override {\n        super.safeTransferFrom(from, to, tokenId, data);\n        \n        // Aggiorna la mappatura ownedTokens\n        uint256[] storage fromTokens = ownedTokens[from];\n        for (uint256 i = 0; i < fromTokens.length; i++) {\n            if (fromTokens[i] == tokenId) {\n                fromTokens[i] = fromTokens[fromTokens.length - 1];\n                fromTokens.pop();\n                break;\n            }\n        }\n        \n        ownedTokens[to].push(tokenId);\n    }\n\n    // Funzione per ottenere gli NFT posseduti da un indirizzo\n    function getOwnedNFTs(address owner) public view returns (uint256[] memory) {\n        return ownedTokens[owner];\n    }\n\n    // Funzione per ottenere gli ID delle aste attive\n    function getActiveAuctions() public view returns (uint256[] memory) {\n        return activeAuctions;\n    }\n}",
  "sourcePath": "/Users/massimo/NFTennis/backend/smart-contracts/contracts/NFTennis.sol",
  "compiler": {
    "name": "solc",
    "version": "0.8.19+commit.7dd6d404.Emscripten.clang"
  },
  "schemaVersion": "3.4.16",
  "updatedAt": "2025-02-27T11:23:13.119Z",
  "networkType": "ethereum",
  "devdoc": {
    "events": {
      "Approval(address,address,uint256)": {
        "details": "Emitted when `owner` enables `approved` to manage the `tokenId` token."
      },
      "ApprovalForAll(address,address,bool)": {
        "details": "Emitted when `owner` enables or disables (`approved`) `operator` to manage all of its assets."
      },
      "Transfer(address,address,uint256)": {
        "details": "Emitted when `tokenId` token is transferred from `from` to `to`."
      }
    },
    "kind": "dev",
    "methods": {
      "approve(address,uint256)": {
        "details": "See {IERC721-approve}."
      },
      "balanceOf(address)": {
        "details": "See {IERC721-balanceOf}."
      },
      "getApproved(uint256)": {
        "details": "See {IERC721-getApproved}."
      },
      "isApprovedForAll(address,address)": {
        "details": "See {IERC721-isApprovedForAll}."
      },
      "name()": {
        "details": "See {IERC721Metadata-name}."
      },
      "owner()": {
        "details": "Returns the address of the current owner."
      },
      "ownerOf(uint256)": {
        "details": "See {IERC721-ownerOf}."
      },
      "renounceOwnership()": {
        "details": "Leaves the contract without owner. It will not be possible to call `onlyOwner` functions anymore. Can only be called by the current owner. NOTE: Renouncing ownership will leave the contract without an owner, thereby removing any functionality that is only available to the owner."
      },
      "safeTransferFrom(address,address,uint256)": {
        "details": "See {IERC721-safeTransferFrom}."
      },
      "setApprovalForAll(address,bool)": {
        "details": "See {IERC721-setApprovalForAll}."
      },
      "supportsInterface(bytes4)": {
        "details": "See {IERC165-supportsInterface}."
      },
      "symbol()": {
        "details": "See {IERC721Metadata-symbol}."
      },
      "tokenURI(uint256)": {
        "details": "See {IERC721Metadata-tokenURI}."
      },
      "transferFrom(address,address,uint256)": {
        "details": "See {IERC721-transferFrom}."
      },
      "transferOwnership(address)": {
        "details": "Transfers ownership of the contract to a new account (`newOwner`). Can only be called by the current owner."
      }
    },
    "version": 1
  },
  "userdoc": {
    "kind": "user",
    "methods": {},
    "version": 1
  }
}