{
  "contractName": "NFTennis",
  "abi": [
    {
      "inputs": [],
      "stateMutability": "nonpayable",
      "type": "constructor"
    },
    {
      "anonymous": false,
      "inputs": [
        {
          "indexed": true,
          "internalType": "address",
          "name": "owner",
          "type": "address"
        },
        {
          "indexed": true,
          "internalType": "address",
          "name": "approved",
          "type": "address"
        },
        {
          "indexed": true,
          "internalType": "uint256",
          "name": "tokenId",
          "type": "uint256"
        }
      ],
      "name": "Approval",
      "type": "event"
    },
    {
      "anonymous": false,
      "inputs": [
        {
          "indexed": true,
          "internalType": "address",
          "name": "owner",
          "type": "address"
        },
        {
          "indexed": true,
          "internalType": "address",
          "name": "operator",
          "type": "address"
        },
        {
          "indexed": false,
          "internalType": "bool",
          "name": "approved",
          "type": "bool"
        }
      ],
      "name": "ApprovalForAll",
      "type": "event"
    },
    {
      "anonymous": false,
      "inputs": [
        {
          "indexed": false,
          "internalType": "uint256",
          "name": "tokenId",
          "type": "uint256"
        },
        {
          "indexed": false,
          "internalType": "address",
          "name": "winner",
          "type": "address"
        },
        {
          "indexed": false,
          "internalType": "uint256",
          "name": "winningBid",
          "type": "uint256"
        }
      ],
      "name": "AuctionEnded",
      "type": "event"
    },
    {
      "anonymous": false,
      "inputs": [
        {
          "indexed": false,
          "internalType": "uint256",
          "name": "tokenId",
          "type": "uint256"
        },
        {
          "indexed": false,
          "internalType": "address",
          "name": "seller",
          "type": "address"
        },
        {
          "indexed": false,
          "internalType": "uint256",
          "name": "endTime",
          "type": "uint256"
        }
      ],
      "name": "AuctionStarted",
      "type": "event"
    },
    {
      "anonymous": false,
      "inputs": [
        {
          "indexed": false,
          "internalType": "uint256",
          "name": "tokenId",
          "type": "uint256"
        },
        {
          "indexed": false,
          "internalType": "address",
          "name": "recipient",
          "type": "address"
        },
        {
          "indexed": false,
          "internalType": "string",
          "name": "tokenURI",
          "type": "string"
        }
      ],
      "name": "NFTMinted",
      "type": "event"
    },
    {
      "anonymous": false,
      "inputs": [
        {
          "indexed": false,
          "internalType": "uint256",
          "name": "tokenId",
          "type": "uint256"
        },
        {
          "indexed": false,
          "internalType": "address",
          "name": "bidder",
          "type": "address"
        },
        {
          "indexed": false,
          "internalType": "uint256",
          "name": "bidAmount",
          "type": "uint256"
        }
      ],
      "name": "NewBid",
      "type": "event"
    },
    {
      "anonymous": false,
      "inputs": [
        {
          "indexed": true,
          "internalType": "address",
          "name": "previousOwner",
          "type": "address"
        },
        {
          "indexed": true,
          "internalType": "address",
          "name": "newOwner",
          "type": "address"
        }
      ],
      "name": "OwnershipTransferred",
      "type": "event"
    },
    {
      "anonymous": false,
      "inputs": [
        {
          "indexed": true,
          "internalType": "address",
          "name": "from",
          "type": "address"
        },
        {
          "indexed": true,
          "internalType": "address",
          "name": "to",
          "type": "address"
        },
        {
          "indexed": true,
          "internalType": "uint256",
          "name": "tokenId",
          "type": "uint256"
        }
      ],
      "name": "Transfer",
      "type": "event"
    },
    {
      "inputs": [
        {
          "internalType": "address",
          "name": "to",
          "type": "address"
        },
        {
          "internalType": "uint256",
          "name": "tokenId",
          "type": "uint256"
        }
      ],
      "name": "approve",
      "outputs": [],
      "stateMutability": "nonpayable",
      "type": "function"
    },
    {
      "inputs": [
        {
          "internalType": "uint256",
          "name": "",
          "type": "uint256"
        }
      ],
      "name": "auctions",
      "outputs": [
        {
          "internalType": "address payable",
          "name": "seller",
          "type": "address"
        },
        {
          "internalType": "uint256",
          "name": "highestBid",
          "type": "uint256"
        },
        {
          "internalType": "address payable",
          "name": "highestBidder",
          "type": "address"
        },
        {
          "internalType": "bool",
          "name": "open",
          "type": "bool"
        },
        {
          "internalType": "uint256",
          "name": "endTime",
          "type": "uint256"
        }
      ],
      "stateMutability": "view",
      "type": "function",
      "constant": true
    },
    {
      "inputs": [
        {
          "internalType": "address",
          "name": "owner",
          "type": "address"
        }
      ],
      "name": "balanceOf",
      "outputs": [
        {
          "internalType": "uint256",
          "name": "",
          "type": "uint256"
        }
      ],
      "stateMutability": "view",
      "type": "function",
      "constant": true
    },
    {
      "inputs": [
        {
          "internalType": "uint256",
          "name": "tokenId",
          "type": "uint256"
        }
      ],
      "name": "getApproved",
      "outputs": [
        {
          "internalType": "address",
          "name": "",
          "type": "address"
        }
      ],
      "stateMutability": "view",
      "type": "function",
      "constant": true
    },
    {
      "inputs": [
        {
          "internalType": "address",
          "name": "owner",
          "type": "address"
        },
        {
          "internalType": "address",
          "name": "operator",
          "type": "address"
        }
      ],
      "name": "isApprovedForAll",
      "outputs": [
        {
          "internalType": "bool",
          "name": "",
          "type": "bool"
        }
      ],
      "stateMutability": "view",
      "type": "function",
      "constant": true
    },
    {
      "inputs": [],
      "name": "name",
      "outputs": [
        {
          "internalType": "string",
          "name": "",
          "type": "string"
        }
      ],
      "stateMutability": "view",
      "type": "function",
      "constant": true
    },
    {
      "inputs": [],
      "name": "owner",
      "outputs": [
        {
          "internalType": "address",
          "name": "",
          "type": "address"
        }
      ],
      "stateMutability": "view",
      "type": "function",
      "constant": true
    },
    {
      "inputs": [
        {
          "internalType": "uint256",
          "name": "tokenId",
          "type": "uint256"
        }
      ],
      "name": "ownerOf",
      "outputs": [
        {
          "internalType": "address",
          "name": "",
          "type": "address"
        }
      ],
      "stateMutability": "view",
      "type": "function",
      "constant": true
    },
    {
      "inputs": [],
      "name": "renounceOwnership",
      "outputs": [],
      "stateMutability": "nonpayable",
      "type": "function"
    },
    {
      "inputs": [
        {
          "internalType": "address",
          "name": "from",
          "type": "address"
        },
        {
          "internalType": "address",
          "name": "to",
          "type": "address"
        },
        {
          "internalType": "uint256",
          "name": "tokenId",
          "type": "uint256"
        }
      ],
      "name": "safeTransferFrom",
      "outputs": [],
      "stateMutability": "nonpayable",
      "type": "function"
    },
    {
      "inputs": [
        {
          "internalType": "address",
          "name": "from",
          "type": "address"
        },
        {
          "internalType": "address",
          "name": "to",
          "type": "address"
        },
        {
          "internalType": "uint256",
          "name": "tokenId",
          "type": "uint256"
        },
        {
          "internalType": "bytes",
          "name": "_data",
          "type": "bytes"
        }
      ],
      "name": "safeTransferFrom",
      "outputs": [],
      "stateMutability": "nonpayable",
      "type": "function"
    },
    {
      "inputs": [
        {
          "internalType": "address",
          "name": "operator",
          "type": "address"
        },
        {
          "internalType": "bool",
          "name": "approved",
          "type": "bool"
        }
      ],
      "name": "setApprovalForAll",
      "outputs": [],
      "stateMutability": "nonpayable",
      "type": "function"
    },
    {
      "inputs": [
        {
          "internalType": "bytes4",
          "name": "interfaceId",
          "type": "bytes4"
        }
      ],
      "name": "supportsInterface",
      "outputs": [
        {
          "internalType": "bool",
          "name": "",
          "type": "bool"
        }
      ],
      "stateMutability": "view",
      "type": "function",
      "constant": true
    },
    {
      "inputs": [],
      "name": "symbol",
      "outputs": [
        {
          "internalType": "string",
          "name": "",
          "type": "string"
        }
      ],
      "stateMutability": "view",
      "type": "function",
      "constant": true
    },
    {
      "inputs": [],
      "name": "tokenCounter",
      "outputs": [
        {
          "internalType": "uint256",
          "name": "",
          "type": "uint256"
        }
      ],
      "stateMutability": "view",
      "type": "function",
      "constant": true
    },
    {
      "inputs": [
        {
          "internalType": "uint256",
          "name": "tokenId",
          "type": "uint256"
        }
      ],
      "name": "tokenURI",
      "outputs": [
        {
          "internalType": "string",
          "name": "",
          "type": "string"
        }
      ],
      "stateMutability": "view",
      "type": "function",
      "constant": true
    },
    {
      "inputs": [
        {
          "internalType": "address",
          "name": "from",
          "type": "address"
        },
        {
          "internalType": "address",
          "name": "to",
          "type": "address"
        },
        {
          "internalType": "uint256",
          "name": "tokenId",
          "type": "uint256"
        }
      ],
      "name": "transferFrom",
      "outputs": [],
      "stateMutability": "nonpayable",
      "type": "function"
    },
    {
      "inputs": [
        {
          "internalType": "address",
          "name": "newOwner",
          "type": "address"
        }
      ],
      "name": "transferOwnership",
      "outputs": [],
      "stateMutability": "nonpayable",
      "type": "function"
    },
    {
      "inputs": [
        {
          "internalType": "address",
          "name": "recipient",
          "type": "address"
        },
        {
          "internalType": "string",
          "name": "tokenURI",
          "type": "string"
        }
      ],
      "name": "mintNFT",
      "outputs": [],
      "stateMutability": "nonpayable",
      "type": "function"
    },
    {
      "inputs": [
        {
          "internalType": "uint256",
          "name": "tokenId",
          "type": "uint256"
        },
        {
          "internalType": "uint256",
          "name": "duration",
          "type": "uint256"
        }
      ],
      "name": "startAuction",
      "outputs": [],
      "stateMutability": "nonpayable",
      "type": "function"
    },
    {
      "inputs": [
        {
          "internalType": "uint256",
          "name": "tokenId",
          "type": "uint256"
        }
      ],
      "name": "bid",
      "outputs": [],
      "stateMutability": "payable",
      "type": "function",
      "payable": true
    },
    {
      "inputs": [
        {
          "internalType": "uint256",
          "name": "tokenId",
          "type": "uint256"
        }
      ],
      "name": "endAuction",
      "outputs": [],
      "stateMutability": "nonpayable",
      "type": "function"
    },
    {
      "inputs": [
        {
          "internalType": "uint256",
          "name": "tokenId",
          "type": "uint256"
        }
      ],
      "name": "cancelAuction",
      "outputs": [],
      "stateMutability": "nonpayable",
      "type": "function"
    }
  ],
  "bytecode": "0x60806040523480156200001157600080fd5b506040518060400160405280600881526020017f4e4654656e6e69730000000000000000000000000000000000000000000000008152506040518060400160405280600481526020017f4e46544e0000000000000000000000000000000000000000000000000000000081525081600090816200008f91906200041a565b508060019081620000a191906200041a565b505050620000c4620000b8620000d260201b60201c565b620000da60201b60201c565b600060088190555062000501565b600033905090565b6000600760009054906101000a900473ffffffffffffffffffffffffffffffffffffffff16905081600760006101000a81548173ffffffffffffffffffffffffffffffffffffffff021916908373ffffffffffffffffffffffffffffffffffffffff1602179055508173ffffffffffffffffffffffffffffffffffffffff168173ffffffffffffffffffffffffffffffffffffffff167f8be0079c531659141344cd1fd0a4f28419497f9722a3daafe3b4186f6b6457e060405160405180910390a35050565b600081519050919050565b7f4e487b7100000000000000000000000000000000000000000000000000000000600052604160045260246000fd5b7f4e487b7100000000000000000000000000000000000000000000000000000000600052602260045260246000fd5b600060028204905060018216806200022257607f821691505b602082108103620002385762000237620001da565b5b50919050565b60008190508160005260206000209050919050565b60006020601f8301049050919050565b600082821b905092915050565b600060088302620002a27fffffffffffffffffffffffffffffffffffffffffffffffffffffffffffffffff8262000263565b620002ae868362000263565b95508019841693508086168417925050509392505050565b6000819050919050565b6000819050919050565b6000620002fb620002f5620002ef84620002c6565b620002d0565b620002c6565b9050919050565b6000819050919050565b6200031783620002da565b6200032f620003268262000302565b84845462000270565b825550505050565b600090565b6200034662000337565b620003538184846200030c565b505050565b5b818110156200037b576200036f6000826200033c565b60018101905062000359565b5050565b601f821115620003ca5762000394816200023e565b6200039f8462000253565b81016020851015620003af578190505b620003c7620003be8562000253565b83018262000358565b50505b505050565b600082821c905092915050565b6000620003ef60001984600802620003cf565b1980831691505092915050565b60006200040a8383620003dc565b9150826002028217905092915050565b6200042582620001a0565b67ffffffffffffffff811115620004415762000440620001ab565b5b6200044d825462000209565b6200045a8282856200037f565b600060209050601f8311600181146200049257600084156200047d578287015190505b620004898582620003fc565b865550620004f9565b601f198416620004a2866200023e565b60005b82811015620004cc57848901518255600182019150602085019450602081019050620004a5565b86831015620004ec5784890151620004e8601f891682620003dc565b8355505b6001600288020188555050505b505050505050565b6148d980620005116000396000f3fe6080604052600436106101405760003560e01c8063715018a6116100b6578063b9a2de3a1161006f578063b9a2de3a1461044d578063c87b56dd14610476578063d082e381146104b3578063e985e9c5146104de578063eacabe141461051b578063f2fde38b1461054457610140565b8063715018a6146103655780638da5cb5b1461037c57806395d89b41146103a757806396b5a755146103d2578063a22cb465146103fb578063b88d4fde1461042457610140565b806342842e0e1161010857806342842e0e1461023c578063454a2ab3146102655780634fee13fc14610281578063571a26a0146102aa5780636352211e146102eb57806370a082311461032857610140565b806301ffc9a71461014557806306fdde0314610182578063081812fc146101ad578063095ea7b3146101ea57806323b872dd14610213575b600080fd5b34801561015157600080fd5b5061016c60048036038101906101679190612921565b61056d565b6040516101799190612969565b60405180910390f35b34801561018e57600080fd5b5061019761064f565b6040516101a49190612a14565b60405180910390f35b3480156101b957600080fd5b506101d460048036038101906101cf9190612a6c565b6106e1565b6040516101e19190612ada565b60405180910390f35b3480156101f657600080fd5b50610211600480360381019061020c9190612b21565b610766565b005b34801561021f57600080fd5b5061023a60048036038101906102359190612b61565b61087d565b005b34801561024857600080fd5b50610263600480360381019061025e9190612b61565b6108dd565b005b61027f600480360381019061027a9190612a6c565b6108fd565b005b34801561028d57600080fd5b506102a860048036038101906102a39190612bb4565b610baa565b005b3480156102b657600080fd5b506102d160048036038101906102cc9190612a6c565b610e57565b6040516102e2959493929190612c24565b60405180910390f35b3480156102f757600080fd5b50610312600480360381019061030d9190612a6c565b610eda565b60405161031f9190612ada565b60405180910390f35b34801561033457600080fd5b5061034f600480360381019061034a9190612c77565b610f8b565b60405161035c9190612ca4565b60405180910390f35b34801561037157600080fd5b5061037a611042565b005b34801561038857600080fd5b506103916110ca565b60405161039e9190612ada565b60405180910390f35b3480156103b357600080fd5b506103bc6110f4565b6040516103c99190612a14565b60405180910390f35b3480156103de57600080fd5b506103f960048036038101906103f49190612a6c565b611186565b005b34801561040757600080fd5b50610422600480360381019061041d9190612ceb565b6112dd565b005b34801561043057600080fd5b5061044b60048036038101906104469190612e60565b61145d565b005b34801561045957600080fd5b50610474600480360381019061046f9190612a6c565b6114bf565b005b34801561048257600080fd5b5061049d60048036038101906104989190612a6c565b611846565b6040516104aa9190612a14565b60405180910390f35b3480156104bf57600080fd5b506104c8611997565b6040516104d59190612ca4565b60405180910390f35b3480156104ea57600080fd5b5061050560048036038101906105009190612ee3565b61199d565b6040516105129190612969565b60405180910390f35b34801561052757600080fd5b50610542600480360381019061053d9190612fc4565b611a31565b005b34801561055057600080fd5b5061056b60048036038101906105669190612c77565b611bd5565b005b60007f80ac58cd000000000000000000000000000000000000000000000000000000007bffffffffffffffffffffffffffffffffffffffffffffffffffffffff1916827bffffffffffffffffffffffffffffffffffffffffffffffffffffffff1916148061063857507f5b5e139f000000000000000000000000000000000000000000000000000000007bffffffffffffffffffffffffffffffffffffffffffffffffffffffff1916827bffffffffffffffffffffffffffffffffffffffffffffffffffffffff1916145b80610648575061064782611ccc565b5b9050919050565b60606000805461065e9061304f565b80601f016020809104026020016040519081016040528092919081815260200182805461068a9061304f565b80156106d75780601f106106ac576101008083540402835291602001916106d7565b820191906000526020600020905b8154815290600101906020018083116106ba57829003601f168201915b5050505050905090565b60006106ec82611d36565b61072b576040517f08c379a0000000000000000000000000000000000000000000000000000000008152600401610722906130f2565b60405180910390fd5b6004600083815260200190815260200160002060009054906101000a900473ffffffffffffffffffffffffffffffffffffffff169050919050565b600061077182610eda565b90508073ffffffffffffffffffffffffffffffffffffffff168373ffffffffffffffffffffffffffffffffffffffff16036107e1576040517f08c379a00000000000000000000000000000000000000000000000000000000081526004016107d890613184565b60405180910390fd5b8073ffffffffffffffffffffffffffffffffffffffff16610800611da2565b73ffffffffffffffffffffffffffffffffffffffff16148061082f575061082e81610829611da2565b61199d565b5b61086e576040517f08c379a000000000000000000000000000000000000000000000000000000000815260040161086590613216565b60405180910390fd5b6108788383611daa565b505050565b61088e610888611da2565b82611e63565b6108cd576040517f08c379a00000000000000000000000000000000000000000000000000000000081526004016108c4906132a8565b60405180910390fd5b6108d8838383611f41565b505050565b6108f88383836040518060200160405280600081525061145d565b505050565b60006009600083815260200190815260200160002090508060020160149054906101000a900460ff16610965576040517f08c379a000000000000000000000000000000000000000000000000000000000815260040161095c90613314565b60405180910390fd5b806003015442106109ab576040517f08c379a00000000000000000000000000000000000000000000000000000000081526004016109a290613380565b60405180910390fd5b806001015434116109f1576040517f08c379a00000000000000000000000000000000000000000000000000000000081526004016109e890613412565b60405180910390fd5b600073ffffffffffffffffffffffffffffffffffffffff168160020160009054906101000a900473ffffffffffffffffffffffffffffffffffffffff1673ffffffffffffffffffffffffffffffffffffffff1614610b1f5760008160020160009054906101000a900473ffffffffffffffffffffffffffffffffffffffff1673ffffffffffffffffffffffffffffffffffffffff168260010154604051610a9790613463565b60006040518083038185875af1925050503d8060008114610ad4576040519150601f19603f3d011682016040523d82523d6000602084013e610ad9565b606091505b5050905080610b1d576040517f08c379a0000000000000000000000000000000000000000000000000000000008152600401610b14906134c4565b60405180910390fd5b505b348160010181905550338160020160006101000a81548173ffffffffffffffffffffffffffffffffffffffff021916908373ffffffffffffffffffffffffffffffffffffffff1602179055507f558a0d5d5468d74b0db24c74eb348b42271c2ebb4c9e953ced38aaed95fa4361823334604051610b9e939291906134e4565b60405180910390a15050565b3373ffffffffffffffffffffffffffffffffffffffff16610bca83610eda565b73ffffffffffffffffffffffffffffffffffffffff1614610c20576040517f08c379a0000000000000000000000000000000000000000000000000000000008152600401610c179061358d565b60405180910390fd5b6009600083815260200190815260200160002060020160149054906101000a900460ff1615610c84576040517f08c379a0000000000000000000000000000000000000000000000000000000008152600401610c7b9061361f565b60405180910390fd5b60008111610cc7576040517f08c379a0000000000000000000000000000000000000000000000000000000008152600401610cbe906136b1565b60405180910390fd5b6040518060a001604052803373ffffffffffffffffffffffffffffffffffffffff16815260200160008152602001600073ffffffffffffffffffffffffffffffffffffffff1681526020016001151581526020018242610d279190613700565b8152506009600084815260200190815260200160002060008201518160000160006101000a81548173ffffffffffffffffffffffffffffffffffffffff021916908373ffffffffffffffffffffffffffffffffffffffff1602179055506020820151816001015560408201518160020160006101000a81548173ffffffffffffffffffffffffffffffffffffffff021916908373ffffffffffffffffffffffffffffffffffffffff16021790555060608201518160020160146101000a81548160ff021916908315150217905550608082015181600301559050507fd7d053b3d3fc9e8145896f8940adeb377f6735866f2161ef1660dae9f049247582336009600086815260200190815260200160002060030154604051610e4b939291906134e4565b60405180910390a15050565b60096020528060005260406000206000915090508060000160009054906101000a900473ffffffffffffffffffffffffffffffffffffffff16908060010154908060020160009054906101000a900473ffffffffffffffffffffffffffffffffffffffff16908060020160149054906101000a900460ff16908060030154905085565b6000806002600084815260200190815260200160002060009054906101000a900473ffffffffffffffffffffffffffffffffffffffff169050600073ffffffffffffffffffffffffffffffffffffffff168173ffffffffffffffffffffffffffffffffffffffff1603610f82576040517f08c379a0000000000000000000000000000000000000000000000000000000008152600401610f79906137a6565b60405180910390fd5b80915050919050565b60008073ffffffffffffffffffffffffffffffffffffffff168273ffffffffffffffffffffffffffffffffffffffff1603610ffb576040517f08c379a0000000000000000000000000000000000000000000000000000000008152600401610ff290613838565b60405180910390fd5b600360008373ffffffffffffffffffffffffffffffffffffffff1673ffffffffffffffffffffffffffffffffffffffff168152602001908152602001600020549050919050565b61104a611da2565b73ffffffffffffffffffffffffffffffffffffffff166110686110ca565b73ffffffffffffffffffffffffffffffffffffffff16146110be576040517f08c379a00000000000000000000000000000000000000000000000000000000081526004016110b5906138a4565b60405180910390fd5b6110c8600061219c565b565b6000600760009054906101000a900473ffffffffffffffffffffffffffffffffffffffff16905090565b6060600180546111039061304f565b80601f016020809104026020016040519081016040528092919081815260200182805461112f9061304f565b801561117c5780601f106111515761010080835404028352916020019161117c565b820191906000526020600020905b81548152906001019060200180831161115f57829003601f168201915b5050505050905090565b60006009600083815260200190815260200160002090508060020160149054906101000a900460ff166111ee576040517f08c379a00000000000000000000000000000000000000000000000000000000081526004016111e590613910565b60405180910390fd5b3373ffffffffffffffffffffffffffffffffffffffff168160000160009054906101000a900473ffffffffffffffffffffffffffffffffffffffff1673ffffffffffffffffffffffffffffffffffffffff1614611280576040517f08c379a0000000000000000000000000000000000000000000000000000000008152600401611277906139a2565b60405180910390fd5b60008160020160146101000a81548160ff0219169083151502179055507fd2aa34a4fdbbc6dff6a3e56f46e0f3ae2a31d7785ff3487aa5c95c642acea501826000806040516112d193929190613a07565b60405180910390a15050565b6112e5611da2565b73ffffffffffffffffffffffffffffffffffffffff168273ffffffffffffffffffffffffffffffffffffffff1603611352576040517f08c379a000000000000000000000000000000000000000000000000000000000815260040161134990613a8a565b60405180910390fd5b806005600061135f611da2565b73ffffffffffffffffffffffffffffffffffffffff1673ffffffffffffffffffffffffffffffffffffffff16815260200190815260200160002060008473ffffffffffffffffffffffffffffffffffffffff1673ffffffffffffffffffffffffffffffffffffffff16815260200190815260200160002060006101000a81548160ff0219169083151502179055508173ffffffffffffffffffffffffffffffffffffffff1661140c611da2565b73ffffffffffffffffffffffffffffffffffffffff167f17307eab39ab6107e8899845ad3d59bd9653f200f220920489ca2b5937696c31836040516114519190612969565b60405180910390a35050565b61146e611468611da2565b83611e63565b6114ad576040517f08c379a00000000000000000000000000000000000000000000000000000000081526004016114a4906132a8565b60405180910390fd5b6114b984848484612262565b50505050565b60006009600083815260200190815260200160002090508060020160149054906101000a900460ff16611527576040517f08c379a000000000000000000000000000000000000000000000000000000000815260040161151e90613af6565b60405180910390fd5b806003015442101561156e576040517f08c379a000000000000000000000000000000000000000000000000000000000815260040161156590613b62565b60405180910390fd5b3373ffffffffffffffffffffffffffffffffffffffff168160000160009054906101000a900473ffffffffffffffffffffffffffffffffffffffff1673ffffffffffffffffffffffffffffffffffffffff1614611600576040517f08c379a00000000000000000000000000000000000000000000000000000000081526004016115f790613bf4565b60405180910390fd5b60008160020160146101000a81548160ff021916908315150217905550600073ffffffffffffffffffffffffffffffffffffffff168160020160009054906101000a900473ffffffffffffffffffffffffffffffffffffffff1673ffffffffffffffffffffffffffffffffffffffff1614611805576116c88160000160009054906101000a900473ffffffffffffffffffffffffffffffffffffffff168260020160009054906101000a900473ffffffffffffffffffffffffffffffffffffffff1684611f41565b60008160000160009054906101000a900473ffffffffffffffffffffffffffffffffffffffff1673ffffffffffffffffffffffffffffffffffffffff16826001015460405161171690613463565b60006040518083038185875af1925050503d8060008114611753576040519150601f19603f3d011682016040523d82523d6000602084013e611758565b606091505b505090508061179c576040517f08c379a000000000000000000000000000000000000000000000000000000000815260040161179390613c86565b60405180910390fd5b7fd2aa34a4fdbbc6dff6a3e56f46e0f3ae2a31d7785ff3487aa5c95c642acea501838360020160009054906101000a900473ffffffffffffffffffffffffffffffffffffffff1684600101546040516117f793929190613cfb565b60405180910390a150611842565b7fd2aa34a4fdbbc6dff6a3e56f46e0f3ae2a31d7785ff3487aa5c95c642acea5018260008060405161183993929190613a07565b60405180910390a15b5050565b606061185182611d36565b611890576040517f08c379a000000000000000000000000000000000000000000000000000000000815260040161188790613da4565b60405180910390fd5b60006006600084815260200190815260200160002080546118b09061304f565b80601f01602080910402602001604051908101604052809291908181526020018280546118dc9061304f565b80156119295780601f106118fe57610100808354040283529160200191611929565b820191906000526020600020905b81548152906001019060200180831161190c57829003601f168201915b50505050509050600061193a6122be565b9050600081510361194f578192505050611992565b60008251111561198457808260405160200161196c929190613e00565b60405160208183030381529060405292505050611992565b61198d846122d5565b925050505b919050565b60085481565b6000600560008473ffffffffffffffffffffffffffffffffffffffff1673ffffffffffffffffffffffffffffffffffffffff16815260200190815260200160002060008373ffffffffffffffffffffffffffffffffffffffff1673ffffffffffffffffffffffffffffffffffffffff16815260200190815260200160002060009054906101000a900460ff16905092915050565b611a39611da2565b73ffffffffffffffffffffffffffffffffffffffff16611a576110ca565b73ffffffffffffffffffffffffffffffffffffffff1614611aad576040517f08c379a0000000000000000000000000000000000000000000000000000000008152600401611aa4906138a4565b60405180910390fd5b600073ffffffffffffffffffffffffffffffffffffffff168273ffffffffffffffffffffffffffffffffffffffff1603611b1c576040517f08c379a0000000000000000000000000000000000000000000000000000000008152600401611b1390613e70565b60405180910390fd5b6000815111611b60576040517f08c379a0000000000000000000000000000000000000000000000000000000008152600401611b5790613edc565b60405180910390fd5b60006008549050611b71838261237c565b611b7b8183612549565b600160086000828254611b8e9190613700565b925050819055507f06becd955c918828f6e985541acbf49cc842c9e9bd569fffc7698e721ef13575818484604051611bc893929190613efc565b60405180910390a1505050565b611bdd611da2565b73ffffffffffffffffffffffffffffffffffffffff16611bfb6110ca565b73ffffffffffffffffffffffffffffffffffffffff1614611c51576040517f08c379a0000000000000000000000000000000000000000000000000000000008152600401611c48906138a4565b60405180910390fd5b600073ffffffffffffffffffffffffffffffffffffffff168173ffffffffffffffffffffffffffffffffffffffff1603611cc0576040517f08c379a0000000000000000000000000000000000000000000000000000000008152600401611cb790613fac565b60405180910390fd5b611cc98161219c565b50565b60007f01ffc9a7000000000000000000000000000000000000000000000000000000007bffffffffffffffffffffffffffffffffffffffffffffffffffffffff1916827bffffffffffffffffffffffffffffffffffffffffffffffffffffffff1916149050919050565b60008073ffffffffffffffffffffffffffffffffffffffff166002600084815260200190815260200160002060009054906101000a900473ffffffffffffffffffffffffffffffffffffffff1673ffffffffffffffffffffffffffffffffffffffff1614159050919050565b600033905090565b816004600083815260200190815260200160002060006101000a81548173ffffffffffffffffffffffffffffffffffffffff021916908373ffffffffffffffffffffffffffffffffffffffff160217905550808273ffffffffffffffffffffffffffffffffffffffff16611e1d83610eda565b73ffffffffffffffffffffffffffffffffffffffff167f8c5be1e5ebec7d5bd14f71427d1e84f3dd0314c0f7b2291e5b200ac8c7c3b92560405160405180910390a45050565b6000611e6e82611d36565b611ead576040517f08c379a0000000000000000000000000000000000000000000000000000000008152600401611ea49061403e565b60405180910390fd5b6000611eb883610eda565b90508073ffffffffffffffffffffffffffffffffffffffff168473ffffffffffffffffffffffffffffffffffffffff161480611f2757508373ffffffffffffffffffffffffffffffffffffffff16611f0f846106e1565b73ffffffffffffffffffffffffffffffffffffffff16145b80611f385750611f37818561199d565b5b91505092915050565b8273ffffffffffffffffffffffffffffffffffffffff16611f6182610eda565b73ffffffffffffffffffffffffffffffffffffffff1614611fb7576040517f08c379a0000000000000000000000000000000000000000000000000000000008152600401611fae906140d0565b60405180910390fd5b600073ffffffffffffffffffffffffffffffffffffffff168273ffffffffffffffffffffffffffffffffffffffff1603612026576040517f08c379a000000000000000000000000000000000000000000000000000000000815260040161201d90614162565b60405180910390fd5b6120318383836125b6565b61203c600082611daa565b6001600360008573ffffffffffffffffffffffffffffffffffffffff1673ffffffffffffffffffffffffffffffffffffffff168152602001908152602001600020600082825461208c9190614182565b925050819055506001600360008473ffffffffffffffffffffffffffffffffffffffff1673ffffffffffffffffffffffffffffffffffffffff16815260200190815260200160002060008282546120e39190613700565b92505081905550816002600083815260200190815260200160002060006101000a81548173ffffffffffffffffffffffffffffffffffffffff021916908373ffffffffffffffffffffffffffffffffffffffff160217905550808273ffffffffffffffffffffffffffffffffffffffff168473ffffffffffffffffffffffffffffffffffffffff167fddf252ad1be2c89b69c2b068fc378daa952ba7f163c4a11628f55a4df523b3ef60405160405180910390a4505050565b6000600760009054906101000a900473ffffffffffffffffffffffffffffffffffffffff16905081600760006101000a81548173ffffffffffffffffffffffffffffffffffffffff021916908373ffffffffffffffffffffffffffffffffffffffff1602179055508173ffffffffffffffffffffffffffffffffffffffff168173ffffffffffffffffffffffffffffffffffffffff167f8be0079c531659141344cd1fd0a4f28419497f9722a3daafe3b4186f6b6457e060405160405180910390a35050565b61226d848484611f41565b612279848484846125bb565b6122b8576040517f08c379a00000000000000000000000000000000000000000000000000000000081526004016122af90614228565b60405180910390fd5b50505050565b606060405180602001604052806000815250905090565b60606122e082611d36565b61231f576040517f08c379a0000000000000000000000000000000000000000000000000000000008152600401612316906142ba565b60405180910390fd5b60006123296122be565b905060008151116123495760405180602001604052806000815250612374565b8061235384612742565b604051602001612364929190613e00565b6040516020818303038152906040525b915050919050565b600073ffffffffffffffffffffffffffffffffffffffff168273ffffffffffffffffffffffffffffffffffffffff16036123eb576040517f08c379a00000000000000000000000000000000000000000000000000000000081526004016123e290614326565b60405180910390fd5b6123f481611d36565b15612434576040517f08c379a000000000000000000000000000000000000000000000000000000000815260040161242b90614392565b60405180910390fd5b612440600083836125b6565b6001600360008473ffffffffffffffffffffffffffffffffffffffff1673ffffffffffffffffffffffffffffffffffffffff16815260200190815260200160002060008282546124909190613700565b92505081905550816002600083815260200190815260200160002060006101000a81548173ffffffffffffffffffffffffffffffffffffffff021916908373ffffffffffffffffffffffffffffffffffffffff160217905550808273ffffffffffffffffffffffffffffffffffffffff16600073ffffffffffffffffffffffffffffffffffffffff167fddf252ad1be2c89b69c2b068fc378daa952ba7f163c4a11628f55a4df523b3ef60405160405180910390a45050565b61255282611d36565b612591576040517f08c379a000000000000000000000000000000000000000000000000000000000815260040161258890614424565b60405180910390fd5b806006600084815260200190815260200160002090816125b191906145e6565b505050565b505050565b60006125dc8473ffffffffffffffffffffffffffffffffffffffff166128a2565b15612735578373ffffffffffffffffffffffffffffffffffffffff1663150b7a02612605611da2565b8786866040518563ffffffff1660e01b8152600401612627949392919061470d565b6020604051808303816000875af192505050801561266357506040513d601f19601f82011682018060405250810190612660919061476e565b60015b6126e5573d8060008114612693576040519150601f19603f3d011682016040523d82523d6000602084013e612698565b606091505b5060008151036126dd576040517f08c379a00000000000000000000000000000000000000000000000000000000081526004016126d490614228565b60405180910390fd5b805181602001fd5b63150b7a0260e01b7bffffffffffffffffffffffffffffffffffffffffffffffffffffffff1916817bffffffffffffffffffffffffffffffffffffffffffffffffffffffff19161491505061273a565b600190505b949350505050565b606060008203612789576040518060400160405280600181526020017f3000000000000000000000000000000000000000000000000000000000000000815250905061289d565b600082905060005b600082146127bb5780806127a49061479b565b915050600a826127b49190614812565b9150612791565b60008167ffffffffffffffff8111156127d7576127d6612d35565b5b6040519080825280601f01601f1916602001820160405280156128095781602001600182028036833780820191505090505b5090505b60008514612896576001826128229190614182565b9150600a856128319190614843565b603061283d9190613700565b60f81b81838151811061285357612852614874565b5b60200101907effffffffffffffffffffffffffffffffffffffffffffffffffffffffffffff1916908160001a905350600a8561288f9190614812565b945061280d565b8093505050505b919050565b600080823b905060008111915050919050565b6000604051905090565b600080fd5b600080fd5b60007fffffffff0000000000000000000000000000000000000000000000000000000082169050919050565b6128fe816128c9565b811461290957600080fd5b50565b60008135905061291b816128f5565b92915050565b600060208284031215612937576129366128bf565b5b60006129458482850161290c565b91505092915050565b60008115159050919050565b6129638161294e565b82525050565b600060208201905061297e600083018461295a565b92915050565b600081519050919050565b600082825260208201905092915050565b60005b838110156129be5780820151818401526020810190506129a3565b60008484015250505050565b6000601f19601f8301169050919050565b60006129e682612984565b6129f0818561298f565b9350612a008185602086016129a0565b612a09816129ca565b840191505092915050565b60006020820190508181036000830152612a2e81846129db565b905092915050565b6000819050919050565b612a4981612a36565b8114612a5457600080fd5b50565b600081359050612a6681612a40565b92915050565b600060208284031215612a8257612a816128bf565b5b6000612a9084828501612a57565b91505092915050565b600073ffffffffffffffffffffffffffffffffffffffff82169050919050565b6000612ac482612a99565b9050919050565b612ad481612ab9565b82525050565b6000602082019050612aef6000830184612acb565b92915050565b612afe81612ab9565b8114612b0957600080fd5b50565b600081359050612b1b81612af5565b92915050565b60008060408385031215612b3857612b376128bf565b5b6000612b4685828601612b0c565b9250506020612b5785828601612a57565b9150509250929050565b600080600060608486031215612b7a57612b796128bf565b5b6000612b8886828701612b0c565b9350506020612b9986828701612b0c565b9250506040612baa86828701612a57565b9150509250925092565b60008060408385031215612bcb57612bca6128bf565b5b6000612bd985828601612a57565b9250506020612bea85828601612a57565b9150509250929050565b6000612bff82612a99565b9050919050565b612c0f81612bf4565b82525050565b612c1e81612a36565b82525050565b600060a082019050612c396000830188612c06565b612c466020830187612c15565b612c536040830186612c06565b612c60606083018561295a565b612c6d6080830184612c15565b9695505050505050565b600060208284031215612c8d57612c8c6128bf565b5b6000612c9b84828501612b0c565b91505092915050565b6000602082019050612cb96000830184612c15565b92915050565b612cc88161294e565b8114612cd357600080fd5b50565b600081359050612ce581612cbf565b92915050565b60008060408385031215612d0257612d016128bf565b5b6000612d1085828601612b0c565b9250506020612d2185828601612cd6565b9150509250929050565b600080fd5b600080fd5b7f4e487b7100000000000000000000000000000000000000000000000000000000600052604160045260246000fd5b612d6d826129ca565b810181811067ffffffffffffffff82111715612d8c57612d8b612d35565b5b80604052505050565b6000612d9f6128b5565b9050612dab8282612d64565b919050565b600067ffffffffffffffff821115612dcb57612dca612d35565b5b612dd4826129ca565b9050602081019050919050565b82818337600083830152505050565b6000612e03612dfe84612db0565b612d95565b905082815260208101848484011115612e1f57612e1e612d30565b5b612e2a848285612de1565b509392505050565b600082601f830112612e4757612e46612d2b565b5b8135612e57848260208601612df0565b91505092915050565b60008060008060808587031215612e7a57612e796128bf565b5b6000612e8887828801612b0c565b9450506020612e9987828801612b0c565b9350506040612eaa87828801612a57565b925050606085013567ffffffffffffffff811115612ecb57612eca6128c4565b5b612ed787828801612e32565b91505092959194509250565b60008060408385031215612efa57612ef96128bf565b5b6000612f0885828601612b0c565b9250506020612f1985828601612b0c565b9150509250929050565b600067ffffffffffffffff821115612f3e57612f3d612d35565b5b612f47826129ca565b9050602081019050919050565b6000612f67612f6284612f23565b612d95565b905082815260208101848484011115612f8357612f82612d30565b5b612f8e848285612de1565b509392505050565b600082601f830112612fab57612faa612d2b565b5b8135612fbb848260208601612f54565b91505092915050565b60008060408385031215612fdb57612fda6128bf565b5b6000612fe985828601612b0c565b925050602083013567ffffffffffffffff81111561300a576130096128c4565b5b61301685828601612f96565b9150509250929050565b7f4e487b7100000000000000000000000000000000000000000000000000000000600052602260045260246000fd5b6000600282049050600182168061306757607f821691505b60208210810361307a57613079613020565b5b50919050565b7f4552433732313a20617070726f76656420717565727920666f72206e6f6e657860008201527f697374656e7420746f6b656e0000000000000000000000000000000000000000602082015250565b60006130dc602c8361298f565b91506130e782613080565b604082019050919050565b6000602082019050818103600083015261310b816130cf565b9050919050565b7f4552433732313a20617070726f76616c20746f2063757272656e74206f776e6560008201527f7200000000000000000000000000000000000000000000000000000000000000602082015250565b600061316e60218361298f565b915061317982613112565b604082019050919050565b6000602082019050818103600083015261319d81613161565b9050919050565b7f4552433732313a20617070726f76652063616c6c6572206973206e6f74206f7760008201527f6e6572206e6f7220617070726f76656420666f7220616c6c0000000000000000602082015250565b600061320060388361298f565b915061320b826131a4565b604082019050919050565b6000602082019050818103600083015261322f816131f3565b9050919050565b7f4552433732313a207472616e736665722063616c6c6572206973206e6f74206f60008201527f776e6572206e6f7220617070726f766564000000000000000000000000000000602082015250565b600061329260318361298f565b915061329d82613236565b604082019050919050565b600060208201905081810360008301526132c181613285565b9050919050565b7f41756374696f6e20697320636c6f736564000000000000000000000000000000600082015250565b60006132fe60118361298f565b9150613309826132c8565b602082019050919050565b6000602082019050818103600083015261332d816132f1565b9050919050565b7f41756374696f6e2068617320656e646564000000000000000000000000000000600082015250565b600061336a60118361298f565b915061337582613334565b602082019050919050565b600060208201905081810360008301526133998161335d565b9050919050565b7f426964206d75737420626520686967686572207468616e20746865206375727260008201527f656e742068696768657374206269640000000000000000000000000000000000602082015250565b60006133fc602f8361298f565b9150613407826133a0565b604082019050919050565b6000602082019050818103600083015261342b816133ef565b9050919050565b600081905092915050565b50565b600061344d600083613432565b91506134588261343d565b600082019050919050565b600061346e82613440565b9150819050919050565b7f4661696c656420746f20726566756e642070726576696f757320626964646572600082015250565b60006134ae60208361298f565b91506134b982613478565b602082019050919050565b600060208201905081810360008301526134dd816134a1565b9050919050565b60006060820190506134f96000830186612c15565b6135066020830185612acb565b6135136040830184612c15565b949350505050565b7f4f6e6c7920746865206f776e65722063616e20737461727420616e206175637460008201527f696f6e0000000000000000000000000000000000000000000000000000000000602082015250565b600061357760238361298f565b91506135828261351b565b604082019050919050565b600060208201905081810360008301526135a68161356a565b9050919050565b7f41756374696f6e20616c7265616479206f70656e20666f72207468697320746f60008201527f6b656e0000000000000000000000000000000000000000000000000000000000602082015250565b600061360960238361298f565b9150613614826135ad565b604082019050919050565b60006020820190508181036000830152613638816135fc565b9050919050565b7f41756374696f6e206475726174696f6e206d757374206265206772656174657260008201527f207468616e207a65726f00000000000000000000000000000000000000000000602082015250565b600061369b602a8361298f565b91506136a68261363f565b604082019050919050565b600060208201905081810360008301526136ca8161368e565b9050919050565b7f4e487b7100000000000000000000000000000000000000000000000000000000600052601160045260246000fd5b600061370b82612a36565b915061371683612a36565b925082820190508082111561372e5761372d6136d1565b5b92915050565b7f4552433732313a206f776e657220717565727920666f72206e6f6e657869737460008201527f656e7420746f6b656e0000000000000000000000000000000000000000000000602082015250565b600061379060298361298f565b915061379b82613734565b604082019050919050565b600060208201905081810360008301526137bf81613783565b9050919050565b7f4552433732313a2062616c616e636520717565727920666f7220746865207a6560008201527f726f206164647265737300000000000000000000000000000000000000000000602082015250565b6000613822602a8361298f565b915061382d826137c6565b604082019050919050565b6000602082019050818103600083015261385181613815565b9050919050565b7f4f776e61626c653a2063616c6c6572206973206e6f7420746865206f776e6572600082015250565b600061388e60208361298f565b915061389982613858565b602082019050919050565b600060208201905081810360008301526138bd81613881565b9050919050565b7f41756374696f6e206973206e6f74206f70656e00000000000000000000000000600082015250565b60006138fa60138361298f565b9150613905826138c4565b602082019050919050565b60006020820190508181036000830152613929816138ed565b9050919050565b7f4f6e6c79207468652073656c6c65722063616e2063616e63656c20746865206160008201527f756374696f6e0000000000000000000000000000000000000000000000000000602082015250565b600061398c60268361298f565b915061399782613930565b604082019050919050565b600060208201905081810360008301526139bb8161397f565b9050919050565b6000819050919050565b6000819050919050565b60006139f16139ec6139e7846139c2565b6139cc565b612a36565b9050919050565b613a01816139d6565b82525050565b6000606082019050613a1c6000830186612c15565b613a296020830185612acb565b613a3660408301846139f8565b949350505050565b7f4552433732313a20617070726f766520746f2063616c6c657200000000000000600082015250565b6000613a7460198361298f565b9150613a7f82613a3e565b602082019050919050565b60006020820190508181036000830152613aa381613a67565b9050919050565b7f41756374696f6e20697320616c726561647920636c6f73656400000000000000600082015250565b6000613ae060198361298f565b9150613aeb82613aaa565b602082019050919050565b60006020820190508181036000830152613b0f81613ad3565b9050919050565b7f41756374696f6e20686173206e6f7420656e6465642079657400000000000000600082015250565b6000613b4c60198361298f565b9150613b5782613b16565b602082019050919050565b60006020820190508181036000830152613b7b81613b3f565b9050919050565b7f4f6e6c79207468652073656c6c65722063616e20656e6420746865206175637460008201527f696f6e0000000000000000000000000000000000000000000000000000000000602082015250565b6000613bde60238361298f565b9150613be982613b82565b604082019050919050565b60006020820190508181036000830152613c0d81613bd1565b9050919050565b7f4661696c656420746f207472616e736665722066756e647320746f2073656c6c60008201527f6572000000000000000000000000000000000000000000000000000000000000602082015250565b6000613c7060228361298f565b9150613c7b82613c14565b604082019050919050565b60006020820190508181036000830152613c9f81613c63565b9050919050565b6000613cc1613cbc613cb784612a99565b6139cc565b612a99565b9050919050565b6000613cd382613ca6565b9050919050565b6000613ce582613cc8565b9050919050565b613cf581613cda565b82525050565b6000606082019050613d106000830186612c15565b613d1d6020830185613cec565b613d2a6040830184612c15565b949350505050565b7f45524337323155524953746f726167653a2055524920717565727920666f722060008201527f6e6f6e6578697374656e7420746f6b656e000000000000000000000000000000602082015250565b6000613d8e60318361298f565b9150613d9982613d32565b604082019050919050565b60006020820190508181036000830152613dbd81613d81565b9050919050565b600081905092915050565b6000613dda82612984565b613de48185613dc4565b9350613df48185602086016129a0565b80840191505092915050565b6000613e0c8285613dcf565b9150613e188284613dcf565b91508190509392505050565b7f496e76616c696420726563697069656e74206164647265737300000000000000600082015250565b6000613e5a60198361298f565b9150613e6582613e24565b602082019050919050565b60006020820190508181036000830152613e8981613e4d565b9050919050565b7f546f6b656e205552492063616e6e6f7420626520656d70747900000000000000600082015250565b6000613ec660198361298f565b9150613ed182613e90565b602082019050919050565b60006020820190508181036000830152613ef581613eb9565b9050919050565b6000606082019050613f116000830186612c15565b613f1e6020830185612acb565b8181036040830152613f3081846129db565b9050949350505050565b7f4f776e61626c653a206e6577206f776e657220697320746865207a65726f206160008201527f6464726573730000000000000000000000000000000000000000000000000000602082015250565b6000613f9660268361298f565b9150613fa182613f3a565b604082019050919050565b60006020820190508181036000830152613fc581613f89565b9050919050565b7f4552433732313a206f70657261746f7220717565727920666f72206e6f6e657860008201527f697374656e7420746f6b656e0000000000000000000000000000000000000000602082015250565b6000614028602c8361298f565b915061403382613fcc565b604082019050919050565b600060208201905081810360008301526140578161401b565b9050919050565b7f4552433732313a207472616e73666572206f6620746f6b656e2074686174206960008201527f73206e6f74206f776e0000000000000000000000000000000000000000000000602082015250565b60006140ba60298361298f565b91506140c58261405e565b604082019050919050565b600060208201905081810360008301526140e9816140ad565b9050919050565b7f4552433732313a207472616e7366657220746f20746865207a65726f2061646460008201527f7265737300000000000000000000000000000000000000000000000000000000602082015250565b600061414c60248361298f565b9150614157826140f0565b604082019050919050565b6000602082019050818103600083015261417b8161413f565b9050919050565b600061418d82612a36565b915061419883612a36565b92508282039050818111156141b0576141af6136d1565b5b92915050565b7f4552433732313a207472616e7366657220746f206e6f6e20455243373231526560008201527f63656976657220696d706c656d656e7465720000000000000000000000000000602082015250565b600061421260328361298f565b915061421d826141b6565b604082019050919050565b6000602082019050818103600083015261424181614205565b9050919050565b7f4552433732314d657461646174613a2055524920717565727920666f72206e6f60008201527f6e6578697374656e7420746f6b656e0000000000000000000000000000000000602082015250565b60006142a4602f8361298f565b91506142af82614248565b604082019050919050565b600060208201905081810360008301526142d381614297565b9050919050565b7f4552433732313a206d696e7420746f20746865207a65726f2061646472657373600082015250565b600061431060208361298f565b915061431b826142da565b602082019050919050565b6000602082019050818103600083015261433f81614303565b9050919050565b7f4552433732313a20746f6b656e20616c7265616479206d696e74656400000000600082015250565b600061437c601c8361298f565b915061438782614346565b602082019050919050565b600060208201905081810360008301526143ab8161436f565b9050919050565b7f45524337323155524953746f726167653a2055524920736574206f66206e6f6e60008201527f6578697374656e7420746f6b656e000000000000000000000000000000000000602082015250565b600061440e602e8361298f565b9150614419826143b2565b604082019050919050565b6000602082019050818103600083015261443d81614401565b9050919050565b60008190508160005260206000209050919050565b60006020601f8301049050919050565b600082821b905092915050565b6000600883026144a67fffffffffffffffffffffffffffffffffffffffffffffffffffffffffffffffff82614469565b6144b08683614469565b95508019841693508086168417925050509392505050565b60006144e36144de6144d984612a36565b6139cc565b612a36565b9050919050565b6000819050919050565b6144fd836144c8565b614511614509826144ea565b848454614476565b825550505050565b600090565b614526614519565b6145318184846144f4565b505050565b5b818110156145555761454a60008261451e565b600181019050614537565b5050565b601f82111561459a5761456b81614444565b61457484614459565b81016020851015614583578190505b61459761458f85614459565b830182614536565b50505b505050565b600082821c905092915050565b60006145bd6000198460080261459f565b1980831691505092915050565b60006145d683836145ac565b9150826002028217905092915050565b6145ef82612984565b67ffffffffffffffff81111561460857614607612d35565b5b614612825461304f565b61461d828285614559565b600060209050601f831160018114614650576000841561463e578287015190505b61464885826145ca565b8655506146b0565b601f19841661465e86614444565b60005b8281101561468657848901518255600182019150602085019450602081019050614661565b868310156146a3578489015161469f601f8916826145ac565b8355505b6001600288020188555050505b505050505050565b600081519050919050565b600082825260208201905092915050565b60006146df826146b8565b6146e981856146c3565b93506146f98185602086016129a0565b614702816129ca565b840191505092915050565b60006080820190506147226000830187612acb565b61472f6020830186612acb565b61473c6040830185612c15565b818103606083015261474e81846146d4565b905095945050505050565b600081519050614768816128f5565b92915050565b600060208284031215614784576147836128bf565b5b600061479284828501614759565b91505092915050565b60006147a682612a36565b91507fffffffffffffffffffffffffffffffffffffffffffffffffffffffffffffffff82036147d8576147d76136d1565b5b600182019050919050565b7f4e487b7100000000000000000000000000000000000000000000000000000000600052601260045260246000fd5b600061481d82612a36565b915061482883612a36565b925082614838576148376147e3565b5b828204905092915050565b600061484e82612a36565b915061485983612a36565b925082614869576148686147e3565b5b828206905092915050565b7f4e487b7100000000000000000000000000000000000000000000000000000000600052603260045260246000fdfea2646970667358221220dd1538cd6c4d581a24e1d3926287b3f5244c6dededdd34f7cc25346d0e33e06464736f6c63430008130033",
  "immutableReferences": {},
  "source": "// SPDX-License-Identifier: MIT\npragma solidity ^0.8.19;\n\nimport \"@openzeppelin/contracts/token/ERC721/extensions/ERC721URIStorage.sol\";\nimport \"@openzeppelin/contracts/access/Ownable.sol\";\n\ncontract NFTennis is ERC721URIStorage, Ownable {\n    uint256 public tokenCounter;\n\n    struct Auction {\n        address payable seller;\n        uint256 highestBid;\n        address payable highestBidder;\n        bool open;\n        uint256 endTime;\n    }\n\n    mapping(uint256 => Auction) public auctions;\n\n    // Eventi per monitorare le azioni\n    event NFTMinted(uint256 tokenId, address recipient, string tokenURI);\n    event AuctionStarted(uint256 tokenId, address seller, uint256 endTime);\n    event NewBid(uint256 tokenId, address bidder, uint256 bidAmount);\n    event AuctionEnded(uint256 tokenId, address winner, uint256 winningBid);\n\n    constructor() ERC721(\"NFTennis\", \"NFTN\") {\n        tokenCounter = 0; // Inizializza il contatore dei token\n    }\n\n    /**\n     * @dev Crea un nuovo NFT e lo assegna al destinatario. Solo il proprietario pu eseguire questa funzione.\n     * @param recipient L'indirizzo che ricever l'NFT.\n     * @param tokenURI URI dei metadati dell'NFT.\n     */\n    function mintNFT(address recipient, string memory tokenURI) public onlyOwner {\n        // Controlli: recipient non pu essere l'indirizzo zero\n        require(recipient != address(0), \"Invalid recipient address\");\n        // Controllo: tokenURI non pu essere vuoto\n        require(bytes(tokenURI).length > 0, \"Token URI cannot be empty\");\n\n        uint256 tokenId = tokenCounter;\n        _mint(recipient, tokenId); // Mint del nuovo NFT\n        _setTokenURI(tokenId, tokenURI); // Imposta l'URI dei metadati\n        tokenCounter += 1;\n\n        emit NFTMinted(tokenId, recipient, tokenURI); // Emissione evento\n    }\n\n    /**\n     * @dev Avvia un'asta per un NFT. Solo il proprietario dell'NFT pu avviare l'asta.\n     * @param tokenId ID del token da mettere all'asta.\n     * @param duration Durata dell'asta in secondi.\n     */\n    function startAuction(uint256 tokenId, uint256 duration) public {\n        // Controlli: solo il proprietario pu avviare l'asta\n        require(ownerOf(tokenId) == msg.sender, \"Only the owner can start an auction\");\n        // Controllo: l'asta deve essere chiusa\n        require(!auctions[tokenId].open, \"Auction already open for this token\");\n        // Controllo: durata dell'asta deve essere positiva\n        require(duration > 0, \"Auction duration must be greater than zero\");\n\n        auctions[tokenId] = Auction({\n            seller: payable(msg.sender),\n            highestBid: 0,\n            highestBidder: payable(address(0)),\n            open: true,\n            endTime: block.timestamp + duration\n        });\n\n        emit AuctionStarted(tokenId, msg.sender, auctions[tokenId].endTime); // Emissione evento\n    }\n\n    /**\n     * @dev Effettua un'offerta per un NFT all'asta.\n     * @param tokenId ID del token per cui si vuole fare un'offerta.\n     */\n    function bid(uint256 tokenId) public payable {\n        Auction storage auction = auctions[tokenId];\n        // Controllo: l'asta deve essere aperta\n        require(auction.open, \"Auction is closed\");\n        // Controllo: l'asta deve essere ancora attiva\n        require(block.timestamp < auction.endTime, \"Auction has ended\");\n        // Controllo: l'offerta deve essere maggiore della precedente\n        require(msg.value > auction.highestBid, \"Bid must be higher than the current highest bid\");\n\n        // Rimborsa il precedente miglior offerente\n        if (auction.highestBidder != address(0)) {\n            (bool success, ) = auction.highestBidder.call{value: auction.highestBid}(\"\");\n            require(success, \"Failed to refund previous bidder\");\n        }\n\n        auction.highestBid = msg.value;\n        auction.highestBidder = payable(msg.sender);\n\n        emit NewBid(tokenId, msg.sender, msg.value); // Emissione evento\n    }\n\n    /**\n     * @dev Termina un'asta e trasferisce l'NFT al miglior offerente.\n     * @param tokenId ID del token all'asta.\n     */\n    function endAuction(uint256 tokenId) public {\n        Auction storage auction = auctions[tokenId];\n        // Controllo: l'asta deve essere chiusa\n        require(auction.open, \"Auction is already closed\");\n        // Controllo: l'asta deve essere terminata\n        require(block.timestamp >= auction.endTime, \"Auction has not ended yet\");\n        // Controllo: solo il venditore pu terminare l'asta\n        require(auction.seller == msg.sender, \"Only the seller can end the auction\");\n\n        auction.open = false;\n\n        if (auction.highestBidder != address(0)) {\n            // Trasferisce l'NFT al miglior offerente\n            _transfer(auction.seller, auction.highestBidder, tokenId);\n            // Trasferisce i fondi al venditore\n            (bool success, ) = auction.seller.call{value: auction.highestBid}(\"\");\n            require(success, \"Failed to transfer funds to seller\");\n\n            emit AuctionEnded(tokenId, auction.highestBidder, auction.highestBid); // Emissione evento\n        } else {\n            // Nessuna offerta valida, asta chiusa senza vincitore\n            emit AuctionEnded(tokenId, address(0), 0);\n        }\n    }\n\n    /**\n     * @dev Funzione di emergenza per cancellare un'asta (pu essere invocata solo dal proprietario dell'NFT).\n     * @param tokenId ID del token da annullare.\n     */\n    function cancelAuction(uint256 tokenId) public {\n        Auction storage auction = auctions[tokenId];\n        // Controllo: l'asta deve essere aperta\n        require(auction.open, \"Auction is not open\");\n        // Controllo: solo il venditore pu annullare l'asta\n        require(auction.seller == msg.sender, \"Only the seller can cancel the auction\");\n\n        auction.open = false;\n        emit AuctionEnded(tokenId, address(0), 0); // Emissione evento per annullamento asta\n    }\n}\n",
  "sourcePath": "/Users/massimo/NFTennis/backend/smart-contracts/contracts/NFTennis.sol",
  "compiler": {
    "name": "solc",
    "version": "0.8.19+commit.7dd6d404.Emscripten.clang"
  },
  "schemaVersion": "3.4.16",
  "updatedAt": "2025-01-23T21:33:29.941Z",
  "networkType": "ethereum",
  "devdoc": {
    "events": {
      "Approval(address,address,uint256)": {
        "details": "Emitted when `owner` enables `approved` to manage the `tokenId` token."
      },
      "ApprovalForAll(address,address,bool)": {
        "details": "Emitted when `owner` enables or disables (`approved`) `operator` to manage all of its assets."
      },
      "Transfer(address,address,uint256)": {
        "details": "Emitted when `tokenId` token is transferred from `from` to `to`."
      }
    },
    "kind": "dev",
    "methods": {
      "approve(address,uint256)": {
        "details": "See {IERC721-approve}."
      },
      "balanceOf(address)": {
        "details": "See {IERC721-balanceOf}."
      },
      "bid(uint256)": {
        "details": "Effettua un'offerta per un NFT all'asta.",
        "params": {
          "tokenId": "ID del token per cui si vuole fare un'offerta."
        }
      },
      "cancelAuction(uint256)": {
        "details": "Funzione di emergenza per cancellare un'asta (pu essere invocata solo dal proprietario dell'NFT).",
        "params": {
          "tokenId": "ID del token da annullare."
        }
      },
      "endAuction(uint256)": {
        "details": "Termina un'asta e trasferisce l'NFT al miglior offerente.",
        "params": {
          "tokenId": "ID del token all'asta."
        }
      },
      "getApproved(uint256)": {
        "details": "See {IERC721-getApproved}."
      },
      "isApprovedForAll(address,address)": {
        "details": "See {IERC721-isApprovedForAll}."
      },
      "mintNFT(address,string)": {
        "details": "Crea un nuovo NFT e lo assegna al destinatario. Solo il proprietario pu eseguire questa funzione.",
        "params": {
          "recipient": "L'indirizzo che ricever l'NFT.",
          "tokenURI": "URI dei metadati dell'NFT."
        }
      },
      "name()": {
        "details": "See {IERC721Metadata-name}."
      },
      "owner()": {
        "details": "Returns the address of the current owner."
      },
      "ownerOf(uint256)": {
        "details": "See {IERC721-ownerOf}."
      },
      "renounceOwnership()": {
        "details": "Leaves the contract without owner. It will not be possible to call `onlyOwner` functions anymore. Can only be called by the current owner. NOTE: Renouncing ownership will leave the contract without an owner, thereby removing any functionality that is only available to the owner."
      },
      "safeTransferFrom(address,address,uint256)": {
        "details": "See {IERC721-safeTransferFrom}."
      },
      "safeTransferFrom(address,address,uint256,bytes)": {
        "details": "See {IERC721-safeTransferFrom}."
      },
      "setApprovalForAll(address,bool)": {
        "details": "See {IERC721-setApprovalForAll}."
      },
      "startAuction(uint256,uint256)": {
        "details": "Avvia un'asta per un NFT. Solo il proprietario dell'NFT pu avviare l'asta.",
        "params": {
          "duration": "Durata dell'asta in secondi.",
          "tokenId": "ID del token da mettere all'asta."
        }
      },
      "supportsInterface(bytes4)": {
        "details": "See {IERC165-supportsInterface}."
      },
      "symbol()": {
        "details": "See {IERC721Metadata-symbol}."
      },
      "tokenURI(uint256)": {
        "details": "See {IERC721Metadata-tokenURI}."
      },
      "transferFrom(address,address,uint256)": {
        "details": "See {IERC721-transferFrom}."
      },
      "transferOwnership(address)": {
        "details": "Transfers ownership of the contract to a new account (`newOwner`). Can only be called by the current owner."
      }
    },
    "version": 1
  },
  "userdoc": {
    "kind": "user",
    "methods": {},
    "version": 1
  }
}