{
  "contractName": "NFTennis",
  "abi": [
    {
      "inputs": [],
      "stateMutability": "nonpayable",
      "type": "constructor"
    },
    {
      "anonymous": false,
      "inputs": [
        {
          "indexed": true,
          "internalType": "address",
          "name": "owner",
          "type": "address"
        },
        {
          "indexed": true,
          "internalType": "address",
          "name": "approved",
          "type": "address"
        },
        {
          "indexed": true,
          "internalType": "uint256",
          "name": "tokenId",
          "type": "uint256"
        }
      ],
      "name": "Approval",
      "type": "event"
    },
    {
      "anonymous": false,
      "inputs": [
        {
          "indexed": true,
          "internalType": "address",
          "name": "owner",
          "type": "address"
        },
        {
          "indexed": true,
          "internalType": "address",
          "name": "operator",
          "type": "address"
        },
        {
          "indexed": false,
          "internalType": "bool",
          "name": "approved",
          "type": "bool"
        }
      ],
      "name": "ApprovalForAll",
      "type": "event"
    },
    {
      "anonymous": false,
      "inputs": [
        {
          "indexed": true,
          "internalType": "address",
          "name": "previousOwner",
          "type": "address"
        },
        {
          "indexed": true,
          "internalType": "address",
          "name": "newOwner",
          "type": "address"
        }
      ],
      "name": "OwnershipTransferred",
      "type": "event"
    },
    {
      "anonymous": false,
      "inputs": [
        {
          "indexed": true,
          "internalType": "address",
          "name": "from",
          "type": "address"
        },
        {
          "indexed": true,
          "internalType": "address",
          "name": "to",
          "type": "address"
        },
        {
          "indexed": true,
          "internalType": "uint256",
          "name": "tokenId",
          "type": "uint256"
        }
      ],
      "name": "Transfer",
      "type": "event"
    },
    {
      "inputs": [
        {
          "internalType": "address",
          "name": "to",
          "type": "address"
        },
        {
          "internalType": "uint256",
          "name": "tokenId",
          "type": "uint256"
        }
      ],
      "name": "approve",
      "outputs": [],
      "stateMutability": "nonpayable",
      "type": "function"
    },
    {
      "inputs": [
        {
          "internalType": "address",
          "name": "owner",
          "type": "address"
        }
      ],
      "name": "balanceOf",
      "outputs": [
        {
          "internalType": "uint256",
          "name": "",
          "type": "uint256"
        }
      ],
      "stateMutability": "view",
      "type": "function",
      "constant": true
    },
    {
      "inputs": [
        {
          "internalType": "uint256",
          "name": "tokenId",
          "type": "uint256"
        }
      ],
      "name": "getApproved",
      "outputs": [
        {
          "internalType": "address",
          "name": "",
          "type": "address"
        }
      ],
      "stateMutability": "view",
      "type": "function",
      "constant": true
    },
    {
      "inputs": [
        {
          "internalType": "address",
          "name": "owner",
          "type": "address"
        },
        {
          "internalType": "address",
          "name": "operator",
          "type": "address"
        }
      ],
      "name": "isApprovedForAll",
      "outputs": [
        {
          "internalType": "bool",
          "name": "",
          "type": "bool"
        }
      ],
      "stateMutability": "view",
      "type": "function",
      "constant": true
    },
    {
      "inputs": [],
      "name": "name",
      "outputs": [
        {
          "internalType": "string",
          "name": "",
          "type": "string"
        }
      ],
      "stateMutability": "view",
      "type": "function",
      "constant": true
    },
    {
      "inputs": [],
      "name": "owner",
      "outputs": [
        {
          "internalType": "address",
          "name": "",
          "type": "address"
        }
      ],
      "stateMutability": "view",
      "type": "function",
      "constant": true
    },
    {
      "inputs": [
        {
          "internalType": "uint256",
          "name": "tokenId",
          "type": "uint256"
        }
      ],
      "name": "ownerOf",
      "outputs": [
        {
          "internalType": "address",
          "name": "",
          "type": "address"
        }
      ],
      "stateMutability": "view",
      "type": "function",
      "constant": true
    },
    {
      "inputs": [],
      "name": "renounceOwnership",
      "outputs": [],
      "stateMutability": "nonpayable",
      "type": "function"
    },
    {
      "inputs": [
        {
          "internalType": "address",
          "name": "from",
          "type": "address"
        },
        {
          "internalType": "address",
          "name": "to",
          "type": "address"
        },
        {
          "internalType": "uint256",
          "name": "tokenId",
          "type": "uint256"
        }
      ],
      "name": "safeTransferFrom",
      "outputs": [],
      "stateMutability": "nonpayable",
      "type": "function"
    },
    {
      "inputs": [
        {
          "internalType": "address",
          "name": "from",
          "type": "address"
        },
        {
          "internalType": "address",
          "name": "to",
          "type": "address"
        },
        {
          "internalType": "uint256",
          "name": "tokenId",
          "type": "uint256"
        },
        {
          "internalType": "bytes",
          "name": "_data",
          "type": "bytes"
        }
      ],
      "name": "safeTransferFrom",
      "outputs": [],
      "stateMutability": "nonpayable",
      "type": "function"
    },
    {
      "inputs": [
        {
          "internalType": "address",
          "name": "operator",
          "type": "address"
        },
        {
          "internalType": "bool",
          "name": "approved",
          "type": "bool"
        }
      ],
      "name": "setApprovalForAll",
      "outputs": [],
      "stateMutability": "nonpayable",
      "type": "function"
    },
    {
      "inputs": [
        {
          "internalType": "bytes4",
          "name": "interfaceId",
          "type": "bytes4"
        }
      ],
      "name": "supportsInterface",
      "outputs": [
        {
          "internalType": "bool",
          "name": "",
          "type": "bool"
        }
      ],
      "stateMutability": "view",
      "type": "function",
      "constant": true
    },
    {
      "inputs": [],
      "name": "symbol",
      "outputs": [
        {
          "internalType": "string",
          "name": "",
          "type": "string"
        }
      ],
      "stateMutability": "view",
      "type": "function",
      "constant": true
    },
    {
      "inputs": [],
      "name": "tokenCounter",
      "outputs": [
        {
          "internalType": "uint256",
          "name": "",
          "type": "uint256"
        }
      ],
      "stateMutability": "view",
      "type": "function",
      "constant": true
    },
    {
      "inputs": [
        {
          "internalType": "uint256",
          "name": "tokenId",
          "type": "uint256"
        }
      ],
      "name": "tokenURI",
      "outputs": [
        {
          "internalType": "string",
          "name": "",
          "type": "string"
        }
      ],
      "stateMutability": "view",
      "type": "function",
      "constant": true
    },
    {
      "inputs": [
        {
          "internalType": "address",
          "name": "from",
          "type": "address"
        },
        {
          "internalType": "address",
          "name": "to",
          "type": "address"
        },
        {
          "internalType": "uint256",
          "name": "tokenId",
          "type": "uint256"
        }
      ],
      "name": "transferFrom",
      "outputs": [],
      "stateMutability": "nonpayable",
      "type": "function"
    },
    {
      "inputs": [
        {
          "internalType": "address",
          "name": "newOwner",
          "type": "address"
        }
      ],
      "name": "transferOwnership",
      "outputs": [],
      "stateMutability": "nonpayable",
      "type": "function"
    },
    {
      "inputs": [
        {
          "internalType": "string",
          "name": "tokenURI",
          "type": "string"
        }
      ],
      "name": "createNFT",
      "outputs": [
        {
          "internalType": "uint256",
          "name": "",
          "type": "uint256"
        }
      ],
      "stateMutability": "nonpayable",
      "type": "function"
    }
  ],
  "bytecode": "0x60806040523480156200001157600080fd5b506040518060400160405280600881526020017f4e4654656e6e69730000000000000000000000000000000000000000000000008152506040518060400160405280600681526020017f54454e4e4953000000000000000000000000000000000000000000000000000081525081600090816200008f91906200041a565b508060019081620000a191906200041a565b505050620000c4620000b8620000d260201b60201c565b620000da60201b60201c565b600060088190555062000501565b600033905090565b6000600760009054906101000a900473ffffffffffffffffffffffffffffffffffffffff16905081600760006101000a81548173ffffffffffffffffffffffffffffffffffffffff021916908373ffffffffffffffffffffffffffffffffffffffff1602179055508173ffffffffffffffffffffffffffffffffffffffff168173ffffffffffffffffffffffffffffffffffffffff167f8be0079c531659141344cd1fd0a4f28419497f9722a3daafe3b4186f6b6457e060405160405180910390a35050565b600081519050919050565b7f4e487b7100000000000000000000000000000000000000000000000000000000600052604160045260246000fd5b7f4e487b7100000000000000000000000000000000000000000000000000000000600052602260045260246000fd5b600060028204905060018216806200022257607f821691505b602082108103620002385762000237620001da565b5b50919050565b60008190508160005260206000209050919050565b60006020601f8301049050919050565b600082821b905092915050565b600060088302620002a27fffffffffffffffffffffffffffffffffffffffffffffffffffffffffffffffff8262000263565b620002ae868362000263565b95508019841693508086168417925050509392505050565b6000819050919050565b6000819050919050565b6000620002fb620002f5620002ef84620002c6565b620002d0565b620002c6565b9050919050565b6000819050919050565b6200031783620002da565b6200032f620003268262000302565b84845462000270565b825550505050565b600090565b6200034662000337565b620003538184846200030c565b505050565b5b818110156200037b576200036f6000826200033c565b60018101905062000359565b5050565b601f821115620003ca5762000394816200023e565b6200039f8462000253565b81016020851015620003af578190505b620003c7620003be8562000253565b83018262000358565b50505b505050565b600082821c905092915050565b6000620003ef60001984600802620003cf565b1980831691505092915050565b60006200040a8383620003dc565b9150826002028217905092915050565b6200042582620001a0565b67ffffffffffffffff811115620004415762000440620001ab565b5b6200044d825462000209565b6200045a8282856200037f565b600060209050601f8311600181146200049257600084156200047d578287015190505b620004898582620003fc565b865550620004f9565b601f198416620004a2866200023e565b60005b82811015620004cc57848901518255600182019150602085019450602081019050620004a5565b86831015620004ec5784890151620004e8601f891682620003dc565b8355505b6001600288020188555050505b505050505050565b61317e80620005116000396000f3fe608060405234801561001057600080fd5b50600436106101165760003560e01c80638da5cb5b116100a2578063c87b56dd11610071578063c87b56dd146102cb578063d082e381146102fb578063da2ed03e14610319578063e985e9c514610349578063f2fde38b1461037957610116565b80638da5cb5b1461025757806395d89b4114610275578063a22cb46514610293578063b88d4fde146102af57610116565b806323b872dd116100e957806323b872dd146101b557806342842e0e146101d15780636352211e146101ed57806370a082311461021d578063715018a61461024d57610116565b806301ffc9a71461011b57806306fdde031461014b578063081812fc14610169578063095ea7b314610199575b600080fd5b61013560048036038101906101309190611ba4565b610395565b6040516101429190611bec565b60405180910390f35b610153610477565b6040516101609190611c97565b60405180910390f35b610183600480360381019061017e9190611cef565b610509565b6040516101909190611d5d565b60405180910390f35b6101b360048036038101906101ae9190611da4565b61058e565b005b6101cf60048036038101906101ca9190611de4565b6106a5565b005b6101eb60048036038101906101e69190611de4565b610705565b005b61020760048036038101906102029190611cef565b610725565b6040516102149190611d5d565b60405180910390f35b61023760048036038101906102329190611e37565b6107d6565b6040516102449190611e73565b60405180910390f35b61025561088d565b005b61025f610915565b60405161026c9190611d5d565b60405180910390f35b61027d61093f565b60405161028a9190611c97565b60405180910390f35b6102ad60048036038101906102a89190611eba565b6109d1565b005b6102c960048036038101906102c4919061202f565b610b51565b005b6102e560048036038101906102e09190611cef565b610bb3565b6040516102f29190611c97565b60405180910390f35b610303610d04565b6040516103109190611e73565b60405180910390f35b610333600480360381019061032e9190612153565b610d0a565b6040516103409190611e73565b60405180910390f35b610363600480360381019061035e919061219c565b610dc4565b6040516103709190611bec565b60405180910390f35b610393600480360381019061038e9190611e37565b610e58565b005b60007f80ac58cd000000000000000000000000000000000000000000000000000000007bffffffffffffffffffffffffffffffffffffffffffffffffffffffff1916827bffffffffffffffffffffffffffffffffffffffffffffffffffffffff1916148061046057507f5b5e139f000000000000000000000000000000000000000000000000000000007bffffffffffffffffffffffffffffffffffffffffffffffffffffffff1916827bffffffffffffffffffffffffffffffffffffffffffffffffffffffff1916145b80610470575061046f82610f4f565b5b9050919050565b6060600080546104869061220b565b80601f01602080910402602001604051908101604052809291908181526020018280546104b29061220b565b80156104ff5780601f106104d4576101008083540402835291602001916104ff565b820191906000526020600020905b8154815290600101906020018083116104e257829003601f168201915b5050505050905090565b600061051482610fb9565b610553576040517f08c379a000000000000000000000000000000000000000000000000000000000815260040161054a906122ae565b60405180910390fd5b6004600083815260200190815260200160002060009054906101000a900473ffffffffffffffffffffffffffffffffffffffff169050919050565b600061059982610725565b90508073ffffffffffffffffffffffffffffffffffffffff168373ffffffffffffffffffffffffffffffffffffffff1603610609576040517f08c379a000000000000000000000000000000000000000000000000000000000815260040161060090612340565b60405180910390fd5b8073ffffffffffffffffffffffffffffffffffffffff16610628611025565b73ffffffffffffffffffffffffffffffffffffffff161480610657575061065681610651611025565b610dc4565b5b610696576040517f08c379a000000000000000000000000000000000000000000000000000000000815260040161068d906123d2565b60405180910390fd5b6106a0838361102d565b505050565b6106b66106b0611025565b826110e6565b6106f5576040517f08c379a00000000000000000000000000000000000000000000000000000000081526004016106ec90612464565b60405180910390fd5b6107008383836111c4565b505050565b61072083838360405180602001604052806000815250610b51565b505050565b6000806002600084815260200190815260200160002060009054906101000a900473ffffffffffffffffffffffffffffffffffffffff169050600073ffffffffffffffffffffffffffffffffffffffff168173ffffffffffffffffffffffffffffffffffffffff16036107cd576040517f08c379a00000000000000000000000000000000000000000000000000000000081526004016107c4906124f6565b60405180910390fd5b80915050919050565b60008073ffffffffffffffffffffffffffffffffffffffff168273ffffffffffffffffffffffffffffffffffffffff1603610846576040517f08c379a000000000000000000000000000000000000000000000000000000000815260040161083d90612588565b60405180910390fd5b600360008373ffffffffffffffffffffffffffffffffffffffff1673ffffffffffffffffffffffffffffffffffffffff168152602001908152602001600020549050919050565b610895611025565b73ffffffffffffffffffffffffffffffffffffffff166108b3610915565b73ffffffffffffffffffffffffffffffffffffffff1614610909576040517f08c379a0000000000000000000000000000000000000000000000000000000008152600401610900906125f4565b60405180910390fd5b610913600061141f565b565b6000600760009054906101000a900473ffffffffffffffffffffffffffffffffffffffff16905090565b60606001805461094e9061220b565b80601f016020809104026020016040519081016040528092919081815260200182805461097a9061220b565b80156109c75780601f1061099c576101008083540402835291602001916109c7565b820191906000526020600020905b8154815290600101906020018083116109aa57829003601f168201915b5050505050905090565b6109d9611025565b73ffffffffffffffffffffffffffffffffffffffff168273ffffffffffffffffffffffffffffffffffffffff1603610a46576040517f08c379a0000000000000000000000000000000000000000000000000000000008152600401610a3d90612660565b60405180910390fd5b8060056000610a53611025565b73ffffffffffffffffffffffffffffffffffffffff1673ffffffffffffffffffffffffffffffffffffffff16815260200190815260200160002060008473ffffffffffffffffffffffffffffffffffffffff1673ffffffffffffffffffffffffffffffffffffffff16815260200190815260200160002060006101000a81548160ff0219169083151502179055508173ffffffffffffffffffffffffffffffffffffffff16610b00611025565b73ffffffffffffffffffffffffffffffffffffffff167f17307eab39ab6107e8899845ad3d59bd9653f200f220920489ca2b5937696c3183604051610b459190611bec565b60405180910390a35050565b610b62610b5c611025565b836110e6565b610ba1576040517f08c379a0000000000000000000000000000000000000000000000000000000008152600401610b9890612464565b60405180910390fd5b610bad848484846114e5565b50505050565b6060610bbe82610fb9565b610bfd576040517f08c379a0000000000000000000000000000000000000000000000000000000008152600401610bf4906126f2565b60405180910390fd5b6000600660008481526020019081526020016000208054610c1d9061220b565b80601f0160208091040260200160405190810160405280929190818152602001828054610c499061220b565b8015610c965780601f10610c6b57610100808354040283529160200191610c96565b820191906000526020600020905b815481529060010190602001808311610c7957829003601f168201915b505050505090506000610ca7611541565b90506000815103610cbc578192505050610cff565b600082511115610cf1578082604051602001610cd992919061274e565b60405160208183030381529060405292505050610cff565b610cfa84611558565b925050505b919050565b60085481565b6000610d14611025565b73ffffffffffffffffffffffffffffffffffffffff16610d32610915565b73ffffffffffffffffffffffffffffffffffffffff1614610d88576040517f08c379a0000000000000000000000000000000000000000000000000000000008152600401610d7f906125f4565b60405180910390fd5b60006008549050610d9933826115ff565b610da381846117cc565b60086000815480929190610db6906127a1565b919050555080915050919050565b6000600560008473ffffffffffffffffffffffffffffffffffffffff1673ffffffffffffffffffffffffffffffffffffffff16815260200190815260200160002060008373ffffffffffffffffffffffffffffffffffffffff1673ffffffffffffffffffffffffffffffffffffffff16815260200190815260200160002060009054906101000a900460ff16905092915050565b610e60611025565b73ffffffffffffffffffffffffffffffffffffffff16610e7e610915565b73ffffffffffffffffffffffffffffffffffffffff1614610ed4576040517f08c379a0000000000000000000000000000000000000000000000000000000008152600401610ecb906125f4565b60405180910390fd5b600073ffffffffffffffffffffffffffffffffffffffff168173ffffffffffffffffffffffffffffffffffffffff1603610f43576040517f08c379a0000000000000000000000000000000000000000000000000000000008152600401610f3a9061285b565b60405180910390fd5b610f4c8161141f565b50565b60007f01ffc9a7000000000000000000000000000000000000000000000000000000007bffffffffffffffffffffffffffffffffffffffffffffffffffffffff1916827bffffffffffffffffffffffffffffffffffffffffffffffffffffffff1916149050919050565b60008073ffffffffffffffffffffffffffffffffffffffff166002600084815260200190815260200160002060009054906101000a900473ffffffffffffffffffffffffffffffffffffffff1673ffffffffffffffffffffffffffffffffffffffff1614159050919050565b600033905090565b816004600083815260200190815260200160002060006101000a81548173ffffffffffffffffffffffffffffffffffffffff021916908373ffffffffffffffffffffffffffffffffffffffff160217905550808273ffffffffffffffffffffffffffffffffffffffff166110a083610725565b73ffffffffffffffffffffffffffffffffffffffff167f8c5be1e5ebec7d5bd14f71427d1e84f3dd0314c0f7b2291e5b200ac8c7c3b92560405160405180910390a45050565b60006110f182610fb9565b611130576040517f08c379a0000000000000000000000000000000000000000000000000000000008152600401611127906128ed565b60405180910390fd5b600061113b83610725565b90508073ffffffffffffffffffffffffffffffffffffffff168473ffffffffffffffffffffffffffffffffffffffff1614806111aa57508373ffffffffffffffffffffffffffffffffffffffff1661119284610509565b73ffffffffffffffffffffffffffffffffffffffff16145b806111bb57506111ba8185610dc4565b5b91505092915050565b8273ffffffffffffffffffffffffffffffffffffffff166111e482610725565b73ffffffffffffffffffffffffffffffffffffffff161461123a576040517f08c379a00000000000000000000000000000000000000000000000000000000081526004016112319061297f565b60405180910390fd5b600073ffffffffffffffffffffffffffffffffffffffff168273ffffffffffffffffffffffffffffffffffffffff16036112a9576040517f08c379a00000000000000000000000000000000000000000000000000000000081526004016112a090612a11565b60405180910390fd5b6112b4838383611839565b6112bf60008261102d565b6001600360008573ffffffffffffffffffffffffffffffffffffffff1673ffffffffffffffffffffffffffffffffffffffff168152602001908152602001600020600082825461130f9190612a31565b925050819055506001600360008473ffffffffffffffffffffffffffffffffffffffff1673ffffffffffffffffffffffffffffffffffffffff16815260200190815260200160002060008282546113669190612a65565b92505081905550816002600083815260200190815260200160002060006101000a81548173ffffffffffffffffffffffffffffffffffffffff021916908373ffffffffffffffffffffffffffffffffffffffff160217905550808273ffffffffffffffffffffffffffffffffffffffff168473ffffffffffffffffffffffffffffffffffffffff167fddf252ad1be2c89b69c2b068fc378daa952ba7f163c4a11628f55a4df523b3ef60405160405180910390a4505050565b6000600760009054906101000a900473ffffffffffffffffffffffffffffffffffffffff16905081600760006101000a81548173ffffffffffffffffffffffffffffffffffffffff021916908373ffffffffffffffffffffffffffffffffffffffff1602179055508173ffffffffffffffffffffffffffffffffffffffff168173ffffffffffffffffffffffffffffffffffffffff167f8be0079c531659141344cd1fd0a4f28419497f9722a3daafe3b4186f6b6457e060405160405180910390a35050565b6114f08484846111c4565b6114fc8484848461183e565b61153b576040517f08c379a000000000000000000000000000000000000000000000000000000000815260040161153290612b0b565b60405180910390fd5b50505050565b606060405180602001604052806000815250905090565b606061156382610fb9565b6115a2576040517f08c379a000000000000000000000000000000000000000000000000000000000815260040161159990612b9d565b60405180910390fd5b60006115ac611541565b905060008151116115cc57604051806020016040528060008152506115f7565b806115d6846119c5565b6040516020016115e792919061274e565b6040516020818303038152906040525b915050919050565b600073ffffffffffffffffffffffffffffffffffffffff168273ffffffffffffffffffffffffffffffffffffffff160361166e576040517f08c379a000000000000000000000000000000000000000000000000000000000815260040161166590612c09565b60405180910390fd5b61167781610fb9565b156116b7576040517f08c379a00000000000000000000000000000000000000000000000000000000081526004016116ae90612c75565b60405180910390fd5b6116c360008383611839565b6001600360008473ffffffffffffffffffffffffffffffffffffffff1673ffffffffffffffffffffffffffffffffffffffff16815260200190815260200160002060008282546117139190612a65565b92505081905550816002600083815260200190815260200160002060006101000a81548173ffffffffffffffffffffffffffffffffffffffff021916908373ffffffffffffffffffffffffffffffffffffffff160217905550808273ffffffffffffffffffffffffffffffffffffffff16600073ffffffffffffffffffffffffffffffffffffffff167fddf252ad1be2c89b69c2b068fc378daa952ba7f163c4a11628f55a4df523b3ef60405160405180910390a45050565b6117d582610fb9565b611814576040517f08c379a000000000000000000000000000000000000000000000000000000000815260040161180b90612d07565b60405180910390fd5b806006600084815260200190815260200160002090816118349190612ed3565b505050565b505050565b600061185f8473ffffffffffffffffffffffffffffffffffffffff16611b25565b156119b8578373ffffffffffffffffffffffffffffffffffffffff1663150b7a02611888611025565b8786866040518563ffffffff1660e01b81526004016118aa9493929190612ffa565b6020604051808303816000875af19250505080156118e657506040513d601f19601f820116820180604052508101906118e3919061305b565b60015b611968573d8060008114611916576040519150601f19603f3d011682016040523d82523d6000602084013e61191b565b606091505b506000815103611960576040517f08c379a000000000000000000000000000000000000000000000000000000000815260040161195790612b0b565b60405180910390fd5b805181602001fd5b63150b7a0260e01b7bffffffffffffffffffffffffffffffffffffffffffffffffffffffff1916817bffffffffffffffffffffffffffffffffffffffffffffffffffffffff1916149150506119bd565b600190505b949350505050565b606060008203611a0c576040518060400160405280600181526020017f30000000000000000000000000000000000000000000000000000000000000008152509050611b20565b600082905060005b60008214611a3e578080611a27906127a1565b915050600a82611a3791906130b7565b9150611a14565b60008167ffffffffffffffff811115611a5a57611a59611f04565b5b6040519080825280601f01601f191660200182016040528015611a8c5781602001600182028036833780820191505090505b5090505b60008514611b1957600182611aa59190612a31565b9150600a85611ab491906130e8565b6030611ac09190612a65565b60f81b818381518110611ad657611ad5613119565b5b60200101907effffffffffffffffffffffffffffffffffffffffffffffffffffffffffffff1916908160001a905350600a85611b1291906130b7565b9450611a90565b8093505050505b919050565b600080823b905060008111915050919050565b6000604051905090565b600080fd5b600080fd5b60007fffffffff0000000000000000000000000000000000000000000000000000000082169050919050565b611b8181611b4c565b8114611b8c57600080fd5b50565b600081359050611b9e81611b78565b92915050565b600060208284031215611bba57611bb9611b42565b5b6000611bc884828501611b8f565b91505092915050565b60008115159050919050565b611be681611bd1565b82525050565b6000602082019050611c016000830184611bdd565b92915050565b600081519050919050565b600082825260208201905092915050565b60005b83811015611c41578082015181840152602081019050611c26565b60008484015250505050565b6000601f19601f8301169050919050565b6000611c6982611c07565b611c738185611c12565b9350611c83818560208601611c23565b611c8c81611c4d565b840191505092915050565b60006020820190508181036000830152611cb18184611c5e565b905092915050565b6000819050919050565b611ccc81611cb9565b8114611cd757600080fd5b50565b600081359050611ce981611cc3565b92915050565b600060208284031215611d0557611d04611b42565b5b6000611d1384828501611cda565b91505092915050565b600073ffffffffffffffffffffffffffffffffffffffff82169050919050565b6000611d4782611d1c565b9050919050565b611d5781611d3c565b82525050565b6000602082019050611d726000830184611d4e565b92915050565b611d8181611d3c565b8114611d8c57600080fd5b50565b600081359050611d9e81611d78565b92915050565b60008060408385031215611dbb57611dba611b42565b5b6000611dc985828601611d8f565b9250506020611dda85828601611cda565b9150509250929050565b600080600060608486031215611dfd57611dfc611b42565b5b6000611e0b86828701611d8f565b9350506020611e1c86828701611d8f565b9250506040611e2d86828701611cda565b9150509250925092565b600060208284031215611e4d57611e4c611b42565b5b6000611e5b84828501611d8f565b91505092915050565b611e6d81611cb9565b82525050565b6000602082019050611e886000830184611e64565b92915050565b611e9781611bd1565b8114611ea257600080fd5b50565b600081359050611eb481611e8e565b92915050565b60008060408385031215611ed157611ed0611b42565b5b6000611edf85828601611d8f565b9250506020611ef085828601611ea5565b9150509250929050565b600080fd5b600080fd5b7f4e487b7100000000000000000000000000000000000000000000000000000000600052604160045260246000fd5b611f3c82611c4d565b810181811067ffffffffffffffff82111715611f5b57611f5a611f04565b5b80604052505050565b6000611f6e611b38565b9050611f7a8282611f33565b919050565b600067ffffffffffffffff821115611f9a57611f99611f04565b5b611fa382611c4d565b9050602081019050919050565b82818337600083830152505050565b6000611fd2611fcd84611f7f565b611f64565b905082815260208101848484011115611fee57611fed611eff565b5b611ff9848285611fb0565b509392505050565b600082601f83011261201657612015611efa565b5b8135612026848260208601611fbf565b91505092915050565b6000806000806080858703121561204957612048611b42565b5b600061205787828801611d8f565b945050602061206887828801611d8f565b935050604061207987828801611cda565b925050606085013567ffffffffffffffff81111561209a57612099611b47565b5b6120a687828801612001565b91505092959194509250565b600067ffffffffffffffff8211156120cd576120cc611f04565b5b6120d682611c4d565b9050602081019050919050565b60006120f66120f1846120b2565b611f64565b90508281526020810184848401111561211257612111611eff565b5b61211d848285611fb0565b509392505050565b600082601f83011261213a57612139611efa565b5b813561214a8482602086016120e3565b91505092915050565b60006020828403121561216957612168611b42565b5b600082013567ffffffffffffffff81111561218757612186611b47565b5b61219384828501612125565b91505092915050565b600080604083850312156121b3576121b2611b42565b5b60006121c185828601611d8f565b92505060206121d285828601611d8f565b9150509250929050565b7f4e487b7100000000000000000000000000000000000000000000000000000000600052602260045260246000fd5b6000600282049050600182168061222357607f821691505b602082108103612236576122356121dc565b5b50919050565b7f4552433732313a20617070726f76656420717565727920666f72206e6f6e657860008201527f697374656e7420746f6b656e0000000000000000000000000000000000000000602082015250565b6000612298602c83611c12565b91506122a38261223c565b604082019050919050565b600060208201905081810360008301526122c78161228b565b9050919050565b7f4552433732313a20617070726f76616c20746f2063757272656e74206f776e6560008201527f7200000000000000000000000000000000000000000000000000000000000000602082015250565b600061232a602183611c12565b9150612335826122ce565b604082019050919050565b600060208201905081810360008301526123598161231d565b9050919050565b7f4552433732313a20617070726f76652063616c6c6572206973206e6f74206f7760008201527f6e6572206e6f7220617070726f76656420666f7220616c6c0000000000000000602082015250565b60006123bc603883611c12565b91506123c782612360565b604082019050919050565b600060208201905081810360008301526123eb816123af565b9050919050565b7f4552433732313a207472616e736665722063616c6c6572206973206e6f74206f60008201527f776e6572206e6f7220617070726f766564000000000000000000000000000000602082015250565b600061244e603183611c12565b9150612459826123f2565b604082019050919050565b6000602082019050818103600083015261247d81612441565b9050919050565b7f4552433732313a206f776e657220717565727920666f72206e6f6e657869737460008201527f656e7420746f6b656e0000000000000000000000000000000000000000000000602082015250565b60006124e0602983611c12565b91506124eb82612484565b604082019050919050565b6000602082019050818103600083015261250f816124d3565b9050919050565b7f4552433732313a2062616c616e636520717565727920666f7220746865207a6560008201527f726f206164647265737300000000000000000000000000000000000000000000602082015250565b6000612572602a83611c12565b915061257d82612516565b604082019050919050565b600060208201905081810360008301526125a181612565565b9050919050565b7f4f776e61626c653a2063616c6c6572206973206e6f7420746865206f776e6572600082015250565b60006125de602083611c12565b91506125e9826125a8565b602082019050919050565b6000602082019050818103600083015261260d816125d1565b9050919050565b7f4552433732313a20617070726f766520746f2063616c6c657200000000000000600082015250565b600061264a601983611c12565b915061265582612614565b602082019050919050565b600060208201905081810360008301526126798161263d565b9050919050565b7f45524337323155524953746f726167653a2055524920717565727920666f722060008201527f6e6f6e6578697374656e7420746f6b656e000000000000000000000000000000602082015250565b60006126dc603183611c12565b91506126e782612680565b604082019050919050565b6000602082019050818103600083015261270b816126cf565b9050919050565b600081905092915050565b600061272882611c07565b6127328185612712565b9350612742818560208601611c23565b80840191505092915050565b600061275a828561271d565b9150612766828461271d565b91508190509392505050565b7f4e487b7100000000000000000000000000000000000000000000000000000000600052601160045260246000fd5b60006127ac82611cb9565b91507fffffffffffffffffffffffffffffffffffffffffffffffffffffffffffffffff82036127de576127dd612772565b5b600182019050919050565b7f4f776e61626c653a206e6577206f776e657220697320746865207a65726f206160008201527f6464726573730000000000000000000000000000000000000000000000000000602082015250565b6000612845602683611c12565b9150612850826127e9565b604082019050919050565b6000602082019050818103600083015261287481612838565b9050919050565b7f4552433732313a206f70657261746f7220717565727920666f72206e6f6e657860008201527f697374656e7420746f6b656e0000000000000000000000000000000000000000602082015250565b60006128d7602c83611c12565b91506128e28261287b565b604082019050919050565b60006020820190508181036000830152612906816128ca565b9050919050565b7f4552433732313a207472616e73666572206f6620746f6b656e2074686174206960008201527f73206e6f74206f776e0000000000000000000000000000000000000000000000602082015250565b6000612969602983611c12565b91506129748261290d565b604082019050919050565b600060208201905081810360008301526129988161295c565b9050919050565b7f4552433732313a207472616e7366657220746f20746865207a65726f2061646460008201527f7265737300000000000000000000000000000000000000000000000000000000602082015250565b60006129fb602483611c12565b9150612a068261299f565b604082019050919050565b60006020820190508181036000830152612a2a816129ee565b9050919050565b6000612a3c82611cb9565b9150612a4783611cb9565b9250828203905081811115612a5f57612a5e612772565b5b92915050565b6000612a7082611cb9565b9150612a7b83611cb9565b9250828201905080821115612a9357612a92612772565b5b92915050565b7f4552433732313a207472616e7366657220746f206e6f6e20455243373231526560008201527f63656976657220696d706c656d656e7465720000000000000000000000000000602082015250565b6000612af5603283611c12565b9150612b0082612a99565b604082019050919050565b60006020820190508181036000830152612b2481612ae8565b9050919050565b7f4552433732314d657461646174613a2055524920717565727920666f72206e6f60008201527f6e6578697374656e7420746f6b656e0000000000000000000000000000000000602082015250565b6000612b87602f83611c12565b9150612b9282612b2b565b604082019050919050565b60006020820190508181036000830152612bb681612b7a565b9050919050565b7f4552433732313a206d696e7420746f20746865207a65726f2061646472657373600082015250565b6000612bf3602083611c12565b9150612bfe82612bbd565b602082019050919050565b60006020820190508181036000830152612c2281612be6565b9050919050565b7f4552433732313a20746f6b656e20616c7265616479206d696e74656400000000600082015250565b6000612c5f601c83611c12565b9150612c6a82612c29565b602082019050919050565b60006020820190508181036000830152612c8e81612c52565b9050919050565b7f45524337323155524953746f726167653a2055524920736574206f66206e6f6e60008201527f6578697374656e7420746f6b656e000000000000000000000000000000000000602082015250565b6000612cf1602e83611c12565b9150612cfc82612c95565b604082019050919050565b60006020820190508181036000830152612d2081612ce4565b9050919050565b60008190508160005260206000209050919050565b60006020601f8301049050919050565b600082821b905092915050565b600060088302612d897fffffffffffffffffffffffffffffffffffffffffffffffffffffffffffffffff82612d4c565b612d938683612d4c565b95508019841693508086168417925050509392505050565b6000819050919050565b6000612dd0612dcb612dc684611cb9565b612dab565b611cb9565b9050919050565b6000819050919050565b612dea83612db5565b612dfe612df682612dd7565b848454612d59565b825550505050565b600090565b612e13612e06565b612e1e818484612de1565b505050565b5b81811015612e4257612e37600082612e0b565b600181019050612e24565b5050565b601f821115612e8757612e5881612d27565b612e6184612d3c565b81016020851015612e70578190505b612e84612e7c85612d3c565b830182612e23565b50505b505050565b600082821c905092915050565b6000612eaa60001984600802612e8c565b1980831691505092915050565b6000612ec38383612e99565b9150826002028217905092915050565b612edc82611c07565b67ffffffffffffffff811115612ef557612ef4611f04565b5b612eff825461220b565b612f0a828285612e46565b600060209050601f831160018114612f3d5760008415612f2b578287015190505b612f358582612eb7565b865550612f9d565b601f198416612f4b86612d27565b60005b82811015612f7357848901518255600182019150602085019450602081019050612f4e565b86831015612f905784890151612f8c601f891682612e99565b8355505b6001600288020188555050505b505050505050565b600081519050919050565b600082825260208201905092915050565b6000612fcc82612fa5565b612fd68185612fb0565b9350612fe6818560208601611c23565b612fef81611c4d565b840191505092915050565b600060808201905061300f6000830187611d4e565b61301c6020830186611d4e565b6130296040830185611e64565b818103606083015261303b8184612fc1565b905095945050505050565b60008151905061305581611b78565b92915050565b60006020828403121561307157613070611b42565b5b600061307f84828501613046565b91505092915050565b7f4e487b7100000000000000000000000000000000000000000000000000000000600052601260045260246000fd5b60006130c282611cb9565b91506130cd83611cb9565b9250826130dd576130dc613088565b5b828204905092915050565b60006130f382611cb9565b91506130fe83611cb9565b92508261310e5761310d613088565b5b828206905092915050565b7f4e487b7100000000000000000000000000000000000000000000000000000000600052603260045260246000fdfea2646970667358221220282973d1feffbc24e11988673346aebb51b35df2d9ce3cadbfdf6c53b29abe2564736f6c63430008130033",
  "immutableReferences": {},
  "source": "// SPDX-License-Identifier: MIT\npragma solidity ^0.8.19;\n\nimport \"@openzeppelin/contracts/token/ERC721/extensions/ERC721URIStorage.sol\";\nimport \"@openzeppelin/contracts/access/Ownable.sol\";\n\ncontract NFTennis is ERC721URIStorage, Ownable {\n    uint256 public tokenCounter;\n\n    constructor() ERC721(\"NFTennis\", \"TENNIS\") {\n        tokenCounter = 0;\n    }\n\n    function createNFT(string memory tokenURI) public onlyOwner returns (uint256) {\n        uint256 newItemId = tokenCounter;\n        _mint(msg.sender, newItemId);\n        _setTokenURI(newItemId, tokenURI);\n        tokenCounter++;\n        return newItemId;\n    }\n}\n",
  "sourcePath": "/Users/massimo/NFTennis/backend/smart-contracts/contracts/NFTennis.sol",
  "compiler": {
    "name": "solc",
    "version": "0.8.19+commit.7dd6d404.Emscripten.clang"
  },
  "schemaVersion": "3.4.16",
  "updatedAt": "2025-01-16T12:18:05.653Z",
  "networkType": "ethereum",
  "devdoc": {
    "events": {
      "Approval(address,address,uint256)": {
        "details": "Emitted when `owner` enables `approved` to manage the `tokenId` token."
      },
      "ApprovalForAll(address,address,bool)": {
        "details": "Emitted when `owner` enables or disables (`approved`) `operator` to manage all of its assets."
      },
      "Transfer(address,address,uint256)": {
        "details": "Emitted when `tokenId` token is transferred from `from` to `to`."
      }
    },
    "kind": "dev",
    "methods": {
      "approve(address,uint256)": {
        "details": "See {IERC721-approve}."
      },
      "balanceOf(address)": {
        "details": "See {IERC721-balanceOf}."
      },
      "getApproved(uint256)": {
        "details": "See {IERC721-getApproved}."
      },
      "isApprovedForAll(address,address)": {
        "details": "See {IERC721-isApprovedForAll}."
      },
      "name()": {
        "details": "See {IERC721Metadata-name}."
      },
      "owner()": {
        "details": "Returns the address of the current owner."
      },
      "ownerOf(uint256)": {
        "details": "See {IERC721-ownerOf}."
      },
      "renounceOwnership()": {
        "details": "Leaves the contract without owner. It will not be possible to call `onlyOwner` functions anymore. Can only be called by the current owner. NOTE: Renouncing ownership will leave the contract without an owner, thereby removing any functionality that is only available to the owner."
      },
      "safeTransferFrom(address,address,uint256)": {
        "details": "See {IERC721-safeTransferFrom}."
      },
      "safeTransferFrom(address,address,uint256,bytes)": {
        "details": "See {IERC721-safeTransferFrom}."
      },
      "setApprovalForAll(address,bool)": {
        "details": "See {IERC721-setApprovalForAll}."
      },
      "supportsInterface(bytes4)": {
        "details": "See {IERC165-supportsInterface}."
      },
      "symbol()": {
        "details": "See {IERC721Metadata-symbol}."
      },
      "tokenURI(uint256)": {
        "details": "See {IERC721Metadata-tokenURI}."
      },
      "transferFrom(address,address,uint256)": {
        "details": "See {IERC721-transferFrom}."
      },
      "transferOwnership(address)": {
        "details": "Transfers ownership of the contract to a new account (`newOwner`). Can only be called by the current owner."
      }
    },
    "version": 1
  },
  "userdoc": {
    "kind": "user",
    "methods": {},
    "version": 1
  }
}